:020000040800F2
:1000000000110020F1010008E57000088F6400086D
:10001000E1700008B90A0008618E000800000000C5
:10002000000000000000000000000000C97100088E
:10003000D50C000800000000457100083B7D000859
:100040000B0200080B0200080B0200080B0200085C
:100050000B0200080B0200080B0200080B0200084C
:100060000B0200080B0200080B0200088D0B0008B1
:100070009D0B0008AD0B0008BD0B0008CD0B000860
:10008000DD0B00080B0200080B0200080B02000841
:100090000B0200080B0200080B0200080B0200080C
:1000A0000B020008D97D00080B020008C97D00087A
:1000B000E97D00080B0200080B0200080B02000893
:1000C0000B0200080B0200080B0200080B020008DC
:1000D0000B020008058E0008158E0008258E00080A
:1000E0000B0200080B0200080B0200080B020008BC
:1000F0000B0200080B0200080B0200080B020008AC
:100100000B0200080B0200080B0200080B0200089B
:100110008D830008C98300080B0200080B02000849
:10012000FD0B00080D0C00081D0C00080B02000858
:100130000B0200080B0200080B0200080B0200086B
:100140000B0200080B0200080B020008495B0008C4
:10015000595B0008695B00080B0200080B020008ED
:100160000B0200080B0200080B0200080B0200083B
:100170000B0200080B0200080B0200080B0200082B
:100180000B0200080B0200080B0200080B0200081B
:100190000B020008000000000B0200080B02000820
:1001A0000B0200080B0200080B0200080B020008FB
:1001B0000B0200080B0200080B0200080B020008EB
:1001C000ED0B00080B0200080B0200080B020008F0
:1001D0000B0200080B020008DFF810D000F05CFAF8
:1001E00000480047E1980008AFF3008000110020AC
:1001F0000648804706480047FEE7FEE7FEE7FEE7C1
:10020000FEE7FEE7FEE7FEE7FEE7FEE7B57D000856
:10021000D90100082DE9F05F0546002092469B4673
:1002200088460646814640241BE02846414647460C
:10023000224600F069F853465A46C01A914110D33D
:1002400011461846224600F050F82D1A67EB0108B7
:100250004F4622460120002100F047F817EB000925
:100260004E41201EA4F10104DFDC484631462A46F7
:100270004346BDE8F09F40EA01039B0703D009E035
:1002800008C9121F08C0042AFAD203E011F8013B82
:1002900000F8013B521EF9D27047D2B201E000F8DB
:1002A000012B491EFBD270470022F6E710B513461A
:1002B0000A4604461946FFF7F0FF204610BD30B548
:1002C0000B46014600202022012409E021FA02F514
:1002D0009D4205D303FA02F5491B04FA02F52844AE
:1002E000151EA2F10102F1DC30BD202A04DB203A08
:1002F00000FA02F1002070479140C2F1200320FA79
:1003000003F3194390407047202A04DB203A21FA76
:1003100002F00021704721FA02F3D040C2F120021E
:1003200091400843194670472DE9FE4F804681EA07
:100330000300C00F0C46009021F0004123F000455F
:10034000B8EB0200A94105D24046214690461C4622
:100350000B46024623F00040104347D0270DC7F359
:100360000A00C3F30A510290401A019040286BDA48
:10037000C3F3130040F4801B0098924620B1002381
:10038000D2EB030A63EB0B0B01985946C0F1400214
:100390005046FFF7AAFF06460D4650465946019AB9
:1003A00000F08CF910EB08006141002487EA11523B
:1003B00084EAE7731A4340D0009A62B3019A012A93
:1003C0004FEA075215DC001B61EB02014FF00042BF
:1003D00002EA0752CDE90042001C41F58011324685
:1003E0002B4600F08CF903B0BDE8F08F4046214663
:1003F000F9E7001B61EB0201001C41F580130018B6
:100400005B412018A2F5001747EB030140EAD570C5
:10041000B6196D4111E06D084FEA360645EAC07520
:100420004FEA0752001B61EB0201001C41F58011ED
:1004300049084FEA30000019514132462B4603B0BB
:10044000BDE8F04F00F04CB90098012240000023B5
:10045000D0EB020263EBE073009821464FEAE074B0
:10046000B8EB000061EB0401E9E783F000435BE7D0
:1004700081F0004158E72DE9FE4F81EA030404F0C2
:10048000004421F0004100944FF0000B23F00043A2
:1004900050EA01045ED052EA03045BD0C3F30A546D
:1004A000C1F30A552C44A4F2F3340194A0FB025486
:1004B000C1F3130141F48011C3F3130343F4801318
:1004C00001FB024400FB034E840A970A44EA81546C
:1004D00047EA8357A4FB076802958D0A05FB078549
:1004E0004FEA932C04FB0C542705029D4FEA065853
:1004F00047EA1637B5EB08056EEB070C870E920E30
:1005000047EA811742EA8312A7FB0201B6EB0B010F
:1005100064EB00042B0D43EA0C335E1844EB1C50D3
:10052000DA465146E7FB0201C5F313044FEA0B33E9
:1005300043EA14534FEA0432019C43EA0603A4F150
:100540000C040294009CCDE900B400F0D8F803B08C
:10055000BDE8F08F00200146F9E72DE9F04D81EA72
:10056000030404F0004B21F0004514464FF0000A4C
:1005700023F0004150EA050220D054EA01021DD0C8
:10058000C5F30A570246C5F31303C1F31300C1F3C1
:100590000A5640F4801543F48013A7EB0608101B9D
:1005A000D64608F2FD3873EB050002D308F10108C6
:1005B00001E092185B41B8F1000F03DA0020014618
:1005C000BDE8F08D00204FF48011064684460EE011
:1005D000171B73EB050705D3121B63EB05030643DB
:1005E0004CEA010C49084FEA300092185B4150EA8E
:1005F0000107EDD152EA030012D082EA040083EA37
:100600000501084305D0101BAB4106D2012200238F
:1006100006E000224FF0004302E06FF001025310A9
:100620001AEB06004CEB085110EB0A0041EB0B01F2
:10063000BDE8F04D00F054B8C1F30A52C1F3130104
:1006400040F2FF3341F480119A4202DA0020014661
:10065000704740F233439A42A2F2334202DC5242E4
:10066000FFF752BEFFF741BE30B5041E71F1000422
:1006700004DB4FF00044404264EB0101141E73F1AF
:10068000000405DB1C464FF00043524263EB0403B9
:10069000994208BF904230BD064C074D06E0E06825
:1006A00040F0010394E8070098471034AC42F6D3B9
:1006B000FFF796FD009A0008209A0008202A06DB22
:1006C000CB17203A41FA02F043EAE07306E041FA20
:1006D00002F3D040C2F1200291400843194670470E
:1006E00010B5141E73F1000408DA401C41F100013A
:1006F00092185B411A4301D120F0010010BD2DE991
:10070000F04D92469B4611B1B1FA81F202E0B0FA87
:1007100080F220329046FFF7E8FD04460F4640EA9B
:100720000A0041EA0B0153465A46084313D01146CA
:1007300053EA010019D0C8F140025046FFF7E4FD2A
:1007400005460E46504659464246FFF7CEFD084341
:1007500005D0012004E020463946BDE8F08D002098
:10076000054346EAE0762C4337430A986305E40ADA
:10077000A0EB08000022FD0A44EA47540A3002D5E3
:1007800000200146E9E7010510196941DDE9084546
:1007900000196941BDE8F04DA2E770B50546AC6AA5
:1007A000E06D00F0500098BBE06D40F40070E06533
:1007B0002068006800F00800A8B1206805F0A8FED5
:1007C00010B32068C06800F40050E8B9E06D20F470
:1007D0008070E065E06D00F48050A8B9E06D40F0F5
:1007E0000100E06510E02068C06800F0020058B920
:1007F000E06D20F48070E065E06D00F4805018B981
:10080000E06D40F00100E065204600F0DBFF0CE009
:10081000FFE7E06D00F0100018B1204600F0D4FFB3
:1008200003E0606D416B2846884770BD70B5054692
:10083000AC6AE06D40F04000E065206E40F00400DE
:100840002066204600F0C0FF70BD70B50446A56A62
:10085000284600F0B8FF70BD70B50446206805F06A
:1008600039FE0646206805F03AFE98B396BB20682C
:10087000806800F00D0001280AD1206881681A4ABA
:100880001140891C816000BF03202168086009E0D5
:10089000E06D40F01000E065206E40F00100206641
:1008A000012070BD01F05CFE054614E001F058FE29
:1008B000401B02280FD92068806800F0010050B169
:1008C000E06D40F01000E065206E40F00100206611
:1008D0000120E6E705E02068806800F001000028BC
:1008E000E4D10020DDE70000C0FFFF7F38B50446FB
:1008F00000200090206805F0F2FD002858D1206803
:1009000080682C49084048B1E06D40F01000E06577
:10091000206E40F001002066012038BD206805F0FF
:10092000B9FD2168B1F1A04F03D0234A216891425B
:1009300001D1224900E02249084605F0B3FD00F448
:10094000000080B11F4800681F49B0FBF1F0401C57
:1009500000EB40008000009002E00098401E0090F4
:1009600000980028F9D101F0FBFD05461AE0206847
:1009700005F0B5FD10B9206805F08CFD01F0F0FD23
:10098000401B02280ED92068006800F0010048B919
:10099000E06D40F01000E065206E40F00100206640
:1009A0000120BAE72068006800F001000028DED0CE
:1009B0000020B2E73F00008000010050000300501B
:1009C000000700508C000020400D030090B006F09E
:1009D00011FE00BF0FA807F093F918B115A008F099
:1009E000EDFAF7E7BDF93C0006F0B6FF00B1F1E71C
:1009F00001A806F04FFE18B115A008F0DFFAE9E7EC
:100A0000BDF80400ADF820000298099003980A9000
:100A100004980B9005980C9006980D9007980E90EE
:100A200008A807F00BF918B10EA008F0C7FAD1E733
:100A3000D0E70000E7AD89E5BE85E4B88AE4BD8D66
:100A4000E69CBAE695B0E68DAE2E2E2E0A0000008A
:100A5000E58F8DE9A688E8AFBBE58F96E5A4B1E800
:100A6000B4A50A00E7BB84E5B8A7E5A4B1E8B4A53E
:100A7000EFBC815C6E0000002DE9F04104460D469C
:100A800004B115B90020BDE8F08100BFEFF310807C
:100A9000074672B62A462146034801F001FA064687
:100AA00007B962B6B0B2EEE71803002010B50446ED
:100AB000204601F055FC10BD00BFFEE770B50346AF
:100AC0000C4600210BE04800401C34F810004E009A
:100AD00034F8166040EA06401E683060491CB1EBED
:100AE000520FF0D302F0010020B11D68480034F825
:100AF000100028801868006870BDF0B504460B46E9
:100B0000002113E013F8210007068800401C185C40
:100B100047EA00478800801C185C47EA00208F00E5
:100B2000FF1CDF5D384327683860491CB1EB920F2A
:100B3000E8D302F0030030B302F00300012803D130
:100B400013F821002768387002F00300022808D14A
:100B50008800401C185C13F8217040EA07252668BD
:100B6000358002F0030003280DD18800401C185C7A
:100B700013F8217040EA0725266835808800801C1C
:100B8000185C2768387020680068F0BD10B502480E
:100B900001F09DFA10BD0000F801002010B50248D8
:100BA00001F095FA10BD00005802002010B502486F
:100BB00001F08DFA10BD0000200B002010B5024896
:100BC00001F085FA10BD0000800B002010B502482E
:100BD00001F07DFA10BD0000B802002010B50248F7
:100BE00001F075FA10BD0000400C002010B502485D
:100BF00001F06DFA10BD0000E00B002010B50248B6
:100C000001F065FA10BD0000A00C002010B50248EC
:100C100001F05DFA10BD0000600A002010B5024826
:100C200001F055FA10BD0000C00A002030B50E4D8D
:100C30000468AC4201D20D4901E00C4920310B4659
:100C40000478083C1425B4FBF5F2446CA40803EBCB
:100C500084048464054C8034C46402F01F050124BC
:100C6000AC40046530BD00000804024000080240AA
:100C700001794A1E064B03EB82024265044A403268
:100C800082654A1E02F01F0301229A40C265704726
:100C90000009024030B5D0E913546C60446D14B1C2
:100CA000D0E916546C6090F8444004F01F0501240C
:100CB000AC40056C6C60046863608468102C04D1DF
:100CC0000468A2600468E16003E00468A16004684D
:100CD000E26030BD70470000014609B9012070474D
:100CE000044802680A804FF6FF7000EA124048800C
:100CF0000020F4E70C00002004490988044A128807
:100D000041EA0240034908607047000004000020E7
:100D1000060000200C00002070B504460D460DB101
:100D2000012000E000200646032C04D0042C08D04B
:100D3000052C14D10CE0324610210A4801F00AFCBF
:100D40000EE032464FF40071064801F003FC07E064
:100D500032464FF40051044801F0FCFB00E000BFB4
:100D600000BF70BD000400480008004810B50446EC
:100D700001212046FFF7D0FF032C04D0042C0DD016
:100D8000052C1FD115E01148006840F040000F49C4
:100D9000086002200D492831086014E00C48006802
:100DA00040F040000A4908600220094928310860E3
:100DB00009E00848006840F0400006490860022049
:100DC000886200E000BF00BF10BD00000048004086
:100DD000004C00400050004010B504460CB9012002
:100DE00010BD2346024A0349034800F0B1F8F7E773
:100DF0002E000020E00400203400002010B504463E
:100E00000CB9012010BD2346024A0349034800F0F3
:100E10009FF8F7E730000020F8040020440000208D
:100E200010B504462CB900224021054801F092FB80
:100E300004E001224021024801F08CFB10BD0000BB
:100E40000004004810B504462CB1012220210648B8
:100E500001F080FB07E000222021034801F07AFB2B
:100E600000200249087010BD000400481A0000204C
:100E7000014642F21070814201D9012070470348B7
:100E800001800120024A10700020F7E718000020BE
:100E90001A000020FEB507460C46154607B10CB9EE
:100EA0000120FEBD0E4808F014F808B10120F8E753
:100EB00069460B4808F01BF808B10120F1E7BDF8BE
:100EC0000060A64200DD264632460DF1020138469A
:100ED000FFF7D1F915B1BDF8000028800020E0E748
:100EE0001A07002070B504460D4604B10DB9012063
:100EF00070BD2A462146044804F0B0FD08B1012027
:100F0000F6E70020F4E700003809002010B5044699
:100F10000CB9012010BD2346024A0349034800F0E2
:100F200017F8F7E72F000020100500203C000020F4
:100F30000168491C016000BF00BF704700BF00BFCF
:100F400003685B1C036000BF00BF0A7070470000AD
:100F50002DE9F04104460E4617461D464FF00008A5
:100F600021E03978022900D3002154F8212002F031
:100F7000010000B115E001EB410006EB8000D0F864
:100F800000C0C5F800C0D0F804C0C5F804C080682F
:100F9000A86054F821309A4202D10020BDE8F081C7
:100FA00000BF08F10108B8F1080FDAD304A008F077
:100FB00005F8002028606860A8600320EEE70000C4
:100FC000E5BA95E5B182E9878DE8AF95E8B685E6A3
:100FD00097B60A0072B602E001A007F0EFFFFBE748
:100FE0006572720A00000000F8B504460D46002044
:100FF000009000BF94F85800012801D10220F8BDEC
:10100000012084F8580000BF2046FFF725FC064663
:101010008EBBE06D20F4885040F00200E06520684F
:1010200081681B4A114005F0804242F000421143A2
:10103000816000BF13E00098401C009015490098A3
:1010400088420CD3E06D20F0020040F01000E06513
:1010500000BF002084F8580000BF0120CFE72068BF
:101060008168C90F0029E6D1E06D20F0020040F050
:101070000100E06504E0FFE7E06D40F01000E0658E
:1010800000BF002084F8580000BF3046B7E70000DA
:10109000C0FFFF3F02DE04002DE9F0439BB0044691
:1010A0000E464FF00008306800B100BF00BF94F852
:1010B0005800012803D102201BB0BDE8F0830120B5
:1010C00084F8580000BF0020179018902068B0F1F5
:1010D000A04F02D15848009008E058492068884243
:1010E00002D15748009001E000200090009850B9CC
:1010F000E06D40F02000E06500BF002084F858005B
:1011000000BF0120D8E7009805F0FDF907462068E8
:1011100005F0F9F900287DD1002F7FD12068B0F1CA
:10112000A04F03D044492068884201D1454800E0DF
:10113000454805463068D8B394F83800716841EAEC
:101140004030A96821F460410843A8602068B0F1EC
:10115000A04F03D038492068884201D1394800E0C7
:101160003948384988420AD14FF0A04005F0BCF90F
:101170008146314805F0B8F949EA00000DE02F48F2
:1011800005F0B2F981462E4805F0AEF949EA0009AA
:101190002E4805F0A9F949EA0000E0BBB1683068C3
:1011A0000843A96840F61F7291430843A8603BE0DA
:1011B000FFE7A86820F46040A8602068B0F1A04F65
:1011C00003D01D492068884201D11E4800E01E4816
:1011D0001C4988420AD14FF0A04005F085F98146AC
:1011E000154805F081F949EA00000DE0134805F0C3
:1011F0007BF98146124805F077F949EA000913485E
:1012000005F072F949EA000028B9A86840F61F7194
:10121000884301E002E007E0A86005E0E06D40F0EF
:101220002000E0654FF0010800BF002084F858005E
:1012300000BF404640E7000000010050000400509D
:101240000005005000030050000700500006005049
:101250002DE9F84F05460C464FF0000A002000909B
:10126000FE49E068884200D000E000BF00BF95F86A
:101270005800012802D10220BDE8F88F012085F82E
:10128000580000BF286805F039F900287DD1296889
:10129000D4E9002001F1300CC0F3012B0CEB8B03DF
:1012A000D3F800C000F01F0E4FF01F0B0BFA0EFB1F
:1012B0002CEA0B0C00F01F0BC2F3846E0EFA0BFE2F
:1012C0004CEA0E0CC3F800C000BF286805F016F900
:1012D0008146286805F0F9F88046B9F1000F64D11D
:1012E000B8F1000FFBD1A068B0F1004F0AD121681E
:1012F0000022286805F01EF94FF00041286805F02B
:101300003EF908E0A2682168286805F013F9002179
:10131000286805F034F960692968C968C1F3C1011A
:10132000490000FA01F7206904283FD028682268A4
:10133000216900F1600C0CEB8103D3F800C0DFF8E9
:1013400020B30CEA0B0C02F0F84B4BF0004B4BEACD
:10135000070B4CEA0B0CC3F800C000BF2868A26959
:10136000216900F1600C0CEB8103D3F800C02CF074
:10137000807C4CEA020CC3F800C000BF2868227FC2
:101380002169012A02D1520601E0F6E1002213464A
:1013900000F1600C0CEB8102D2F800C02CF0007C54
:1013A0004CEA030CC2F800C000BFA7E00021286887
:1013B00005F082F8C0F3120030B90021286805F06A
:1013C0007BF8C0F3846007E00021286805F074F81A
:1013D00090FAA0F0B0FA80F02168C1F3120119B9B7
:1013E0002168C1F3846104E0216891FAA1F1B1FAA6
:1013F00081F1884204D100221146286805F0B4F832
:101400000121286805F058F8C0F3120030B9012115
:10141000286805F051F8C0F3846007E001212868CE
:1014200005F04AF890FAA0F0B0FA80F02168C1F314
:10143000120119B92168C1F3846104E0216891FAAD
:10144000A1F1B1FA81F1884204D10022012128687A
:1014500005F08AF80221286805F02EF8C0F3120082
:1014600030B90221286805F027F8C0F3846007E04E
:101470000221286805F020F890FAA0F0B0FA80F078
:101480002168C1F3120119B92168C1F3846104E034
:10149000216891FAA1F1B1FA81F1884204D10022C8
:1014A0000221286805F060F80321286805F004F897
:1014B000C0F3120030B90321286804F0FDFFC0F327
:1014C000846007E00321286804F0F6FF90FAA0F09A
:1014D000B0FA80F02168C1F3120119B92168C1F393
:1014E000846104E0216891FAA1F1B1FA81F18842A6
:1014F00004D100220321286805F036F8286804F09A
:10150000EEFF002870D12868E2682168D0F8B0C0EA
:10151000C1F312032CEA030C02F0180B514B23FA0F
:101520000BF30B404CEA030CC0F8B0C000BF4B49B2
:10153000E068884258D12368C3F312031BB92368BB
:10154000C3F3846304E0236893FAA3F3B3FA83F349
:101550005B1C03F01F03092B3ED82368C3F312035F
:101560001BB92368C3F3846304E0236893FAA3F3ED
:10157000B3FA83F35B1C03F01F034FF0010C0CFA6A
:1015800003FC2368C3F312031BB92368C3F384630A
:1015900004E0236893FAA3F3B3FA83F35B1C03F02C
:1015A0001F034CEA836C2368C3F312031BB923683F
:1015B000C3F3846304E0236893FAA3F3B3FA83F3D9
:1015C0005B1C03F01F0303EB43034FF0000B4BEADC
:1015D00003534CEA03033FE02368C3F3120323B928
:1015E0002368C3F3846305E042E0236893FAA3F31E
:1015F000B3FA83F35B1C03F01F034FF0010C0CFAEA
:1016000003FC2368C3F312031BB92368C3F3846389
:1016100004E0236893FAA3F3B3FA83F35B1C03F0AB
:101620001F034CEA836C2368C3F312031BB92368BE
:10163000C3F3846304E0236893FAA3F3B3FA83F358
:101640005B1C03F01F030A3B03EB43034FF0007BDB
:101650004BEA03534CEA0303194605E000007F40C0
:1016600000F0FF03FFFF0700A268286804F062FF94
:10167000484920680840002842D02968B1F1A04FAD
:1016800003D0454A2968914201D1444900E04449C8
:10169000084604F007FF064642492068884203D006
:1016A0004149206888422CD106F4000048BB2868D4
:1016B000B0F1A04F03D03D492868884263D12A6821
:1016C000B2F1A04F03D0344B2A689A4201D1334A79
:1016D00000E0334A104646F4000104F03FFF34486E
:1016E00000683449B0FBF1F0401C00EB4000800082
:1016F000009002E00098401E009000980028F9D168
:1017000041E02D49206888421BD106F08070C0B9A5
:1017100021492868884203D128492868884232D064
:101720002A68B2F1A04F03D01B4B2A689A4201D11C
:101730001A4A00E01A4A104646F0807104F00EFF83
:1017400021E01F49206888421DD106F48000D0B9ED
:1017500011492868884216D02A68B2F1A04F03D0F8
:101760000B462A689A4201D10C4A00E00C4A104606
:1017700046F4800104F0F2FE05E0E86D40F0200040
:10178000E8654FF0010A00BF002085F8580000BF4F
:10179000504671E500000880000100500003005031
:1017A00000070050000021C31000C0900006005048
:1017B0008C000020400D0300000052C700050050BF
:1017C000000084CB70477047704700002DE9F84354
:1017D00004464FF000080020009014B90120BDE835
:1017E000F883606920B194F82400012800D100BF7B
:1017F000E06D30B9204600F045F90020206684F8FD
:10180000580020688168C1F3407131B12068816857
:10181000914A1140816000BF00BF206804F069FE5A
:10182000B0B9206881688D4A114041F080518160D3
:1018300000BF8B4800688B49B0FBF1F0401C4000B2
:10184000009002E00098401E009000980028F9D116
:10185000206804F04EFE48B9E06D40F01000E065ED
:10186000206E40F0010020664FF00108206804F06F
:1018700045FE0646E06D00F0100000287ED1002EE7
:10188000FCD1E06D20F4807040F00200E06520683B
:1018900004F025FE88BB2068B0F1A04F03D0724948
:1018A0002068884201D1714800E071486F49884240
:1018B0000AD14FF0A04004F012FE81466A4804F0BD
:1018C0000EFE49EA00000DE06A4804F008FE814679
:1018D000694804F004FE49EA0009684804F0FFFD85
:1018E00049EA000048B92268B2F1A04F03D05E4B2C
:1018F00022689A4202D15D4A01E009E05C4A104642
:101900006168826822F47C120A43826000BF00BFD3
:10191000607FE16B41EA4030E1680843A168084319
:1019200094F8241040EA014594F82400012803D1DA
:10193000208D401E45EA4045E06A28B1A08D00F4A4
:101940007870216B084305432068C0684C49084003
:1019500028432168C8602068006920F04060616BFE
:10196000084321680861206804F0AFFD0746EEBB1C
:10197000E7BB207F002141EA803100E064E094F879
:10198000380041EA40052068C06844F202018843FB
:1019900028432168C860206980B12068006940F44C
:1019A0008030216808612068D0F8C0006FF30D0016
:1019B000216908432168C1F8C0000DE02068006972
:1019C00020F48030216808612068D0F8C0006FF3EF
:1019D0000D002168C1F8C00094F84000012813D11F
:1019E000606C40F00101A06C084300E012E0E16C83
:1019F0000843216D08432168096940F2FC72914354
:101A000008432168086105E02068006920F00100B2
:101A1000216808616069012809D12068006B20F005
:101A20000F00216A491E08432168086305E0206809
:101A3000006B20F00F0021680863E06D20F00200C9
:101A400040F00100E06505E0E06D40F01000E06569
:101A50004FF001084046C2E6C0FFFF5FC0FFFF7FB6
:101A60008C000020400D03000001005000030050D6
:101A70000007005000040050000500500006005010
:101A80000740F0FF10B59CB00446142117A8FEF7DC
:101A90000BFC542102A8FEF707FC2068B0F1A04F10
:101AA00058D14FF4004002908003139002A801F037
:101AB000E7FC08B1FFF78EFA7E480068401C7D49BC
:101AC00008600846006801280DD100BF7A48C06C44
:101AD00040F400507849C8640846C06C00F40050D7
:101AE000019000BF00BF00BF7348C06C40F0010010
:101AF0007149C8640846C06C00F00100019000BF45
:101B000000BF01201790032018900020199017A9FA
:101B10004FF0904000F038FC6848694908600520A3
:101B20004860002166488160C160802101614900F0
:101B30004161890081612021C1614FF440510162FE
:101B400000F044FB08B1FFF745FA00BF5C48606550
:101B50008462ADE05B492068884258D1C0010290A0
:101B60008003139002A801F08BFC08B1FFF732FA52
:101B700050480068401C4F4908600846006801282A
:101B80000DD100BF4C48C06C40F400504A49C864B5
:101B90000846C06C00F40050019000BF00BF00BFB9
:101BA0004548C06C40F001004349C8640846C06C19
:101BB00000F00100019000BF00BF02201790032039
:101BC00018900020199017A94FF0904000F0DCFB0E
:101BD0003A4814303C4908602420486000213A48C3
:101BE0008160C1608021016149004161890081619A
:101BF0002021C1614FF44051016200F0E7FA08B1C1
:101C0000FFF7E8F900BF30486065846250E02F4973
:101C1000206888424CD180010290C003149002A831
:101C200001F02EFC08B1FFF7D5F900BF2248C06CC7
:101C300040F480402049C8640846C06C00F48040ED
:101C4000019000BF00BF00BF0846C06C40F002001A
:101C5000C8640846C06C00F00200019000BF00BFDD
:101C600002201790032018900020199017A91848F7
:101C700000F08AFB11485030164908602520486062
:101C8000002114488160C1608021016149004161E7
:101C9000890081612021C1610021016200F096FA72
:101CA00008B1FFF797F900BF0A486065846200BF7A
:101CB0001CB010BD140000200010024008000240BB
:101CC000F8010020000100505802002000040050DC
:101CD00000040048B80200202DE9F04104460F46F8
:101CE00090462168B1F1A04F03D0484A2168914243
:101CF00001D1474900E04749084604F0D8FB0646B1
:101D0000206804F0FBFB00287CD100BF94F8580049
:101D1000012802D10220BDE8F081012084F858009A
:101D200000BF3D492068884201D1012000E0002029
:101D300020B91EB1052E01D0092E5DD12046FEF737
:101D4000D5FD0546002D52D1E06D40F60161884376
:101D500040F48070E0652D492068884202D14FF040
:101D6000A04006E02D492068884201D12C4800E0BF
:101D700020682168884200D01EB9E06D20F48010F0
:101D8000E065E06D00F4805020B1206E20F0060088
:101D9000206601E0002020662248616DC86222486A
:101DA000616D08632148616D48631C2021680860EB
:101DB00000BF002084F8580000BF2068406840F051
:101DC0001000216848602068C06840F00100216868
:101DD000C860226802F1400143463A46606D00F057
:101DE0005DFA0546206804F09DFB0CE00AE000BFA8
:101DF000002084F8580006E0012500BF002084F888
:101E0000580000E00225284685E700000001005048
:101E1000000300500007005000060050000500506D
:101E2000000400509B0700084B0800082D0800081C
:101E300070B503460C4600201F2104F001050DB9C2
:101E4000012022E000BF0D1EA1F1010106D001F02A
:101E50001F060125B5402540002DF4D08AB1082A7F
:101E60000BD0102A05D0182A0CD1072900D3012045
:101E70000AE0082900D3012006E0102900D3012040
:101E800002E001E0012000BF00BF40B91D686C61A5
:101E90001D68AD6825F0180515431E68B56070BD56
:101EA0002DE9F04104460E4617464FF00008022087
:101EB00060772068806840F0010021688860206AAF
:101EC000012810D0022815D003281AD1002504E0DB
:101ED00056F82500216808606D1CBD42F8D32068C3
:101EE000D0F800800EE03A4631462046FEF705FE67
:101EF000804607E03A4631462046FEF7DFFD804641
:101F000000E000BF00BF012060774046BDE8F081DF
:101F100010B504460CB9012010BD607F20B9002027
:101F20002077204600F036F802206077207948B903
:101F30001748216848612068806820F018002168EF
:101F4000886007E02046D4E90212FFF771FF08B16C
:101F50000120E1E7607920B94FF0FF302168086186
:101F600002E02168206908612068806820F0600034
:101F700061690843216888602068806820F08000DB
:101F8000A169084321688860012060770020C3E7C9
:101F9000B71DC10408B5094A016891420DD100BFBF
:101FA0000749896C41F48051054A91641146896C56
:101FB00001F48051009100BF00BF08BD0030024015
:101FC000001002400146002091F82520022A03D08B
:101FD0000422CA63012027E00A68126822F00E0278
:101FE0000B681A608A6C126822F480728B6C1A601B
:101FF0000A68126822F001020B681A6091F8442006
:1020000002F01F0301229A400B6C5A60D1E913328F
:102010005A604A6D42B14A6D126822F480724B6D6B
:102020001A60D1E916325A60012281F8252000BFDA
:10203000002281F8242000BF704770B504460025B7
:1020400094F8250002280BD00420E063012084F8D6
:10205000250000BF002084F8240000BF012534E0E3
:102060002068006820F00E00216808602068006881
:1020700020F0010021680860A06C006820F48070E6
:10208000A16C086094F8440000F01F010120884012
:10209000216C4860D4E913104860606D40B1606DF8
:1020A000006820F48070616D0860D4E91610486003
:1020B000012084F8250000BF002084F8240000BF20
:1020C000A06B10B12046A16B8847284670BD70B543
:1020D0000446206C05682068066894F8440000F007
:1020E0001F01042088402840E0B106F00400C8B178
:1020F0002068006800F0200028B92068006820F0FF
:1021000004002168086094F8440000F01F010420D6
:102110008840216C4860206B002856D02046216BF7
:10212000884752E094F8440000F01F0102208840E4
:10213000284018B306F0020000B32068006800F0E1
:10214000200040B92068006820F00A00216808607B
:10215000012084F8250094F8440000F01F010220BB
:102160008840216C486000BF002084F8240000BF34
:10217000E06A50B32046E16A884726E094F84400BC
:1021800000F01F01082088402840F0B106F0080048
:10219000D8B12068006820F00E002168086094F82B
:1021A000440000F01F0101208840216C486001209C
:1021B000E06384F8250000BF002084F8240000BFFD
:1021C000606B10B12046616B884770BD70B50446E6
:1021D0000CB9012070BD2F49206888420BD22E49CE
:1021E0002068401A1421B0FBF1F0800060642A4896
:1021F000083820640AE027492068401A1421B0FBFF
:10220000F1F080006064234808382064022084F8DC
:1022100025002068056847F6F0708543D4E902017F
:1022200008432169084361690843A1690843E169DA
:102230000843216A08430543206805602046FEF7ED
:10224000F5FCA068B0F5804F01D1002060602079D6
:10225000A16C0860D4E913104860606860B16068E0
:10226000042809D82046FEF703FD0020616D0860B0
:10227000D4E91610486003E000206065A065E065C1
:102280000020E063012084F82500002084F8240069
:1022900000BF9FE708040240080002402DE9F0411A
:1022A00004460D4616461F464FF0000800BF94F83E
:1022B0002400012802D10220BDE8F081012084F829
:1022C000240000BF94F8250001283FD1022084F8A3
:1022D00025000020E0632068006820F001002168EC
:1022E00008603B46324629462046FEF7D3FC206B69
:1022F00030B12068006840F00E00216808600BE0F3
:102300002068006820F004002168086020680068E8
:1023100040F00A0021680860A06C006800F480307A
:1023200028B1A06C006840F48070A16C0860606DFA
:1023300028B1606D006840F48070616D08602068AD
:10234000006840F001002168086006E000BF00203E
:1023500084F8240000BF4FF002084046ACE70000BC
:1023600070B5044600F0FCF806462546681C10B11E
:1023700004480068054400BF00F0F2F8801BA84242
:10238000FAD370BD6C00002078B502460B460021E0
:10239000CAE001268E401D6805EA0604002C73D0B1
:1023A0001D7905F00305012D04D01D7905F0030505
:1023B000022D13D190684E000325B540A8434E006E
:1023C000DD68B54028439060506801258D40A843E2
:1023D0001D79C5F300158D40284350601D7905F027
:1023E0000305032D09D0D0684E000325B540A8434E
:1023F0004E009D68B5402843D0601D7905F0030567
:10240000022D13D1CE0802F1200555F826004D0704
:10241000EE0E0F25B540A8434E07F60E1D69B540D8
:102420002843CE0802F1200545F8260010684E002A
:102430000325B540A8431D7905F003054E00B540BE
:10244000284310605D6805F44035002D6BD000BF57
:10245000384D2D6E45F00105364E356635462D6EEC
:1024600005F00105009500BF00BF4FEAB6358E08A4
:1024700055F826008D072E0F0F25B540A843B2F161
:10248000904F02D100251AE04DE02B4DAA4201D118
:10249000012514E0294DAA4201D102250FE0284D63
:1024A000AA4201D103250AE0264DAA4201D1042502
:1024B00005E0254DAA4201D1052500E006258E073D
:1024C000360FB5402843214D8E0845F82600204D93
:1024D0002868A0435D6805F4801505B120431C4DB4
:1024E00028602D1D2868A0435D6805F4001505B11E
:1024F0002043174D2D1D2860154D2D1F2868A04322
:102500005D6805F4003505B12043114D2D1F28608D
:102510002D1F2868A0435D6805F4803505B1204370
:102520000B4D083D2860491C1D68CD40002D7FF4EF
:1025300030AF78BD00100240000400480008004899
:10254000000C00480010004800140048080001403A
:10255000080401400AB1816100E081627047000017
:1025600001480068704700006400002010B5034671
:1025700093F8DD00022800D110BD00BF93F8DC0005
:10258000012801D10220F7E7012083F8DC0000BF19
:10259000022083F8DD00202945D00CDC042927D057
:1025A00004DC012912D002296AD118E0082928D0B8
:1025B000102965D12EE040293ED0802945D0B1F5C3
:1025C000807F4BD0B1F5007F5AD150E01868D0F829
:1025D000000462F304001C68C4F8000459E01868A1
:1025E000D0F8000462F38A101C68C4F8000450E0BC
:1025F0001868D0F8000462F310301C68C4F80004B6
:1026000047E01868D0F8000462F396401C68C4F8EC
:1026100000043EE01868D0F8000462F31C601C68F7
:10262000C4F8000435E01868D0F8040462F304002C
:102630001C68C4F804042CE01868D0F8040462F3A1
:102640008A101C68C4F8040423E01868D0F8040455
:1026500062F310301C68C4F804041AE01868D0F85B
:10266000040462F396401C68C4F8040411E018687E
:10267000D0F8040462F31C601C68C4F8040408E089
:10268000072083F8DD0000BF002083F8DC0000BFD6
:1026900000BF00BF93F8DD00072801D101206BE7E0
:1026A000012083F8DD0000BF002083F8DC0000BFBC
:1026B00000BF61E7F0B503460D4693F8DD00022840
:1026C00000D1F0BD00BF93F8DC00012801D1022049
:1026D000F7E7012083F8DC0000BF022083F8DD006B
:1026E0001868D0F880431868D0F8FC13202D63D008
:1026F0000CDC042D2DD004DC012D12D0022D77D15D
:102700001AE0082D32D0102DF9D13CE0402D73D0C5
:10271000802D6FD0B5F5807F6DD0B5F5007FEED1FF
:10272000BFE024F4E024106800F4E020044356687D
:102730001868C0F8BC63DAE024F460144FF4601643
:10274000106806EAC000044356681868C0F8C06301
:10275000CDE024F0E0744FF0E076106806EA8010D7
:10276000044356681868C0F8C463C0E024F060648D
:102770004FF06066106806EA402004435668186807
:10278000C0F8C863B3E021F007011068C0F302404D
:1027900001431868D0F8F80320F01F061868C0F845
:1027A000F8631868D0F8F803167906F01F0630436E
:1027B0001E68C6F8F8039AE021F0700170261068D0
:1027C00006EA103001431868D0F8F80320F4787650
:1027D0001868C0F8F8631868D0F8F8034FF47877F1
:1027E000566807EA461630431E68C6F8F8037EE0CE
:1027F00074E001E01DE039E021F4E0614FF4E066AF
:10280000106806EA102001431868D0F8F80320F495
:10281000F8461868C0F8F8631868D0F8F8034FF461
:10282000F847566807EA862630431E68C6F8F8035C
:102830005DE021F4E0414FF4E046106806EA101034
:1028400001431868D0F8F80320F4F8161868C0F8A7
:10285000F8631868D0F8F80396884FF4F81707EA79
:10286000064630431E68C6F8F80340E021F4E02134
:10287000106800F4E02001431868D0F8F80320F055
:1028800078761868C0F8F8631868D0F8F803968866
:102890004FF0787707EA465630431E68C6F8F803CB
:1028A00025E021F4E0014FF4E006106806EA00108C
:1028B00001431868D0F8F80320F0F8461868C0F80B
:1028C000F8631868D0F8F80316794FF0F84707EA6C
:1028D000866630431E68C6F8F80308E0072083F8D0
:1028E000DD0000BF002083F8DC0000BF00BF00BF98
:1028F00093F8DD00072801D10120E2E6102D03D274
:102900001868C0F8804302E01868C0F8FC13012082
:1029100083F8DD0000BF002083F8DC0000BF00BFAB
:10292000CFE670477047704770B505460C4614B93E
:10293000FEF7E2F970BD012C18D10D480078A8B15E
:1029400000200B4908700B49098800EE101AB8EEF8
:10295000400ADFED090A20EE200ABCEEC00A10EEA4
:10296000101A88B204F0C0FB00B1E3E700BFE1E752
:102970001A000020180000209A99D93F704770472C
:10298000704770477047024600BF92F8DC0001288C
:1029900001D102207047012082F8DC0000BF022034
:1029A00082F8DD00481C80B91068D0F8CC0320F014
:1029B00002031068C0F8CC331068D0F8CC0340F0A4
:1029C00001031068C0F8CC3318E01068D0F8CC03CD
:1029D00040F002031068C0F8CC331068D0F8CC0384
:1029E00020F00C0008431368C3F8CC031068D0F83B
:1029F000CC0340F001031068C0F8CC33012082F80A
:102A0000DD000020C6E77047704770477047704789
:102A10007047704770B505460C46FF2C03D1284619
:102A200003F0F4F809E0062C03D1284603F0B5F9C9
:102A300003E02146284603F0C0FA70BDF8B504460D
:102A40000CB90120F8BD0220E03404F8030C00208A
:102A500020606060A060E06020616061A061E03C97
:102A6000207A00F0010008B33549206888420DD172
:102A700000BF3448006E40F0806032490866084666
:102A8000006E00F08060009000BF00BF2068066804
:102A900026F44046208A00F44040064326F440567F
:102AA000A08A00F44050064320680660204600F0EB
:102AB0004BF8207A00F0020048B12068066826F43E
:102AC0004076A08900F4407006432068066001202B
:102AD00084F8DD0000BF002084F8DC0000BF002582
:102AE00029E00021C5EBC50204F1180040F82210CE
:102AF000C5EBC50200EB82004160C5EBC50204F1E5
:102B0000180000EB82008160C5EBC50204F11800DB
:102B100000EB8200C160C5EBC50204F1180000EBB8
:102B200082000161C5EBC50204F1180000EB8200D0
:102B30008161681CC5B2062DD3D9002082E7000050
:102B4000006801400010024038B50446154920686D
:102B5000884225D100BF1448006E40F080601249C1
:102B600008660846006E00F08060009000BF00BF5D
:102B700000221146432000F09BFB432000F084FB21
:102B800000221146442000F093FB442000F07CFB1F
:102B900000221146452000F08BFB452000F074FB1D
:102BA00038BD0000006801400010024010B586B03A
:102BB0000446142101A8FDF777FB114920688842DB
:102BC0001CD100BF0F48C06C40F001000D49C86423
:102BD0000846C06C00F00100009000BF00BF8815DF
:102BE00001900220029001200390032004900D2008
:102BF000059001A94FF09040FFF7C6FB06B010BD4D
:102C000000680140001002407047704770477047ED
:102C100070B504460D46FFF7A3FC06460CE0681CA1
:102C200050B1FFF79DFC801BA84200D825B90720B2
:102C300084F8DD00032070BD2068D0F88803C0F35D
:102C400000400028EBD0012084F8DD0000BF002008
:102C500084F8DC0000BF00BFEDE7704770477047A5
:102C6000704770B504460D46164694F8DD000228FC
:102C700000D170BD022084F8DD00062D04D131465C
:102C8000204603F027F804E032462946204603F0A8
:102C90008BFA012084F8DD000020EAE730B5044615
:102CA00094F8DD00022800D130BD00BF94F8DC00AC
:102CB000012801D10220F7E7012084F8DC0000BFE1
:102CC000022084F8DD00062928D1012A06D0022A34
:102CD00008D0042A0AD0082A10D10BE01868256809
:102CE000E86114E018682568686210E018682568D3
:102CF000A8620CE018682568E86208E0072084F8FC
:102D0000DD0000BF002084F8DC0000BF00BF00BF72
:102D100094F8DD0007287DD10120C5E7012A06D0FF
:102D2000022A0BD0042A4CD0082A74D150E01D6826
:102D30002068803000EBC110C5619AE01D682068F2
:102D4000803000EBC1104562586868B3206880305D
:102D500000EBC110006820F440552068803000EB83
:102D6000C11005602068803000EBC11000685D680C
:102D700028432568803505EBC11528605868B0F5F3
:102D8000005F06D19D682068803000EBC110C561EE
:102D900016E05868B0F5405F12D19D682068803019
:102DA00000EBC11085620BE02068803000EBC110A1
:102DB000006820F440502568803505EBC115286077
:102DC00057E01D682068803000EBC110856250E03C
:102DD0001D682068803000EBC110C562586888B358
:102DE0002068803000EBC110006820F44045206866
:102DF000803000EBC11005602068803000EBC1100E
:102E000000685D6840EA85052068803000EBC110ED
:102E1000056001E034E023E05868B0F5005F06D1BA
:102E20009D682068803000EBC110C56117E05868CC
:102E3000B0F5405F13D19D682068803000EBC11071
:102E400085620CE0FFE72068803000EBC11000686D
:102E500020F440402568803505EBC115286008E066
:102E6000072084F8DD0000BF002084F8DC0000BFEC
:102E700000BF00BF94F8DD00072801D1012013E74F
:102E8000012084F8DD0000BF002084F8DC0000BFD2
:102E900000BF09E7024600BF92F8DC00012801D11B
:102EA00002207047012082F8DC0000BF022082F877
:102EB000DD0010680068084313681860012082F87C
:102EC000DD0000BF002082F8DC0000BF00BFE8E7A3
:102ED00030B502460B4600BF92F8DC00012801D154
:102EE000022030BD012082F8DC0000BF022082F801
:102EF000DD001068D0F89003546820431468C4F8CB
:102F0000900303F4803030B11068C468D2F8C80070
:102F100004431068C460002118E0154850F82100EF
:102F2000184088B11068803000EBC110C068C1EB58
:102F3000C10502F1180404EB8504A4682043146859
:102F4000803404EBC114E060481CC1B20629E4D30C
:102F500010680068184314682060012082F8DD00C2
:102F600000BF002082F8DC0000BF00BFB9E700000E
:102F7000700000202DE9F04104460D4616461F461C
:102F800094F8DD00022801D1BDE8F08100BF94F87B
:102F9000DC00012801D10220F6E7012084F8DC00E2
:102FA00000BF022084F8DD003B4632462946204619
:102FB00002F080FF012084F8DD0000BF002084F8CB
:102FC000DC0000BF00BFDFE7024600BF92F8DC0074
:102FD000012801D102207047012082F8DC0000BFE7
:102FE000022082F8DD001068D0F8940308431368CB
:102FF000C3F89403012082F8DD0000BF002082F8AE
:10300000DC0000BF00BFE6E770B504460D4616467B
:1030100094F8DD00022800D170BD00BF94F8DC00F8
:10302000012801D10220F7E7012084F8DC0000BF6D
:10303000022084F8DD00062D04D13146204602F03E
:103040005DFE04E032462946204603F0CDF8C5EB8C
:10305000C50204F1180000EB820031688160C5EB05
:10306000C50204F1180000EB82007168C160C5EB75
:10307000C50204F1180000EB8200B1680161C5EBE4
:10308000C50204F1180000EB8200F1684161C5EB54
:10309000C50204F1180000EB820031698161294604
:1030A000204602F069FD062D10D0F06A70B9206844
:1030B000803000EBC510006820F40070F16D40EA2C
:1030C00041212068803000EBC5100160012084F8A8
:1030D000DD0000BF002084F8DC0000BF00BF9BE7DC
:1030E00070B504460D46164694F8DD00022800D15E
:1030F00070BD00BF94F8DC00012801D10220F7E781
:10310000012084F8DC0000BF022084F8DD00324694
:103110002946204603F08EF92946204602F02CFD70
:10312000012084F8DD0000BF002084F8DC0000BF2F
:1031300000BFDDE770B504460CB9012070BD4CF648
:10314000CC402168086045F2555021680860D4E9F8
:10315000001048602168A0688860FFF701FA054602
:103160000BE0FFF7FDF9401B312806D92068C06845
:1031700000F0070008B10320E0E72068C06800F015
:1031800007000028EDD120680169E068814203D082
:103190002168E068086103E04AF6AA202168086017
:1031A0000020CBE701464AF6AA200A6810600020FA
:1031B0007047000003480068034909680844014952
:1031C00008607047640000206C00002010B50024E7
:1031D000032000F0ABF80F2000F008F808B101243C
:1031E00001E000F02FF8204610BD000070B5044645
:1031F000002511480068D8B10F4800684FF47A7173
:10320000B1FBF0F00D490968B1FBF0F6304600F073
:1032100079FF58B9102C07D200222146501E00F029
:1032200047F80748046004E0012502E0012500E0BA
:103230000125284670BD00006C0000208C00002095
:103240006800002008B500BF0E48006E40F0010085
:103250000C4908660846006E00F00100009000BFAF
:1032600000BF00BF0846806D40F08050886508466A
:10327000806D00F08050009000BF00BF00F0F6F8B5
:1032800008BD0000001002400146084600280DDB82
:1032900000BF00BF00F01F0301229A4043099B00BA
:1032A00003F1E023C3F8002100BF00BF00BF704757
:1032B0002DE9F05F80460D46164605F08FFE074665
:1032C00039462A46334601F00700C0F1070ABAF131
:1032D000040F02D94FF0040A01E0C0F1070AD146F9
:1032E00000F1040ABAF1070F02D24FF0000A01E020
:1032F000A0F1030AD4464FF0010A0AFA09FAAAF12A
:10330000010A0AEA020A0AFA0CFA4FF0010B0BFA58
:103310000CFBABF1010B0BEA030B4AEA0B04214651
:10332000404605F063FEBDE8F09F000000BF00F0DE
:103330000702064B19684FF6FF031940044B0B4375
:1033400043EA0221014B196000BF70470CED00E019
:103350000000FA0502468ABB4148006800F4C060DC
:10336000B0F5806F2BD13E488030006820F480702B
:103370003B4BC3F880001846006820F4C06040F45E
:10338000007018603748006832235843364BB0FB52
:10339000F3F0411C00E0491E3148406900F48060B0
:1033A000B0F5806F01D10029F5D12D48406900F4B6
:1033B0008060B0F5806F51D10320704708E0284845
:1033C0008030006820F48070254BC3F8800045E011
:1033D000B2F5007F3AD12248006800F4C060B0F531
:1033E000806F2AD11E488030006840F480701C4BEA
:1033F000C3F880001846006820F4C06040F40070F4
:1034000018601848006832235843174BB0FBF3F09C
:10341000411C00E0491E1248406900F48060B0F58C
:10342000806F01D10029F5D10D48406900F480601A
:10343000B0F5806F12D10320BFE7094880300068E3
:1034400040F48070064BC3F8800007E00448006831
:1034500020F4C06040F48060014B18600020ACE7AD
:10346000007000408C00002040420F00034880683C
:1034700040F48040014988607047000000700040BF
:103480002DE9F84304460027B846206800F40020E0
:10349000B0F5002F73D1B946FD48806D00F0805023
:1034A00078B900BFFA48806D40F08050F8498865CF
:1034B0000846806D00F08050009000BF00BF4FF0C4
:1034C0000109F448006840F48070F2490860FFF791
:1034D00047F8064606E0FFF743F8801B022801D9AB
:1034E000032705E0EB48006800F480700028F2D064
:1034F00000BF002F46D1E6489030006800F44075C8
:10350000CDB1206DA84216D0E1489030006820F47B
:103510004075DF48D0F8900040F48030DC49C1F8B5
:1035200090000846D0F8900020F48030C1F8900058
:103530000846C0F8905005F00100A0B1FFF710F860
:10354000064608E0FFF70CF8801B41F288318842FC
:1035500001D9032706E0CE489030006800F0020051
:103560000028EFD000BF5FB9C9489030006820F450
:103570004070216D0843C649C1F8900003E00CE09B
:10358000B84600E0B846B9F1010F05D1C048806DDA
:1035900020F08050BE49886500BF207800F001000F
:1035A00048B1BB488830006820F0030061680843D8
:1035B000B749C1F88800207800F00200022809D13C
:1035C000B3488830006820F00C00A1680843B04977
:1035D000C1F88800207800F00400042809D1AC4824
:1035E0008830006820F03000E1680843A849C1F83D
:1035F0008800207800F00800082809D1A448883005
:10360000006820F0C00021690843A149C1F8880082
:10361000207800F01000102809D19D4888300068FB
:1036200020F44070616908439949C1F88800207806
:1036300000F02000202809D195488830006820F447
:103640004060A16908439249C1F88800207800F0E1
:103650004000402809D18E488830006820F440504E
:10366000E16908438A49C1F88800207800F08000A9
:10367000802809D186488830006820F44040216ABB
:1036800008438349C1F88800208800F48070B0F5B1
:10369000807F09D17E488830006820F44030616A1C
:1036A00008437B49C1F88800206800F40030B0F579
:1036B000003F09D176489C30006820F00300A16AE1
:1036C00008437349C1F89C00208800F40070B0F5ED
:1036D000007F09D16E488830006820F44020E16AFC
:1036E00008436B49C1F88800208800F48060B0F579
:1036F000806F13D166488830006820F44010216B39
:103700000843634988310860206BB0F5801F05D1FC
:103710005F48C06840F480105D49C860208800F4AC
:103720000060B0F5006F13D159488830006820F46C
:103730004000616B0843564988310860606BB0F502
:10374000800F05D15248C06840F480105049C860CD
:10375000208800F48050B0F5805F13D14C48883049
:10376000006820F04070A16B084349498831086027
:10377000A06BB0F1807F05D14548C06840F480104F
:103780004349C860208800F40050B0F5005F13D1B1
:103790003F488830006820F04060E16B08433C49B6
:1037A00088310860E06BB0F1006F05D13848C0681F
:1037B00040F480103649C860208800F48040B0F59D
:1037C000804F13D132488830006820F04060216C6F
:1037D00008432F4988310860206CB0F1006F05D193
:1037E0002B48C06840F480102949C860208800F444
:1037F0000040B0F5004F13D125488830006820F014
:103800004050616C0843224988310860606CB0F117
:10381000805F05D11E48C06840F480301C49C860F4
:10382000206800F48030B0F5803F13D1184888300C
:10383000006820F04040A16C0843154988310860B9
:10384000A06CB0F1804F05D11148C06840F48030C1
:103850000F49C860206800F48020B0F5802F13D194
:103860000B489C30006820F44010E16C0843084984
:103870009C310860E06CB0F5001F05D10448C068B9
:1038800040F480100249C8604046BDE8F88300005B
:1038900000100240007000402DE9F04104460D4642
:1038A0004FF0000814B90120BDE8F0817D480068A0
:1038B00000F00F00A8420ED27A48006820F00F00F6
:1038C0002843784908600846006800F00F00A842C5
:1038D00001D00120E8E7207800F00100002864D042
:1038E0006068032823D17048006800F0007008B9B0
:1038F0000120D9E703F028FC06466C48864237D9F8
:103900006948806800F0F00030B1207800F00200D3
:1039100002282DD1A06858BB6348806820F0F000D1
:1039200040F08000604988604FF0800820E06068C7
:10393000022806D15C48006800F4003040B901203C
:10394000B2E75948006800F4806008B90120ABE78D
:1039500000F0DEF806465548864209D9524880688C
:1039600020F0F00040F080004F4988604FF0800860
:103970004D48806820F00300616808434A49886028
:10398000FEF7EEFD074608E0FEF7EAFDC01B41F238
:103990008831884201D9032086E74348806800F0D7
:1039A0000C006168B0EB810FEED1207800F00200CE
:1039B000022820D1207800F00400042805D13A48DC
:1039C000806840F4E06038498860207800F00800A2
:1039D000082807D13448806820F4605040F4E06043
:1039E000314988603048806820F0F000A1680843C1
:1039F0002D49886008E0B8F1800F05D12A48806819
:103A000020F0F000284988602648006800F00F0088
:103A1000A84219D92348006820F00F002843214903
:103A20000860FEF79DFD074608E0FEF799FDC01B04
:103A300041F28831884201D9032035E719480068EE
:103A400000F00F00A842F0D1207800F00400042814
:103A500007D11548806820F4E060E1680843124906
:103A60008860207800F00800082808D10E48806897
:103A700020F46050216940EAC1000B49886000F0E1
:103A800047F809498968C1F30311094A515C01F0FB
:103A90001F01C8400749086007480068FFF7A6FBF8
:103AA00002E70000002002400010024000B4C404FD
:103AB000E89900088C000020680000200148006898
:103AC000704700008C00002000B5FFF7F7FF0549A4
:103AD0008968C1F30221044A515C01F01F01C8400A
:103AE00000BD000000100240F899000800B5FFF783
:103AF000E5FF05498968C1F3C221044A515C01F020
:103B00001F01C84000BD000000100240F8990008E5
:103B100070B5224DAD6805F00C05042D01D120488B
:103B20003AE01E4DAD6805F00C05082D01D11D4889
:103B300032E01A4DAD6805F00C050C2D2BD1174D58
:103B4000ED6805F00304154DED68C5F303156A1C17
:103B5000022C0CD0032C09D1124DB5FBF2F50F4EFF
:103B6000F668C6F3062605FB06F10AE000BF0C4D19
:103B7000B5FBF2F5094EF668C6F3062605FB06F11D
:103B800000BF00BF054DED68C5F341656D1C6B00BE
:103B9000B1FBF3F000E0002070BD00000010024017
:103BA0000024F40000366E012DE9F843044614B9F0
:103BB0000120BDE8F883207800F00100002865D0DE
:103BC000FC48806800F00C07FA48C06800F0030663
:103BD0000C2F01D1032E01D0082F0AD1F54800681F
:103BE00000F40030002851D0606800284ED1012038
:103BF000DFE700BF6068B0F5803F06D1ED480068A0
:103C000040F48030EB4908601AE06068B0F5A02FFE
:103C10000BD1E848006840F48020E6490860084677
:103C2000006840F4803008600AE0E248006820F450
:103C30008030E04908600846006820F48020086071
:103C400000BF606888B1FEF78BFC054606E0FEF712
:103C500087FC401B642801D90320AAE7D5480068E7
:103C600000F400300028F2D010E0FEF779FC0546A1
:103C700006E0FEF775FC401B642801D9032098E795
:103C8000CC48006800F400300028F2D1207800F021
:103C90000200022860D1C748806800F00C07C548C0
:103CA000C06800F003060C2F01D1022E01D0042FB2
:103CB00018D1C048006800F4806018B1E06808B905
:103CC000012076E7BB48406820F0FE40217C40EAB6
:103CD0000160B8494860B8480068FFF787FA18B330
:103CE000012066E7E06800B3B248006840F48070E5
:103CF000B0490860FEF734FC054606E0FEF730FCEC
:103D0000401B022801D9032053E7AA48006800F4A9
:103D100080600028F2D0A748406820F0FE40217C57
:103D200040EA0160A349486016E0A248006820F418
:103D30008070A0490860FEF713FC054606E0FEF718
:103D40000FFC401B022801D9032032E79948006884
:103D500000F480600028F2D1207800F008000828E4
:103D600036D16069D0B193489430006840F00100CA
:103D70009049C1F89400FEF7F3FB054606E0FEF714
:103D8000EFFB401B022801D9032012E78948943039
:103D9000006800F002000028F1D019E08548943056
:103DA000006820F001008349C1F89400FEF7D8FBB9
:103DB000054606E0FEF7D4FB401B022801D903208C
:103DC000F7E67C489430006800F002000028F1D14A
:103DD000207800F00400042872D14FF000087548E4
:103DE000806D012121EA107078B100BF7148806DAB
:103DF00040F080506F4988650846806D00F0805023
:103E0000009000BF00BF4FF001086C48006800F44C
:103E10008070B0B96948006840F4807067490860F4
:103E2000FEF79EFB054606E0FEF79AFB401B0228C4
:103E300001D90320BDE66148006800F480700028C5
:103E4000F2D000BFA068012808D15A48903000681D
:103E500040F001005749C1F8900021E0A068052812
:103E60000FD154489030006840F004005149C1F827
:103E700090000846D0F8900040F00100C1F8900092
:103E80000EE04C489030006820F001004949C1F82C
:103E900090000846D0F8900020F00400C1F890008F
:103EA00000BFA068A8B1FEF75BFB054609E0FEF77E
:103EB00057FB401B41F28831884202D9032078E643
:103EC00025E03C489030006800F002000028EED069
:103ED00013E0FEF745FB054608E0FEF741FB401BFB
:103EE00041F28831884201D9032062E6314890309E
:103EF000006800F002000028EFD1B8F1010F05D1F1
:103F00002C48806D20F080502A49886500BF2078B9
:103F100000F02000202836D1A069D0B12548983083
:103F2000006840F001002349C1F89800FEF718FB33
:103F3000054606E0FEF714FB401B022801D90320CA
:103F400037E61C489830006800F002000028F1D0E5
:103F500019E018489830006820F001001549C1F8B0
:103F60009800FEF7FDFA054606E0FEF7F9FA401B59
:103F7000022801D903201CE60E489830006800F0A2
:103F800002000028F1D1E069002860D0094880686B
:103F900000F00C000C287AD0E069022858D10548BE
:103FA000006820F0807003490860FEF7D9FA0546E2
:103FB0000DE000000010024068000020007000408A
:103FC000FEF7CEFA401B022801D90320F1E54A484A
:103FD000006800F000700028F2D1D4E90810401EFB
:103FE00041EA0011A06A41EA0021208E0122C2EBC1
:103FF000500041EA40513420005DC2EB500041EADC
:1040000040612C20005D41EAC0603B49C9683B4AE1
:10401000114008433849C8600846006840F0807085
:1040200008600846C06840F08070C860FEF798FAE3
:10403000054606E0FEF794FA401B022801D903204A
:10404000B7E52D48006800F000700028F2D051E07C
:104050002948006820F0807027490860FEF780FA40
:10406000054606E0FEF77CFA401B022801D9032032
:104070009FE52148006800F000700028F2D11E483A
:10408000C0681F4908401C49C86033E0FFE7E06989
:10409000012800D18DE51848C66806F00301206AA2
:1040A000814225D106F0F001606A401EB1EB001F8D
:1040B0001ED106F4FE41A06AB1EB002F18D106F024
:1040C00078412C20005DB1EBC06F11D106F4C00126
:1040D000208E0122C2EB5000B1EB405F08D106F008
:1040E000C0613420005DC2EB5000B1EB406F01D0E5
:1040F00001205EE500205CE5001002400C809F017D
:10410000FCFFEEFE70B504462546681EB0F1807FC8
:1041100001D301200FE0681E4FF0E02148610F211C
:104120004FF0FF3004F062FF00204FF0E021886183
:1041300007200861002070BD70477047704700007D
:1041400010B50346002200BF93F83C00012801D1BE
:10415000022010BD012083F83C0000BF22F0FF00C8
:10416000CC6840EA040222F440708C6840EA040201
:1041700022F480604C6840EA040222F400600C687B
:1041800040EA040222F480500C6940EA040222F45E
:1041900000504C6940EA040222F480400C6B40EA73
:1041A000040222F470200C8B40EA044222F080507A
:1041B000CC6940EA0402144C1868A04207D0134CA2
:1041C0001868A04203D0124C1868A04213D122F400
:1041D00070000C8D40EA045222F080700C6A40EAB4
:1041E000040222F000704C6A40EA040222F00050FF
:1041F000CC6A40EA04021868426400BF002083F8D9
:104200003C0000BF00BFA4E7002C01400034014087
:1042100000500140704770477047000030B50246BB
:104220000B4600BF92F83C00012801D1022030BDAE
:10423000012082F83C0000BF022082F83D00106897
:10424000416810688468234D1068A84207D0224D49
:104250001068A84203D0214D1068A84203D121F470
:104260007001586801431E480140186801431068F6
:104270004160184D1068A8421BD01068B0F1804F03
:1042800017D0184D1068A84213D0174D1068A842D7
:104290000FD0164D1068A8420BD00F4D1068A842E1
:1042A00007D0134D1068A84203D00C4D1068A842E7
:1042B00005D124F0800498680443106884600120CC
:1042C00082F83D0000BF002082F83C0000BF00BF24
:1042D000ADE70000002C01400034014000500140D7
:1042E0008FFFFFFD0004004000080040000C00406C
:1042F00000400140704710B504460CB9012010BDC4
:1043000094F83D0028B9002084F83C00204600F0D5
:1043100029F8022084F83D00211D206803F06CFD7F
:10432000012084F8480000BF84F83E0001213F20AE
:10433000015540200155412001554220015543209F
:10434000015500BF00BF012084F8440045200155FD
:10435000462001554720015500BF012084F83D004B
:104360000020CCE738B504461E49206888421ED19B
:1043700000BF1D48006E40F400601B4908660846F7
:10438000006E00F40060009000BF00BF00221146E4
:104390001920FEF78DFF1920FEF776FF0022114647
:1043A0001B20FEF785FF1B20FEF76EFF19E020683B
:1043B000B0F1804F15D100BF0B48806D40F0010077
:1043C000094988650846806D00F00100009000BF33
:1043D00000BF002211461C20FEF76AFF1C20FEF7DA
:1043E00053FF38BD002C014000100240014691F8F7
:1043F0003D00012801D001207047022081F83D00D6
:104400000868C06840F001000B68D8601C4B086861
:1044100098421BD00868B0F1804F17D0194B08683C
:10442000984213D0184B086898420FD0174B086871
:1044300098420BD0164B0868984207D0154B086875
:10444000984203D0144B0868984210D108688068DD
:10445000124B00EA0302062A0FD0B2F5803F0CD0BF
:104460000868006840F001000B68186005E0086803
:10447000006840F001000B6818600020BCE70000F5
:10448000002C01400004004000080040000C0040E7
:10449000003401400040014000500140070001008D
:1044A0002DE9F04104460D46002700BF94F83C007A
:1044B000012802D10220BDE8F081012084F83C00EF
:1044C00000BF022084F83D0020688668424806400C
:1044D00026F47F46206886602868B0F5005F33D0F8
:1044E00015DC402851D008DC002858D0102857D0BF
:1044F000202856D0302862D154E0502831D060288E
:1045000039D0702813D0B0F5805F58D10EE000F09C
:104510000F01002953D10011A0F5803008284ED298
:10452000DFE800F0414243444546474849E0D5E9C9
:1045300002136A68206803F0E8FC2068866846F089
:104540007706206886603CE0D5E902136A68206837
:1045500003F0DBFC2068806840F4804021688860BC
:104560002FE0EA686968206803F0E8FE50212068BF
:1045700003F0D6FC25E0EA686968206803F0F1FEE4
:104580006021206803F0CCFC1BE0EA6869682068C1
:1045900003F0D4FE4021206803F0C2FC11E000BF0C
:1045A00000BF00BF00BF00BF00BF00BF00BF00BF13
:1045B00000BF00BF2968206803F0B2FC01E00127BA
:1045C00000BF00BF012084F83D0000BF002084F838
:1045D0003C0000BF38466EE788FFCEFF704770B5DD
:1045E00004462068C6682068056905F002000228B4
:1045F00019D106F00200022815D1401F2168086178
:10460000012020772068806900F0030018B120465F
:10461000FFF7E4FF05E0204600F03AF9204600F0FD
:1046200067FA0020207705F00400042819D106F06D
:104630000400042815D1C0432168086102202077B6
:104640002068806900F4407018B12046FFF7C6FF6B
:1046500005E0204600F01CF9204600F049FA002051
:10466000207705F00800082819D106F0080008286E
:1046700015D1C04321680861042020772068C069F3
:1046800000F0030018B12046FFF7A8FF05E0204620
:1046900000F0FEF8204600F02BFA0020207705F00D
:1046A0001000102819D106F01000102815D1C043B1
:1046B00021680861082020772068C06900F44070F4
:1046C00018B12046FFF78AFF05E0204600F0E0F829
:1046D000204600F00DFA0020207705F0010048B1D7
:1046E00006F0010030B16FF001002168086120463A
:1046F00000F000FA05F08000802804D005F4005096
:10470000B0F5005F0AD106F08000802806D16FF472
:104710000250216808612046FFF70FFD05F4807004
:10472000B0F5807F0AD106F08000802806D16FF4B2
:104730008070216808612046FFF7FEFC05F040000C
:10474000402809D106F04000402805D1C043216827
:104750000861204600F0E4F905F02000202809D186
:1047600006F02000202805D1C043216808612046BA
:10477000FFF7E4FC05F48010B0F5801F0BD106F4C0
:104780008010B0F5801F06D16FF480102168086199
:104790002046FFF740FD05F40010B0F5001F0BD1D7
:1047A00006F40010B0F5001F06D16FF40010216868
:1047B00008612046FFF72EFD05F48000B0F5800F5C
:1047C0000BD106F48000B0F5800F06D16FF48000A5
:1047D000216808612046FFF71FFD05F40000B0F5D1
:1047E000000F0BD106F40000B0F5000F06D16FF4F6
:1047F0000000216808612046FFF77CFD70BD2DE9AF
:10480000F04104460E461546002700BF94F83C00D0
:10481000012802D10220BDE8F081012084F83C008B
:1048200000BF0C2D1AD005DC4DB1042D0CD0082D85
:1048300023D10EE0102D16D0142D1ED118E03146D4
:10484000206803F079FB1AE03146206803F0D2FBC0
:1048500015E03146206803F031FC10E03146206855
:1048600003F08EFC0BE03146206803F0EDFC06E01F
:104870003146206803F024FD01E0012700BF00BF9E
:1048800000BF002084F83C0000BF3846C3E70000AA
:1048900010B5044609492068884200D010BD207F29
:1048A000012803D10420FCF761FA05E0207F0228EB
:1048B00002D10520FCF75AFA00BFEFE7002C0140B7
:1048C00010B504460CB9012010BD94F83D0028B97C
:1048D000002084F83C00204600F029F8022084F8EB
:1048E0003D00211D206803F087FA012084F848006C
:1048F00000BF84F83E0001213F20015540200155B2
:1049000041200155422001554320015500BF00BF01
:10491000012084F8440045200155462001554720D8
:10492000015500BF012084F83D000020CCE770470E
:10493000F0B504460D46002715B994F83E0015E081
:10494000042D02D13F20005D10E0082D02D140204F
:10495000005D0BE00C2D02D14120005D06E0102D22
:1049600002D14220005D01E04320005D012801D01A
:104970000120F0BD1DB9022084F83E001AE0042D8C
:1049800003D102213F20015514E0082D03D102215B
:10499000402001550EE00C2D03D10221412001558C
:1049A00008E0102D03D102214220015502E002212E
:1049B0004320015535B1042D0BD0082D10D00C2DFE
:1049C0001CD114E02068C06840F002002168C86073
:1049D00016E02068C06840F004002168C8600FE05D
:1049E0002068C06840F008002168C86008E02068BE
:1049F000C06840F010002168C86001E0012700BFD6
:104A000000BF002F5DD101222946206803F06CFA17
:104A10002D492068884213D02C49206888420FD045
:104A20002B49206888420BD02A492068884207D049
:104A300029492068884203D028492068884201D14A
:104A4000012000E0002028B12068406C40F40040C4
:104A5000216848641C49206888421BD02068B0F156
:104A6000804F17D01E492068884213D01D49206806
:104A700088420FD01C49206888420BD01349206817
:104A8000884207D012492068884203D01349206821
:104A9000884210D120688068144900EA0106062E79
:104AA0000FD0B6F5803F0CD02068006840F00100C0
:104AB0002168086005E02068006840F00100216876
:104AC0000860384655E70000002C014000340140E2
:104AD00000400140004401400048014000500140B6
:104AE0000004004000080040000C004007000100E6
:104AF0007047000010B5044607492068884203D17A
:104B00000320FCF733F906E02068B0F1804F02D1B2
:104B10000248FEF747FB10BD002C0140380400207E
:104B20007047014600BF91F88400012801D102209E
:104B30007047012081F8840000BF2420C1F888005C
:104B4000086802680868006820F001000B681860B7
:104B500022F0005200204866086802602020C1F858
:104B6000880000BF002081F8840000BF00BFDFE79D
:104B700070B5044600BF94F88400012801D10220DA
:104B800070BD012084F8840000BF2420C4F8880090
:104B9000206805682068006820F00100216808602E
:104BA00045F000554FF000506066206805602046D3
:104BB00003F026FC2020C4F8880000BF002084F801
:104BC000840000BF00BFDBE70146086F70472DE996
:104BD000F04104460E461746D4F88C00202825D113
:104BE00006B117B90120BDE8F0810120E066002080
:104BF00020673A463146204604F04AF805469DB9FA
:104C0000E06E01280FD110202168086200BF00BFAC
:104C1000216851E8001F41F01000226842E80001BD
:104C20000029F5D100E001252846DCE70220DAE77B
:104C30002DE9F04105460C462846FFF7C5FF07461B
:104C4000022F02D00FB1BDE8F0817F492868884269
:104C50000BD124B122467D497D4804F070F96422CD
:104C60007A497C48FFF7B3FFECE07B49286888422B
:104C70000BD124B122467949794804F060F96422C5
:104C800076497848FFF7A3FFDCE077492868884237
:104C900045D1062C3DD37548007880F00106744953
:104CA00001EB8600FCF744F97248007858B906EB2E
:104CB0004600714901EB800070490A68C0F806207F
:104CC000898841810AE006EB46006B4901EB8000D0
:104CD0006B490A68C0F806208988418106EB4600C6
:104CE000654901EB800065490A6802608988818016
:104CF000634862490A6802608988818001205D49B1
:104D000008705B4901EB860032465849FCF716F9FA
:104D100000BF062259495B48FFF759FF92E05A4904
:104D20002868884245D1062C3DD35848007880F049
:104D30000106574901EB8600FCF7FAF85548007860
:104D400058B906EB4600544901EB800053490A6804
:104D5000C0F80620898841810AE006EB46004E49EA
:104D600001EB80004E490A68C0F80620898841811D
:104D700006EB4600484901EB800048490A6802609A
:104D800089888180464845490A680260898881800F
:104D90000120404908703E4901EB860032463B49FC
:104DA000FCF7CCF800BF06223C493E48FFF70FFF56
:104DB00048E03D492868884244D1062C3DD33B4811
:104DC000007880F001063A4901EB8600FCF7B0F864
:104DD0003848007858B906EB4600374901EB8000A7
:104DE00036490A68C0F80620898841810AE006EB46
:104DF0004600314901EB800031490A68C0F80620BD
:104E00008988418106EB46002B4901EB80002B4944
:104E10000A68026089888180294828490A680260F6
:104E200089888180012023490870214901EB86008F
:104E300032461E49FCF782F800BF06221F4921486E
:104E4000FFF7C5FE00BFFEE600380140F005002078
:104E5000B8060020A40800200044004054060020AA
:104E60001A07002038090020004800402E000020CA
:104E7000340000205E000020E00400201C00002020
:104E80004C000020CC090020004C00402F000020E6
:104E90003C0000205F0000201005002022000020C0
:104EA000520000207C07002000500040300000200D
:104EB0004400002060000020F804002028000020AA
:104EC0005800002010080020704770B504460D46B9
:104ED00000BF94F88400012801D1022070BD012098
:104EE00084F8840000BF2420C4F888002068066885
:104EF0002068006820F00100216808602068806850
:104F000020F06060284321688860204603F078FA2A
:104F1000206806602020C4F8880000BF002084F8C4
:104F2000840000BF00BFD9E770B504460D4600BF3E
:104F300094F88400012801D1022070BD012084F87A
:104F4000840000BF2420C4F8880020680668206818
:104F5000006820F00100216808602068806820F067
:104F60006040284321688860204603F049FA2068A1
:104F700006602020C4F8880000BF002084F8840068
:104F800000BF00BFD9E770477047000010B5044666
:104F90002749206888420BD10020C4F890000F20D8
:104FA00021680862642223492348FFF710FE3EE08F
:104FB0002249206888420BD10020C4F890000F20BD
:104FC0002168086264221E491E48FFF700FE2EE099
:104FD0001D49206888420BD10020C4F890000F20A2
:104FE00021680862062219491948FFF7F0FD1EE002
:104FF0001849206888420BD10020C4F890000F2087
:1050000021680862062214491448FFF7E0FD0EE00B
:105010001349206888420AD10020C4F890000F206C
:105020002168086206220F490F48FFF7D0FD10BD26
:1050300000380140F0050020A40800200044004092
:1050400054060020380900200050004028000020AD
:1050500010080020004800401C000020CC0900205F
:10506000004C0040220000207C0700202DE9F04782
:1050700004462068C569206806682068876840F68D
:105080000F0005EA0009B9F1000F0FD105F020006B
:1050900060B106F0200010B907F0805030B1606FA9
:1050A00010B12046616F8847BDE8F087B9F1000F65
:1050B0007ED0DF48384018B9DE4830400028F7D0AD
:1050C00005F0010058B106F4807040B1012021685C
:1050D0000862D4F8900040F00100C4F8900005F098
:1050E000020058B107F0010040B1022021680862B7
:1050F000D4F8900040F00400C4F8900005F00400DB
:1051000058B107F0010040B1042021680862D4F8CA
:10511000900040F00200C4F8900005F0080070B163
:1051200006F0200010B9C248384040B1082021687C
:105130000862D4F8900040F00800C4F8900005F42C
:10514000006060B106F0806048B14FF400602168F3
:105150000862D4F8900040F02000C4F89000D4F821
:105160009000002852D005F0200050B106F0200039
:1051700010B907F0805020B1606F10B12046616F08
:105180008847D4F890A02068806800F0400040284C
:1051900002D00AF0280070B3204603F027FB2068F5
:1051A000806800F04000402826D100BF00BF00E02A
:1051B0002DE02168083151E8001F21F040002168EE
:1051C000083141E80002002AF1D100BFD4F8800084
:1051D00068B19948D4F880108863D4F88000FCF74F
:1051E0002CFF98B1D4F88000816B88470EE02046F0
:1051F000FFF7CCFE0AE003E02046FFF7C7FE05E01C
:105200002046FFF7C3FE0020C4F890004CE7E06E94
:10521000012865D105F01000002861D006F01000CB
:105220000028FAD01020216808622068806800F009
:10523000400040287AD1D4F88000006840681FFA06
:1052400080F8B8F1000F5CD0B4F85C00404558DD40
:10525000A4F85E80D4F880000068006800F02000A8
:10526000E8BB00BF00BF216851E8001F21F4807037
:10527000226842E800010029F5D100BF00BF00BF4D
:105280002168083151E8001F21F001002168083130
:1052900041E80002002AF3D100BF00BF00BF21682F
:1052A000083151E8001F21F040002168083141E831
:1052B0000002002AF3D100BF2020C4F88C00002097
:1052C000E06600BF00BF216851E8001F21F0100018
:1052D000226842E800010029F5D100BF01E004E0A6
:1052E00068E0D4F88000FCF76DFE02202067B4F877
:1052F0005C00B4F85E20801A81B22046FFF798FC6B
:1053000012E0B4F85C0040450ED1D4F8800000688B
:10531000006800F02000202806D102202067B4F8A1
:105320005C102046FFF784FCBEE6FFE734F85C0F14
:105330006188401A1FFA80F860885C3CC8B3B8F1F5
:10534000000F36D000BF00BF216851E8001F21F4D4
:105350009070226842E800010029F5D100BF00BF2B
:1053600000BF2168083151E8001F314AD24301EAE9
:1053700002002168083141E80002002AF1D100BF93
:105380002020C4F88C000020E066606700BF00BFEA
:10539000216851E8001F21F01000226842E8000156
:1053A0000029F5D100BF0220206741462046FFF7C3
:1053B0003FFC79E605F4801050B107F4800038B165
:1053C0004FF48010216808622046FFF7DDFD6BE690
:1053D00005F0800058B106F0800010B907F4000015
:1053E00028B1A06F10B12046A16F88475CE605F098
:1053F000400030B106F0400018B1204603F02CFA0E
:1054000052E605F4000030B106F0804018B12046A5
:10541000FFF7B9FD48E605F0807030B106F00040B6
:1054200018B12046FFF750FD3EE600BF3CE6000005
:1054300001000010200100043B86000810B504465E
:105440000CB9012010BDA06900B100E000BFD4F884
:10545000880028B9002084F88400204600F02AF84B
:105460002420C4F888002068006820F0010021682A
:105470000860A06A10B1204602F0EEFF204603F05B
:1054800023FA012800D1DDE72068406820F490402D
:10549000216848602068806820F02A0021688860C0
:1054A0002068006840F0010021680860204603F091
:1054B0004FF8C7E710B59CB00446142117A8FAF7B7
:1054C000F3FE542102A8FAF7EFFEFE492068884255
:1054D00060D1082002900020069002A8FDF7D0FFBE
:1054E00008B1FBF777FD00BFF748806D40F400205E
:1054F000F54988650846806D00F40020019000BFE2
:1055000000BF00BF0846C06C40F00400C8640846F5
:10551000C06C00F00400019000BF00BF4FF4406079
:10552000179002201890002019901A9005201B90C7
:1055300017A9E648FCF728FFE548E64908601E2061
:1055400048600021E3488160C16080210161002141
:1055500041618161C1614FF400510162FCF736FE87
:1055600008B1FBF737FD00BFDA48C4F88000846259
:1055700000BF002201213420FDF79AFE3420FDF700
:1055800083FE002202213920FDF792FE3920FDF72B
:105590007BFEF6E1D049206888427BD11020029042
:1055A0000020079002A8FDF76BFF08B1FBF712FD82
:1055B00000BFC548806D40F48010C3498865084627
:1055C000806D00F48010019000BF00BF00BF08464E
:1055D000C06C40F00400C8640846C06C00F00400D1
:1055E000019000BF00BF00BF0846C06C40F008003B
:1055F000C8640846C06C00F00800019000BF00BFFE
:105600008814179002201890002019901A900520F5
:105610001B9017A9AD48FCF7B7FE04201790022095
:105620001890002019901A9005201B9017A9AB48DC
:10563000FCF7AAFEA6481430A9490860202048605B
:105640000021A7488160C160802101610021416182
:105650008161C1614FF400510162FCF7B7FD08B1EF
:10566000FBF7B8FC00BF9E48C4F88000846200BF0E
:10567000002201213520FDF71BFE3520FDF704FE39
:10568000002202213A20FDF713FE3A20FDF7FCFD2F
:1056900077E1FFE793492068884272D101200290A8
:1056A0000020039002A8FDF7EBFE08B1FBF792FC87
:1056B00000BF8548006E40F4804083490866084674
:1056C000006E00F48040019000BF00BF00BF08469C
:1056D000C06C40F00400C8640846C06C00F00400D0
:1056E000019000BF00BF30201790022018900020CA
:1056F00019901A9007201B9017A97448FCF744FED4
:1057000079487A490860182048600021774881600C
:10571000C16080210161002141618161C16101623B
:10572000FCF754FD08B1FBF755FC00BF6F48C4F807
:105730008000846200BF6C4814306D4908601920F5
:10574000486010216A4881600021C16080210161A8
:10575000002141618161C1610162FCF737FD08B13F
:10576000FBF738FC00BF6248E067846200BF00229C
:1057700003212520FDF79CFD2520FDF785FD00E197
:10578000FFE75C492068884274D102200290002023
:10579000049002A8FDF774FE08B1FBF71BFC00BFE4
:1057A0004948806D40F40030474988650846806D5F
:1057B00000F40030019000BF00BF00BF0846C06C7D
:1057C00040F00100C8640846C06C00F00100019080
:1057D00000BF00BFC8131790022018900020199036
:1057E0001A9007201B9017A94FF09040FCF7CCFDB2
:1057F0003D486430404908601A20486000213E4816
:105800008160C16080210161002141618161C161CC
:105810000162FCF7DBFC08B1FBF7DCFB00BF36489C
:10582000C4F88000846200BF2F483C3033490860D0
:105830001B2048601021314881600021C160802117
:105840000161002141618161C1610162FCF7BEFC1F
:1058500008B1FBF7BFFB00BF2848E067846200BFC8
:10586000002203212620FDF723FD2620FDF70CFD55
:1058700087E0FFE72249206888427CD1042002901B
:105880000020059002A8FDF7FBFD08B1FBF7A2FB85
:1058900000BF0D48806D40F480200B4988650846A4
:1058A000806D00F48020019000BF00BF00BF08465B
:1058B000C06C40F00200C8640846C06C00F00200F2
:1058C00001901FE0004C004000100240000800481A
:1058D0001C040240600A002000500040000C0048F8
:1058E000C00A00200038014030000240200B002098
:1058F000800B002000440040E00B0020400C002002
:105900000048004000BF00BF4FF4406017900220E5
:105910001890002019901A9007201B9017A91A4878
:10592000FCF732FD19481A4908601C204860002124
:1059300017488160C160802101610021416181615E
:10594000C1614FF400510162FCF740FC08B1FBF764
:1059500041FB00BF0E48C4F88000846200BF0022F3
:1059600001212720FDF7A4FC2720FDF78DFC002254
:105970000221382000E004E0FDF79AFC3820FDF712
:1059800083FC1CB010BD0000000400480804024065
:10599000A00C0020704770472DE9F84F04460E46D2
:1059A00017469946D4F88800202854D106B117B973
:1059B0000120BDE8F88F00205434E06321206063AB
:1059C000FCF7CEFD824627806780543CA068B0F586
:1059D000805F04D1206910B90025B04602E0354649
:1059E0004FF0000820E05346002280212046CDF8E9
:1059F000009003F0B1F920B12020C4F88800032002
:105A0000D7E745B9B8F80000C0F3080021688862FC
:105A100008F1020803E02878216888626D1CB4F858
:105A20005600401EA4F85600B4F856000028DAD1FB
:105A30005346002240212046CDF8009003F08CF917
:105A400020B12020C4F888000320B2E72020C4F849
:105A500088000020ADE70220ABE7000070B50446E7
:105A60000E461546D4F8880020283FD106B10DB95E
:105A7000012070BD44F8506FA580E58000202064AF
:105A80002120A063E06A503CE0B11948E16FC86290
:105A90001848E16F08631848E16F48630020E16F20
:105AA0008863236803F128022B46216DE06FFCF721
:105AB000F5FB38B11020C4F890002020C4F888000D
:105AC0000120D6E740202168086200BF00BF21689E
:105AD000083151E8001F41F080002168083141E899
