:020000040800F2
:1000000000200020F1010008C1650008F359000834
:10001000D9630008790900080D7800080000000085
:10002000000000000000000000000000AB670008B6
:10003000E50A0008000000004D660008B16B0008EA
:100040000B0200080B0200080B0200080B0200085C
:100050000B0200080B0200080B0200080B0200084C
:100060000B0200080B0200080B0200087D090008C3
:100070008D0900089D090008AD090008BD090008A8
:10008000CD090008DD0900080B0200080B0200087A
:100090000B0200080B0200080B0200080B0200080C
:1000A0000B020008396C00080B0200080B02000864
:1000B0000B0200080B0200080B0200080B020008EC
:1000C0000B0200080B0200080B0200080B020008DC
:1000D0000B020008DD770008ED770008FD770008C7
:1000E0000B0200080B0200080B0200080B020008BC
:1000F0000B0200080B0200080B0200080B020008AC
:100100000B0200080B0200080B0200080B0200089B
:10011000B96D0008C96D00080B0200080B02000849
:10012000FD0900080D0A00081D0A00082D0A000834
:100130000B0200080B0200080B0200080B0200086B
:100140000B0200080B0200080B020008BD5000085B
:100150000B020008CD5000080B0200080B0200083B
:100160000B0200080B0200080B0200080B0200083B
:100170000B0200080B0200080B0200080B0200082B
:100180000B0200080B0200080B0200080B0200081B
:100190000B020008000000000B0200080B02000820
:1001A0000B0200080B0200080B0200080B020008FB
:1001B0000B0200080B0200080B0200080B020008EB
:1001C000ED0900080B0200080B0200080B020008F2
:1001D0000B0200080B020008DFF810D000F0DEFA76
:1001E000004800479D810008AFF3008000200020F8
:1001F0000648804706480047FEE7FEE7FEE7FEE7C1
:10020000FEE7FEE7FEE7FEE7FEE7FEE7256C0008F7
:10021000D90100082DE9F05F0546002092469B4673
:1002200088460646814640241BE02846414647460C
:10023000224600F092F953465A46C01A914110D313
:1002400011461846224600F079F92D1A67EB01088D
:100250004F4622460120002100F070F917EB0009FB
:100260004E41201EA4F10104DFDC484631462A46F7
:100270004346BDE8F09F40EA01039B0703D009E035
:1002800008C9121F08C0042AFAD203E011F8013B82
:1002900000F8013B521EF9D27047D2B201E000F8DB
:1002A000012B491EFBD270470022F6E710B513461A
:1002B0000A4604461946FFF7F0FF204610BD2DE917
:1002C000FE4F804681EA0300C00F0C46009021F0EB
:1002D000004123F00045B8EB0200A94105D2404699
:1002E000214690461C460B46024623F00040104330
:1002F00047D0270DC7F30A00C3F30A510290401AF2
:10030000019040286BDAC3F3130040F4801B00987F
:10031000924620B10023D2EB030A63EB0B0B01984A
:100320005946C0F14002504600F008F906460D4615
:1003300050465946019A00F020F910EB080061413F
:10034000002487EA115284EAE7731A4340D0009AE6
:1003500062B3019A012A4FEA075215DC001B61EBD8
:1003600002014FF0004202EA0752CDE90042001CB0
:1003700041F5801132462B4600F020F903B0BDE86C
:10038000F08F40462146F9E7001B61EB0201001C9B
:1003900041F5801300185B412018A2F5001747EBC8
:1003A000030140EAD570B6196D4111E06D084FEABE
:1003B000360645EAC0754FEA0752001B61EB0201A1
:1003C000001C41F5801149084FEA300000195141E5
:1003D00032462B4603B0BDE8F04F00F0E0B800987D
:1003E000012240000023D0EB020263EBE07300988F
:1003F00021464FEAE074B8EB000061EB0401E9E745
:1004000083F000435BE781F0004158E72DE9F04DB0
:1004100081EA030404F0004B21F0004514464FF03C
:10042000000A23F0004150EA050220D054EA0102FC
:100430001DD0C5F30A570246C5F31303C1F31300D9
:10044000C1F30A5640F4801543F48013A7EB060865
:10045000101BD64608F2FD3873EB050002D308F1F5
:10046000010801E092185B41B8F1000F03DA0020A7
:100470000146BDE8F08D00204FF480110646844609
:100480000EE0171B73EB050705D3121B63EB050387
:1004900006434CEA010C49084FEA300092185B41D0
:1004A00050EA0107EDD152EA030012D082EA0400BB
:1004B00083EA0501084305D0101BAB4106D2012297
:1004C000002306E000224FF0004302E06FF001023B
:1004D00053101AEB06004CEB085110EB0A0041EBED
:1004E0000B01BDE8F04D00F05AB800F0004230F0CA
:1004F00000400AD0C10D01F56071C0F3160042EA58
:100500000151C2084007114370470020014670475F
:1005100030B50B46014600202022012409E021FAD3
:1005200002F59D4205D303FA02F5491B04FA02F5D0
:100530002844151EA2F10102F1DC30BD202A04DBA3
:10054000203A00FA02F1002070479140C2F12003E6
:1005500020FA03F3194390407047202A04DB203A25
:1005600021FA02F00021704721FA02F3D040C2F1D3
:1005700020029140084319467047202A06DBCB171A
:10058000203A41FA02F043EAE07306E041FA02F34E
:10059000D040C2F12002914008431946704710B57F
:1005A000141E73F1000408DA401C41F10001921896
:1005B0005B411A4301D120F0010010BD2DE9F04D3F
:1005C00092469B4611B1B1FA81F202E0B0FA80F294
:1005D00020329046FFF7B2FF04460F4640EA0A0079
:1005E00041EA0B0153465A46084313D0114653EAD9
:1005F000010019D0C8F140025046FFF7AEFF054692
:100600000E46504659464246FFF798FF084305D02C
:10061000012004E020463946BDE8F08D0020054366
:1006200046EAE0762C4337430A986305E40AA0EBD8
:1006300008000022FD0A44EA47540A3002D500208F
:100640000146E9E7010510196941DDE9084500198E
:100650006941BDE8F04DA2E72DE9FE4F81EA0304B0
:1006600004F0004421F0004100944FF0000B23F00F
:10067000004350EA01045ED052EA03045BD0C3F3A6
:100680000A54C1F30A552C44A4F2F3340194A0FB9C
:100690000254C1F3130141F48011C3F3130343F473
:1006A000801301FB024400FB034E840A970A44EACC
:1006B000815447EA8357A4FB076802958D0A05FB1E
:1006C00007854FEA932C04FB0C542705029D4FEA43
:1006D000065847EA1637B5EB08056EEB070C870E90
:1006E000920E47EA811742EA8312A7FB0201B6EB9A
:1006F0000B0164EB00042B0D43EA0C335E1844EB52
:100700001C50DA465146E7FB0201C5F313044FEAD9
:100710000B3343EA14534FEA0432019C43EA0603C5
:10072000A4F10C040294009CCDE900B4FFF746FF4D
:1007300003B0BDE8F08F00200146F9E7C1F30A528B
:10074000C1F3130140F2FF3341F480119A4202DAFF
:1007500000200146704740F233439A42A2F23342EE
:1007600002DC5242FFF7F9BEFFF7E8BE30B5041EC7
:1007700071F1000404DB4FF00044404264EB0101DE
:10078000141E73F1000405DB1C464FF00043524277
:1007900063EB0403994208BF904230BD064C074DFD
:1007A00006E0E06840F0010394E807009847103441
:1007B000AC42F6D3FFF714FD088300082883000835
:1007C00070B50546AC6AE06D00F0500098BBE06D76
:1007D00040F40070E0652068006800F00800A8B1EF
:1007E000206805F042F910B32068C06800F400509A
:1007F000E8B9E06D20F48070E065E06D00F48050B1
:10080000A8B9E06D40F00100E06510E02068C06824
:1008100000F0020058B9E06D20F48070E065E06DF2
:1008200000F4805018B9E06D40F00100E06520460A
:1008300000F03EFE0CE0FFE7E06D00F0100018B1A4
:10084000204600F037FE03E0606D416B2846884784
:1008500070BD70B50546AC6AE06D40F04000E065E3
:10086000206E40F004002066204600F023FE70BD9C
:1008700070B50446A56A284600F01BFE70BD000056
:1008800038B5044600200090206805F0D5F800280F
:1008900058D1206880682C49084048B1E06D40F08C
:1008A0001000E065206E40F001002066012038BD98
:1008B000206805F0A1F82168B1F1A04F03D0234AC8
:1008C0002168914201D1224900E02249084605F001
:1008D0009BF800F4000080B11F4800681F49B0FB7E
:1008E000F1F0401C00EB40008000009002E0009816
:1008F000401E009000980028F9D101F003FC054645
:100900001AE0206805F098F810B9206805F074F82E
:1009100001F0F8FB401B02280ED92068006800F0A7
:10092000010048B9E06D40F01000E065206E40F035
:10093000010020660120BAE72068006800F001008D
:100940000028DED00020B2E73F0000800001005008
:10095000000300500007005050000020400D03002D
:1009600028B103490988017002490988417070471C
:10097000000000200400002000BFFEE710B5024880
:1009800001F08BF910BD00005001002010B50248A5
:1009900001F083F910BD0000B001002010B502483D
:1009A00001F07BF910BD0000BC19002010B5024811
:1009B00001F073F910BD00001C1A002010B50248A8
:1009C00001F06BF910BD00003C1B002010B502487F
:1009D00001F063F910BD00003C18002010B502487A
:1009E00001F05BF910BD0000FC18002010B50248B2
:1009F00001F053F910BD00007C1A002010B5024828
:100A000001F04BF910BD0000DC1A002010B50248BF
:100A100001F043F910BD00009C1B002010B50248F6
:100A200001F03BF910BD00005C19002010B5024830
:100A300001F033F910BD00009C18002030B50E4DB8
:100A40000468AC4201D20D4901E00C4920310B464B
:100A50000478083C1425B4FBF5F2446CA40803EBBD
:100A600084048464054C8034C46402F01F050124AE
:100A7000AC40046530BD000008040240000802409C
:100A800001794A1E064B03EB82024265044A40325A
:100A900082654A1E02F01F0301229A40C265704718
:100AA0000009024030B5D0E913546C60446D14B1B4
:100AB000D0E916546C6090F8444004F01F050124FE
:100AC000AC40056C6C60046863608468102C04D1D1
:100AD0000468A2600468E16003E00468A16004683F
:100AE000E26030BD704730B503460C46002103B1CB
:100AF0000CB9002030BD002213E0985C4140002575
:100B00000BE001F0800020B1012000EB4100C1B2F8
:100B100001E04806010E681CC5B2082DF1D3501C37
:100B200082B2A242E9DB0846E4E72DE9F74F82B042
:100B30000446154604B11DB9012005B0BDE8F08F8B
:100B40000398062801D20220F7E794F8008066781F
:100B500094F8029094F803A094F804B0607900909F
:100B6000B8F1020F01D00220E7E705212046FFF788
:100B7000BAFF07460098874201D00320DDE7C6F39D
:100B800000102870C6F34010687049EA0A2040EA55
:100B90000B4001900198C0F3140068600020CCE77E
:100BA000FEB504460CB90120FEBD684605F016FCF2
:100BB000224606216846FFF7B8FF064604F1080200
:100BC00006210DF10600FFF7B0FF05460EB13046D5
:100BD000EAE70DB12846E7E70020E5E7FEB5044661
:100BE0000CB90120FEBD684605F0ECFC224606214A
:100BF0006846FFF79AFF064604F1080206210DF148
:100C00000600FFF792FF05460EB13046EAE70DB148
:100C10002846E7E70020E5E7FEB504460CB90120C9
:100C2000FEBD684605F0B8FF224606216846FFF77C
:100C30007CFF064604F1080206210DF10600FFF7CD
:100C400074FF05460EB13046EAE70DB12846E7E7E6
:100C50000020E5E7F0B503460C461646112E07D0F6
:100C6000142E03D0152E05D11A4806E01A4804E0C8
:100C70001A4802E09FED1A0AF0BD00BF834201D975
:100C8000074600E01F463B46844201D9074600E084
:100C900027463C46E11A471C7D08A94201DDCA1BD4
:100CA00006E06F42B94202DA471CCA1900E00A4660
:100CB00000EE102AB8EEC00A9FED0A1A20EE011AC3
:100CC000471C00EE107AB8EE400AC1EE000AB0EE02
:100CD000600AD1E7FFFF1F00FFFF0F00FFFF0100C9
:100CE0000000000000C8AF4810B5044614B99FEDDD
:100CF000040A10BD15226168E068FFF7ABFFF8E752
:100D00000000000010B5044614B99FED040A10BDA0
:100D100014226168E068FFF79DFFF8E7000000001B
:100D200010B5044614B99FED040A10BD1122616884
:100D3000E068FFF78FFFF8E70000000010B5012220
:100D400009490A4804F068F901220749084804F0F3
:100D500063F901220449074804F05EF901220249BF
:100D6000054804F059F910BD25000020A8170020FF
:100D700058150020EC1500201417002072B600BF93
:100D8000FEE700002DE9F0439BB004460E464FF00D
:100D90000008306800B100BF00BF94F85800012877
:100DA00003D102201BB0BDE8F083012084F8580075
:100DB00000BF0020179018902068B0F1A04F02D11A
:100DC0005848009008E058492068884202D15748A6
:100DD000009001E000200090009850B9E06D40F0D4
:100DE0002000E06500BF002084F8580000BF01200B
:100DF000D8E7009804F034FE0746206804F030FE7F
:100E000000287DD1002F7FD12068B0F1A04F03D002
:100E100044492068884201D1454800E045480546DC
:100E20003068D8B394F83800716841EA4030A96856
:100E300021F460410843A8602068B0F1A04F03D0BE
:100E400038492068884201D1394800E0394838499A
:100E500088420AD14FF0A04004F0F3FD81463148AA
:100E600004F0EFFD49EA00000DE02F4804F0E9FD31
:100E700081462E4804F0E5FD49EA00092E4804F0B9
:100E8000E0FD49EA0000E0BBB16830680843A968AA
:100E900040F61F7291430843A8603BE0FFE7A86853
:100EA00020F46040A8602068B0F1A04F03D01D4935
:100EB0002068884201D11E4800E01E481C49884233
:100EC0000AD14FF0A04004F0BCFD8146154804F063
:100ED000B8FD49EA00000DE0134804F0B2FD814678
:100EE000124804F0AEFD49EA0009134804F0A9FDD8
:100EF00049EA000028B9A86840F61F71884301E05C
:100F000002E007E0A86005E0E06D40F02000E06549
:100F10004FF0010800BF002084F8580000BF404691
:100F200040E70000000100500004005000050050A0
:100F30000003005000070050000600502DE9F84F54
:100F400005460C464FF0000A00200090FE49E0687C
:100F5000884200D000E000BF00BF95F8580001288B
:100F600002D10220BDE8F88F012085F8580000BFAB
:100F7000286804F070FD00287DD12968D4E900209C
:100F800001F1300CC0F3012B0CEB8B03D3F800C044
:100F900000F01F0E4FF01F0B0BFA0EFB2CEA0B0C90
:100FA00000F01F0BC2F3846E0EFA0BFE4CEA0E0C1F
:100FB000C3F800C000BF286804F04DFD81462868D2
:100FC00004F035FD8046B9F1000F64D1B8F1000F8F
:100FD000FBD1A068B0F1004F0AD121680022286837
:100FE00004F054FD4FF00041286804F074FD08E05F
:100FF000A2682168286804F049FD0021286804F0EF
:101000006AFD60692968C968C1F3C101490000FA35
:1010100001F7206904283FD028682268216900F17F
:10102000600C0CEB8103D3F800C0DFF820B30CEAAE
:101030000B0C02F0F84B4BF0004B4BEA070B4CEA61
:101040000B0CC3F800C000BF2868A269216900F139
:10105000600C0CEB8103D3F800C02CF0807C4CEAD0
:10106000020CC3F800C000BF2868227F2169012A52
:1010700002D1520601E0F6E10022134600F1600CB5
:101080000CEB8102D2F800C02CF0007C4CEA030C7F
:10109000C2F800C000BFA7E00021286804F0BEFC31
:1010A000C0F3120030B90021286804F0B7FCC0F387
:1010B000846007E00021286804F0B0FC90FAA0F0FA
:1010C000B0FA80F02168C1F3120119B92168C1F3A7
:1010D000846104E0216891FAA1F1B1FA81F18842BA
:1010E00004D100221146286804F0EAFC0121286896
:1010F00004F094FCC0F3120030B90121286804F018
:101100008DFCC0F3846007E00121286804F086FCB0
:1011100090FAA0F0B0FA80F02168C1F3120119B979
:101120002168C1F3846104E0216891FAA1F1B1FA68
:1011300081F1884204D100220121286804F0C0FC1A
:101140000221286804F06AFCC0F3120030B90221C1
:10115000286804F063FCC0F3846007E0022128687B
:1011600004F05CFC90FAA0F0B0FA80F02168C1F3C2
:10117000120119B92168C1F3846104E0216891FA70
:10118000A1F1B1FA81F1884204D10022022128683C
:1011900004F096FC0321286804F040FCC0F3120020
:1011A00030B90321286804F039FCC0F3846007E0FB
:1011B0000321286804F032FC90FAA0F0B0FA80F025
:1011C0002168C1F3120119B92168C1F3846104E0F7
:1011D000216891FAA1F1B1FA81F1884204D100228B
:1011E0000321286804F06CFC286804F025FC002822
:1011F00070D12868E2682168D0F8B0C0C1F312034A
:101200002CEA030C02F0180B514B23FA0BF30B40A2
:101210004CEA030CC0F8B0C000BF4B49E0688842FC
:1012200058D12368C3F312031BB92368C3F3846343
:1012300004E0236893FAA3F3B3FA83F35B1C03F08F
:101240001F03092B3ED82368C3F312031BB923687D
:10125000C3F3846304E0236893FAA3F3B3FA83F33C
:101260005B1C03F01F034FF0010C0CFA03FC236816
:10127000C3F312031BB92368C3F3846304E0236838
:1012800093FAA3F3B3FA83F35B1C03F01F034CEA56
:10129000836C2368C3F312031BB92368C3F384630D
:1012A00004E0236893FAA3F3B3FA83F35B1C03F01F
:1012B0001F0303EB43034FF0000B4BEA03534CEACD
:1012C00003033FE02368C3F3120323B92368C3F386
:1012D000846305E042E0236893FAA3F3B3FA83F34F
:1012E0005B1C03F01F034FF0010C0CFA03FC236896
:1012F000C3F312031BB92368C3F3846304E02368B8
:1013000093FAA3F3B3FA83F35B1C03F01F034CEAD5
:10131000836C2368C3F312031BB92368C3F384638C
:1013200004E0236893FAA3F3B3FA83F35B1C03F09E
:101330001F030A3B03EB43034FF0007B4BEA0353CD
:101340004CEA0303194605E000007F4000F0FF036C
:10135000FFFF0700A268286804F098FB484920684E
:101360000840002842D02968B1F1A04F03D0454A77
:101370002968914201D1444900E04449084604F0FB
:1013800043FB064642492068884203D04149206811
:1013900088422CD106F4000048BB2868B0F1A04F69
:1013A00003D03D492868884263D12A68B2F1A04F32
:1013B00003D0344B2A689A4201D1334A00E0334AC1
:1013C000104646F4000104F075FB344800683449C7
:1013D000B0FBF1F0401C00EB40008000009002E008
:1013E0000098401E009000980028F9D141E02D4956
:1013F000206888421BD106F08070C0B92149286856
:10140000884203D128492868884232D02A68B2F13C
:10141000A04F03D01B4B2A689A4201D11A4A00E020
:101420001A4A104646F0807104F044FB21E01F493F
:10143000206888421DD106F48000D0B9114928687F
:10144000884216D02A68B2F1A04F03D00B462A6812
:101450009A4201D10C4A00E00C4A104646F4800141
:1014600004F028FB05E0E86D40F02000E8654FF04F
:10147000010A00BF002085F8580000BF504671E502
:1014800000000880000100500003005000070050D9
:10149000000021C31000C090000600505000002042
:1014A000400D0300000052C700050050000084CB2F
:1014B00070477047704700002DE9F84304464FF02D
:1014C00000080020009014B90120BDE8F88360698D
:1014D00020B194F82400012800D100BFE06D30B99C
:1014E000204600F045F90020206684F85800206866
:1014F0008168C1F3407131B120688168914A11401F
:10150000816000BF00BF206804F0A0FAB0B9206875
:1015100081688D4A114041F08051816000BF8B4845
:1015200000688B49B0FBF1F0401C4000009002E0E5
:101530000098401E009000980028F9D1206804F01F
:1015400085FA48B9E06D40F01000E065206E40F08B
:10155000010020664FF00108206804F07CFA06467E
:10156000E06D00F0100000287ED1002EFCD1E06D6F
:1015700020F4807040F00200E065206804F05CFA1E
:1015800088BB2068B0F1A04F03D072492068884220
:1015900001D1714800E071486F4988420AD14FF08B
:1015A000A04004F049FA81466A4804F045FA49EA45
:1015B00000000DE06A4804F03FFA8146694804F0F3
:1015C0003BFA49EA0009684804F036FA49EA0000A3
:1015D00048B92268B2F1A04F03D05E4B22689A420C
:1015E00002D15D4A01E009E05C4A10466168826808
:1015F00022F47C120A43826000BF00BF607FE16B6F
:1016000041EA4030E1680843A168084394F8241097
:1016100040EA014594F82400012803D1208D401EA2
:1016200045EA4045E06A28B1A08D00F47870216B4E
:10163000084305432068C0684C4908402843216896
:10164000C8602068006920F04060616B0843216831
:101650000861206804F0EBF90746EEBBE7BB207F8A
:10166000002141EA803100E064E094F8380041EA6A
:1016700040052068C06844F202018843284321687D
:10168000C860206980B12068006940F4803021681A
:1016900008612068D0F8C0006FF30D00216908438D
:1016A0002168C1F8C0000DE02068006920F4803096
:1016B000216808612068D0F8C0006FF30D00216830
:1016C000C1F8C00094F84000012813D1606C40F0CC
:1016D0000101A06C084300E012E0E16C0843216DB9
:1016E00008432168096940F2FC729143084321686C
:1016F000086105E02068006920F0010021680861A8
:101700006069012809D12068006B20F00F00216A70
:10171000491E08432168086305E02068006B20F03B
:101720000F0021680863E06D20F0020040F0010026
:10173000E06505E0E06D40F01000E0654FF0010865
:101740004046C2E6C0FFFF5FC0FFFF7F50000020A1
:10175000400D03000001005000030050000700503E
:101760000004005000050050000600500740F0FF44
:1017700010B59CB00446142117A8FEF795FD54211E
:1017800002A8FEF791FD2068B0F1A04F57D14FF4A9
:10179000004002908003139002A801F04FFC08B1B2
:1017A000FFF7ECFA55480068401C544908600846A9
:1017B000006801280DD100BF5148C06C40F40050B2
:1017C0004F49C8640846C06C00F40050019000BF47
:1017D00000BF00BF4A48C06C40F001004849C864DF
:1017E0000846C06C00F00100019000BF00BF01205E
:1017F0001790032018900020199017A94FF09040DF
:1018000000F094FB3F4840490860052048600021F3
:101810003D488160C16080210161490041618900CA
:1018200081612021C1610021016200F0B5FA08B197
:10183000FFF7A4FA00BF3448606584625BE0334977
:101840002068884257D1C00102908003139002A8FB
:1018500001F0F4FB08B1FFF791FA28480068401C3A
:10186000264908600846006801280DD100BF2448B9
:10187000C06C40F400502249C8640846C06C00F4B3
:101880000050019000BF00BF00BF1D48C06C40F079
:1018900001001B49C8640846C06C00F001000190BB
:1018A00000BF00BF0220179003201890002019905D
:1018B00017A94FF0904000F039FB1248143014493A
:1018C000086024204860002111488160C1608021A7
:1018D000016149004161890081612021C1610021CC
:1018E000016200F059FA08B1FFF748FA00BF084852
:1018F0006065846200BF1CB010BD00000C000020B9
:101900000010024008000240500100200001005079
:10191000B00100202DE9F04104460F4690462168B1
:10192000B1F1A04F03D0484A2168914201D1474903
:1019300000E04749084604F06CF80646206804F0C9
:101940008AF800287CD100BF94F85800012802D101
:101950000220BDE8F081012084F8580000BF3D4915
:101960002068884201D1012000E0002020B91EB18A
:10197000052E01D0092E5DD12046FEF781FF0546D8
:10198000002D52D1E06D40F60161884340F4807033
:10199000E0652D492068884202D14FF0A04006E062
:1019A0002D492068884201D12C4800E02068216838
:1019B000884200D01EB9E06D20F48010E065E06D33
:1019C00000F4805020B1206E20F00600206601E077
:1019D000002020662248616DC8622248616D08635C
:1019E0002148616D48631C202168086000BF002009
:1019F00084F8580000BF2068406840F0100021685B
:101A000048602068C06840F001002168C860226812
:101A100002F1400143463A46606D00F025FA054662
:101A2000206804F02BF80CE00AE000BF002084F8E6
:101A3000580006E0012500BF002084F8580000E0AF
:101A40000225284685E700000001005000030050F1
:101A50000007005000060050000500500004005030
:101A6000C1070008710800085308000870B5034654
:101A70000C4600201F2104F001050DB9012022E0D1
:101A800000BF0D1EA1F1010106D001F01F060125C6
:101A9000B5402540002DF4D08AB1082A0BD0102A79
:101AA00005D0182A0CD1072900D301200AE0082903
:101AB00000D3012006E0102900D3012002E001E05C
:101AC000012000BF00BF40B91D686C611D68AD6892
:101AD00025F0180515431E68B56070BD10B50446A5
:101AE0000CB9012010BD607F20B90020207720466E
:101AF00000F036F802206077207948B9174821684D
:101B000048612068806820F018002168886007E03C
:101B10002046D4E90212FFF7A9FF08B10120E1E74E
:101B2000607920B94FF0FF302168086102E0216838
:101B3000206908612068806820F0600061690843BE
:101B4000216888602068806820F08000A1690843CF
:101B500021688860012060770020C3E7B71DC104B9
:101B600008B5094A016891420DD100BF0749896C47
:101B700041F48051054A91641146896C01F4805109
:101B8000009100BF00BF08BD0030024000100240BD
:101B90000146002091F82520022A03D00422CA63BE
:101BA000012027E00A68126822F00E020B681A6012
:101BB0008A6C126822F480728B6C1A600A68126850
:101BC00022F001020B681A6091F8442002F01F0312
:101BD00001229A400B6C5A60D1E913325A604A6D67
:101BE00042B14A6D126822F480724B6D1A60D1E9DD
:101BF00016325A60012281F8252000BF002281F8A8
:101C0000242000BF704770B50446002594F82500D5
:101C100002280BD00420E063012084F8250000BFD7
:101C2000002084F8240000BF012534E0206800680B
:101C300020F00E00216808602068006820F0010094
:101C400021680860A06C006820F48070A16C0860B6
:101C500094F8440000F01F0101208840216C486086
:101C6000D4E913104860606D40B1606D006820F4E5
:101C70008070616D0860D4E916104860012084F816
:101C8000250000BF002084F8240000BFA06B10B125
:101C90002046A16B8847284670BD70B50446206C6D
:101CA00005682068066894F8440000F01F010420CD
:101CB00088402840E0B106F00400C8B12068006800
:101CC00000F0200028B92068006820F00400216896
:101CD000086094F8440000F01F0104208840216C43
:101CE0004860206B002856D02046216B884752E080
:101CF00094F8440000F01F0102208840284018B3E7
:101D000006F0020000B32068006800F0200040B92F
:101D10002068006820F00A0021680860012084F82B
:101D2000250094F8440000F01F0102208840216C37
:101D3000486000BF002084F8240000BFE06A50B370
:101D40002046E16A884726E094F8440000F01F012D
:101D5000082088402840F0B106F00800D8B120687B
:101D6000006820F00E002168086094F8440000F03C
:101D70001F0101208840216C48600120E06384F845
:101D8000250000BF002084F8240000BF606B10B164
:101D90002046616B884770BD70B504460CB90120C0
:101DA00070BD2F49206888420BD22E492068401A06
:101DB0001421B0FBF1F0800060642A4808382064E8
:101DC0000AE027492068401A1421B0FBF1F0800096
:101DD0006064234808382064022084F825002068C5
:101DE000056847F6F0708543D4E90201084321698C
:101DF000084361690843A1690843E1690843216A0E
:101E000008430543206805602046FEF717FEA068DA
:101E1000B0F5804F01D1002060602079A16C08608E
:101E2000D4E913104860606860B16068042809D87C
:101E30002046FEF725FE0020616D0860D4E91610EB
:101E4000486003E000206065A065E0650020E06375
:101E5000012084F82500002084F8240000BF9FE7BB
:101E600008040240080002402DE9F04104460D46F6
:101E700016461F464FF0000800BF94F824000128C2
:101E800002D10220BDE8F081012084F8240000BFC7
:101E900094F8250001283FD1022084F82500002075
:101EA000E0632068006820F00100216808603B467C
:101EB000324629462046FEF7F5FD206B30B12068FA
:101EC000006840F00E00216808600BE020680068A0
:101ED00020F00400216808602068006840F00A00D3
:101EE00021680860A06C006800F4803028B1A06C04
:101EF000006840F48070A16C0860606D28B1606D6E
:101F0000006840F48070616D08602068006840F0EF
:101F100001002168086006E000BF002084F824006A
:101F200000BF4FF002084046ACE7000078B502461B
:101F30000B460021CAE001268E401D6805EA060412
:101F4000002C73D01D7905F00305012D04D01D79F7
:101F500005F00305022D13D190684E000325B5400E
:101F6000A8434E00DD68B5402843906050680125C5
:101F70008D40A8431D79C5F300158D40284350605E
:101F80001D7905F00305032D09D0D0684E00032507
:101F9000B540A8434E009D68B5402843D0601D79E8
:101FA00005F00305022D13D1CE0802F1200555F8E6
:101FB00026004D07EE0E0F25B540A8434E07F60E3E
:101FC0001D69B5402843CE0802F1200545F82600DA
:101FD00010684E000325B540A8431D7905F00305A0
:101FE0004E00B540284310605D6805F44035002D73
:101FF0006BD000BF384D2D6E45F00105364E35666D
:1020000035462D6E05F00105009500BF00BF4FEA73
:10201000B6358E0855F826008D072E0F0F25B540D2
:10202000A843B2F1904F02D100251AE04DE02B4DAC
:10203000AA4201D1012514E0294DAA4201D102256D
:102040000FE0284DAA4201D103250AE0264DAA42FD
:1020500001D1042505E0254DAA4201D1052500E066
:1020600006258E07360FB5402843214D8E0845F8CA
:102070002600204D2868A0435D6805F4801505B151
:1020800020431C4D28602D1D2868A0435D6805F481
:10209000001505B12043174D2D1D2860154D2D1F2E
:1020A0002868A0435D6805F4003505B12043114D53
:1020B0002D1F28602D1F2868A0435D6805F480351A
:1020C00005B120430B4D083D2860491C1D68CD40DB
:1020D000002D7FF430AF78BD0010024000040048AE
:1020E00000080048000C0048001000480014004898
:1020F00008000140080401400AB1816100E08162EA
:102100007047000001480068704700002800002068
:1021100010B5034693F8DD00022800D110BD00BFC2
:1021200093F8DC00012801D10220F7E7012083F8B1
:10213000DC0000BF022083F8DD00202945D00CDC44
:10214000042927D004DC012912D002296AD118E021
:10215000082928D0102965D12EE040293ED08029B9
:1021600045D0B1F5807F4BD0B1F5007F5AD150E01A
:102170001868D0F8000462F304001C68C4F8000476
:1021800059E01868D0F8000462F38A101C68C4F89B
:10219000000450E01868D0F8000462F310301C68A6
:1021A000C4F8000447E01868D0F8000462F39640D1
:1021B0001C68C4F800043EE01868D0F8000462F31C
:1021C0001C601C68C4F8000435E01868D0F80404EA
:1021D00062F304001C68C4F804042CE01868D0F80A
:1021E000040462F38A101C68C4F8040423E018682D
:1021F000D0F8040462F310301C68C4F804041AE038
:102200001868D0F8040462F396401C68C4F804040B
:1022100011E01868D0F8040462F31C601C68C4F86C
:10222000040408E0072083F8DD0000BF002083F8E5
:10223000DC0000BF00BF00BF93F8DD00072801D11C
:1022400001206BE7012083F8DD0000BF002083F848
:10225000DC0000BF00BF61E7F0B503460D4693F810
:10226000DD00022800D1F0BD00BF93F8DC0001289A
:1022700001D10220F7E7012083F8DC0000BF022033
:1022800083F8DD001868D0F880431868D0F8FC1394
:10229000202D63D00CDC042D2DD004DC012D12D0B8
:1022A000022D77D11AE0082D32D0102DF9D13CE063
:1022B000402D73D0802D6FD0B5F5807F6DD0B5F5F2
:1022C000007FEED1BFE024F4E024106800F4E020A9
:1022D000044356681868C0F8BC63DAE024F460145C
:1022E0004FF46016106806EAC00004435668186888
:1022F000C0F8C063CDE024F0E0744FF0E0761068E1
:1023000006EA8010044356681868C0F8C463C0E049
:1023100024F060644FF06066106806EA40200443D1
:1023200056681868C0F8C863B3E021F00701106868
:10233000C0F3024001431868D0F8F80320F01F06EC
:102340001868C0F8F8631868D0F8F803167906F032
:102350001F0630431E68C6F8F8039AE021F07001AA
:102360007026106806EA103001431868D0F8F803A8
:1023700020F478761868C0F8F8631868D0F8F80385
:102380004FF47877566807EA461630431E68C6F859
:10239000F8037EE074E001E01DE039E021F4E06143
:1023A0004FF4E066106806EA102001431868D0F880
:1023B000F80320F4F8461868C0F8F8631868D0F8F5
:1023C000F8034FF4F847566807EA862630431E683C
:1023D000C6F8F8035DE021F4E0414FF4E0461068F0
:1023E00006EA101001431868D0F8F80320F4F81634
:1023F0001868C0F8F8631868D0F8F80396884FF4A6
:10240000F81707EA064630431E68C6F8F80340E0AE
:1024100021F4E021106800F4E02001431868D0F8AE
:10242000F80320F078761868C0F8F8631868D0F8D8
:10243000F80396884FF0787707EA465630431E68CF
:10244000C6F8F80325E021F4E0014FF4E006106837
:1024500006EA001001431868D0F8F80320F0F846A7
:102460001868C0F8F8631868D0F8F80316794FF0C8
:10247000F84707EA866630431E68C6F8F80308E0A6
:10248000072083F8DD0000BF002083F8DC0000BFD8
:1024900000BF00BF93F8DD00072801D10120E2E66C
:1024A000102D03D21868C0F8804302E01868C0F805
:1024B000FC13012083F8DD0000BF002083F8DC005E
:1024C00000BF00BFCFE670477047704770B52DED75
:1024D000028B06460C46012C47D12548007800287F
:1024E00043D00020224908702249098800EE101AC2
:1024F000B8EE400ADFED200A20EE200ABCEEC00A4A
:1025000010EE101A88B205F083F9C0B1194800889E
:1025100000EE100AB8EE400ADFED180A80EE201A2D
:1025200011EE105A2846FDF7E0FF41EC180B53EC72
:10253000182B13A005F0A2F9BDEC028B70BD0D485D
:10254000008800EE100AB8EE400ADFED0C0A80EEBB
:10255000201A11EE105A2846FDF7C7FF41EC180B60
:1025600053EC182B0FA005F089F900BFE4E7000039
:1025700012000020100000209A99D93F0000C842A4
:102580000A20E8AEBEE5AE9AE58DA0E7A9BAE6AFAF
:102590009420252E326620252520E5A4B1E8B4A597
:1025A0000A0000000A20E8AEBEE5AE9AE58DA0E77D
:1025B000A9BAE6AF9420252E326620252520E6888C
:1025C00090E58A9F0A000000704770477047704787
:1025D0007047024600BF92F8DC00012801D10220BA
:1025E0007047012082F8DC0000BF022082F8DD0085
:1025F000481C80B91068D0F8CC0320F002031068A2
:10260000C0F8CC331068D0F8CC0340F00103106858
:10261000C0F8CC3318E01068D0F8CC0340F00203C7
:102620001068C0F8CC331068D0F8CC0320F00C0050
:1026300008431368C3F8CC031068D0F8CC0340F00B
:1026400001031068C0F8CC33012082F8DD000020BF
:10265000C6E77047704770477047704770477047CC
:1026600070B505460C46FF2C03D1284602F080FDCC
:1026700009E0062C03D1284602F041FE03E0214682
:10268000284602F04CFF70BDF8B504460CB9012095
:10269000F8BD0220E03404F8030C002020606060E4
:1026A000A060E06020616061A061E03C207A00F001
:1026B000010008B33549206888420DD100BF344875
:1026C000006E40F08060324908660846006E00F0F7
:1026D0008060009000BF00BF2068066826F4404676
:1026E000208A00F44040064326F44056A08A00F4B5
:1026F0004050064320680660204600F04BF8207AE0
:1027000000F0020048B12068066826F44076A089EF
:1027100000F44070064320680660012084F8DD0064
:1027200000BF002084F8DC0000BF002529E0002164
:10273000C5EBC50204F1180040F82210C5EBC50234
:1027400000EB82004160C5EBC50204F1180000EB0C
:1027500082008160C5EBC50204F1180000EB820025
:10276000C160C5EBC50204F1180000EB82000161F5
:10277000C5EBC50204F1180000EB82008161681C02
:10278000C5B2062DD3D9002082E7000000680140C1
:102790000010024038B504461149206888421DD116
:1027A00000BF1048006E40F080600E490866084681
:1027B000006E00F08060009000BF00BF0022114654
:1027C000432000F053FB432000F03CFB0022114665
:1027D000452000F04BFB452000F034FB38BD0000E5
:1027E000006801400010024010B586B00446142174
:1027F00001A8FDF759FD1149206888421CD100BF8E
:102800000F48C06C40F001000D49C8640846C06C18
:1028100000F00100009000BF00BF88150190022069
:10282000029000200390032004900D20059001A940
:102830004FF09040FFF77AFB06B010BD00680140F2
:1028400000100240704770477047704770B50446EB
:102850000D46FFF757FC06460CE0681C50B1FFF729
:1028600051FC801BA84200D825B9072084F8DD0060
:10287000032070BD2068D0F88803C0F30040002812
:10288000EBD0012084F8DD0000BF002084F8DC00DC
:1028900000BF00BFEDE7704770477047704770B5E5
:1028A00004460D46164694F8DD00022800D170BD9E
:1028B000022084F8DD00062D04D13146204602F0C6
:1028C000BBFC04E032462946204602F01FFF0120EF
:1028D00084F8DD000020EAE730B5044694F8DD0016
:1028E000022800D130BD00BF94F8DC00012801D1DE
:1028F0000220F7E7012084F8DC0000BF022084F802
:10290000DD00062928D1012A06D0022A08D0042A8F
:102910000AD0082A10D10BE018682568E86114E095
:1029200018682568686210E018682568A8620CE0DD
:1029300018682568E86208E0072084F8DD0000BF19
:10294000002084F8DC0000BF00BF00BF94F8DD0069
:1029500007287DD10120C5E7012A06D0022A0BD025
:10296000042A4CD0082A74D150E01D6820688030B9
:1029700000EBC110C5619AE01D682068803000EB53
:10298000C1104562586868B32068803000EBC11000
:10299000006820F440552068803000EBC1100560CD
:1029A0002068803000EBC11000685D68284325680E
:1029B000803505EBC11528605868B0F5005F06D179
:1029C0009D682068803000EBC110C56116E0586832
:1029D000B0F5405F12D19D682068803000EBC110D7
:1029E00085620BE02068803000EBC110006820F4A5
:1029F00040502568803505EBC115286057E01D68FB
:102A00002068803000EBC110856250E01D682068AE
:102A1000803000EBC110C562586888B320688030F0
:102A200000EBC110006820F440452068803000EBC6
:102A3000C11005602068803000EBC11000685D683F
:102A400040EA85052068803000EBC110056001E098
:102A500034E023E05868B0F5005F06D19D68206837
:102A6000803000EBC110C56117E05868B0F5405FD9
:102A700013D19D682068803000EBC11085620CE0A6
:102A8000FFE72068803000EBC110006820F4404070
:102A90002568803505EBC115286008E0072084F81B
:102AA000DD0000BF002084F8DC0000BF00BF00BFD5
:102AB00094F8DD00072801D1012013E7012084F8F4
:102AC000DD0000BF002084F8DC0000BF00BF09E784
:102AD000024600BF92F8DC00012801D102207047B5
:102AE000012082F8DC0000BF022082F8DD001068BF
:102AF0000068084313681860012082F8DD0000BFF9
:102B0000002082F8DC0000BF00BFE8E730B50246D5
:102B10000B4600BF92F8DC00012801D1022030BD35
:102B2000012082F8DC0000BF022082F8DD0010687E
:102B3000D0F89003546820431468C4F8900303F459
:102B4000803030B11068C468D2F8C80004431068FF
:102B5000C460002118E0154850F82100184088B1E1
:102B60001068803000EBC110C068C1EBC10502F1F4
:102B7000180404EB8504A46820431468803404EB33
:102B8000C114E060481CC1B20629E4D31068006893
:102B9000184314682060012082F8DD0000BF002087
:102BA00082F8DC0000BF00BFB9E70000340000205D
:102BB0002DE9F04104460D4616461F4694F8DD0007
:102BC000022801D1BDE8F08100BF94F8DC000128A3
:102BD00001D10220F6E7012084F8DC0000BF0220CA
:102BE00084F8DD003B4632462946204602F014FCBC
:102BF000012084F8DD0000BF002084F8DC0000BF65
:102C000000BFDFE7024600BF92F8DC00012801D1D7
:102C100002207047012082F8DC0000BF022082F809
:102C2000DD001068D0F8940308431368C3F89403D8
:102C3000012082F8DD0000BF002082F8DC0000BF28
:102C400000BFE6E770B504460D46164694F8DD0071
:102C5000022800D170BD00BF94F8DC00012801D12A
:102C60000220F7E7012084F8DC0000BF022084F88E
:102C7000DD00062D04D13146204602F0F1FA04E0D1
:102C800032462946204602F061FDC5EBC50204F13B
:102C9000180000EB820031688160C5EBC50204F1C9
:102CA000180000EB82007168C160C5EBC50204F139
:102CB000180000EB8200B1680161C5EBC50204F1A8
:102CC000180000EB8200F1684161C5EBC50204F118
:102CD000180000EB8200316981612946204602F02C
:102CE000FDF9062D10D0F06A70B92068803000EB35
:102CF000C510006820F40070F16D40EA41212068A1
:102D0000803000EBC5100160012084F8DD0000BFB9
:102D1000002084F8DC0000BF00BF9BE770B50446CC
:102D20000D46164694F8DD00022800D170BD00BFA4
:102D300094F8DC00012801D10220F7E7012084F893
:102D4000DC0000BF022084F8DD0032462946204620
:102D500002F022FE2946204602F0C0F9012084F844
:102D6000DD0000BF002084F8DC0000BF00BFDDE70D
:102D7000034800680349096808440149086070472E
:102D8000280000203000002010B50024032000F0AF
:102D9000ABF80F2000F008F808B1012401E000F0C2
:102DA0002FF8204610BD000070B5044600251148DC
:102DB0000068D8B10F4800684FF47A71B1FBF0F0A9
:102DC0000D490968B1FBF0F6304600F079FF58B9BB
:102DD000102C07D200222146501E00F047F8074869
:102DE000046004E0012502E0012500E001252846F9
:102DF00070BD000030000020500000202C0000209A
:102E000008B500BF0E48006E40F001000C4908668E
:102E10000846006E00F00100009000BF00BF00BF38
:102E20000846806D40F0805088650846806D00F04F
:102E30008050009000BF00BF00F0F6F808BD000011
:102E4000001002400146084600280DDB00BF00BF0D
:102E500000F01F0301229A4043099B0003F1E02385
:102E6000C3F8002100BF00BF00BF70472DE9F05F2D
:102E700080460D46164604F011FD074639462A469F
:102E8000334601F00700C0F1070ABAF1040F02D976
:102E90004FF0040A01E0C0F1070AD14600F1040A2C
:102EA000BAF1070F02D24FF0000A01E0A0F1030AC5
:102EB000D4464FF0010A0AFA09FAAAF1010A0AEA0D
:102EC000020A0AFA0CFA4FF0010B0BFA0CFBABF1F9
:102ED000010B0BEA030B4AEA0B042146404604F0BF
:102EE000E5FCBDE8F09F000000BF00F00702064BC4
:102EF00019684FF6FF031940044B0B4343EA0221C4
:102F0000014B196000BF70470CED00E00000FA05AE
:102F100002468ABB4148006800F4C060B0F5806F8B
:102F20002BD13E488030006820F480703B4BC3F8C2
:102F300080001846006820F4C06040F400701860FB
:102F40003748006832235843364BB0FBF3F0411C3E
:102F500000E0491E3148406900F48060B0F5806FA0
:102F600001D10029F5D12D48406900F48060B0F509
:102F7000806F51D10320704708E0284880300068F6
:102F800020F48070254BC3F8800045E0B2F5007F47
:102F90003AD12248006800F4C060B0F5806F2AD1B1
:102FA0001E488030006840F480701C4BC3F88000DD
:102FB0001846006820F4C06040F40070186018489B
:102FC000006832235843174BB0FBF3F0411C00E07C
:102FD000491E1248406900F48060B0F5806F01D14D
:102FE0000029F5D10D48406900F48060B0F5806F8C
:102FF00012D10320BFE709488030006840F4807098
:10300000064BC3F8800007E00448006820F4C06065
:1030100040F48060014B18600020ACE70070004075
:103020005000002040420F000348806840F4804078
:103030000149886070470000007000402DE9F843A6
:1030400004460027B846206800F40020B0F5002FA1
:1030500073D1B946FD48806D00F0805078B900BF4B
:10306000FA48806D40F08050F84988650846806DC8
:1030700000F08050009000BF00BF4FF00109F448FD
:10308000006840F48070F2490860FFF73BF806469C
:1030900006E0FFF737F8801B022801D9032705E077
:1030A000EB48006800F480700028F2D000BF002FC9
:1030B00046D1E6489030006800F44075CDB1206DEF
:1030C000A84216D0E1489030006820F44075DF48EF
:1030D000D0F8900040F48030DC49C1F890000846F8
:1030E000D0F8900020F48030C1F890000846C0F875
:1030F000905005F00100A0B1FFF704F8064608E083
:10310000FFF700F8801B41F28831884201D903277C
:1031100006E0CE489030006800F002000028EFD0B2
:1031200000BF5FB9C9489030006820F44070216D3D
:103130000843C649C1F8900003E00CE0B84600E03F
:10314000B846B9F1010F05D1C048806D20F080501C
:10315000BE49886500BF207800F0010048B1BB4837
:103160008830006820F0030061680843B749C1F85F
:103170008800207800F00200022809D1B348883086
:10318000006820F00C00A1680843B049C1F888002D
:10319000207800F00400042809D1AC488830006889
:1031A00020F03000E1680843A849C1F88800207881
:1031B00000F00800082809D1A4488830006820F0F1
:1031C000C00021690843A149C1F88800207800F0B7
:1031D0001000102809D19D488830006820F4407004
:1031E000616908439949C1F88800207800F02000FF
:1031F000202809D195488830006820F44060A169F2
:1032000008439249C1F88800207800F04000402827
:1032100009D18E488830006820F44050E1690843A5
:103220008A49C1F88800207800F08000802809D100
:1032300086488830006820F44040216A084383496A
:10324000C1F88800208800F48070B0F5807F09D133
:103250007E488830006820F44030616A08437B492A
:10326000C1F88800206800F40030B0F5003F09D1B3
:1032700076489C30006820F00300A16A0843734937
:10328000C1F89C00208800F40070B0F5007F09D1DF
:103290006E488830006820F44020E16A08436B499A
:1032A000C1F88800208800F48060B0F5806F13D1E9
:1032B00066488830006820F44010216B0843634959
:1032C00088310860206BB0F5801F05D15F48C06869
:1032D00040F480105D49C860208800F40060B0F5BB
:1032E000006F13D159488830006820F44000616BAA
:1032F0000843564988310860606BB0F5800F05D1EE
:103300005248C06840F480105049C860208800F4DA
:103310008050B0F5805F13D14C488830006820F0B1
:103320004070A16B0843494988310860A06BB0F137
:10333000807F05D14548C06840F480104349C8608B
:10334000208800F40050B0F5005F13D13F4888306A
:10335000006820F04060E16B08433C498831086018
:10336000E06BB0F1006F05D13848C06840F48010C0
:103370003649C860208800F48040B0F5804F13D1F2
:1033800032488830006820F04060216C08432F49A3
:1033900088310860206CB0F1006F05D12B48C068FF
:1033A00040F480102949C860208800F40040B0F53E
:1033B000004F13D125488830006820F04050616CE0
:1033C0000843224988310860606CB0F1805F05D104
:1033D0001E48C06840F480301C49C860206800F472
:1033E0008030B0F5803F13D118488830006820F055
:1033F0004040A16C0843154988310860A06CB0F1C9
:10340000804F05D11148C06840F480300F49C86032
:10341000206800F48020B0F5802F13D10B489C3039
:10342000006820F44010E16C084308499C310860B2
:10343000E06CB0F5001F05D10448C06840F480106E
:103440000249C8604046BDE8F88300000010024011
:10345000007000402DE9F04104460D464FF0000891
:1034600014B90120BDE8F0817D48006800F00F002C
:10347000A8420ED27A48006820F00F00284378490D
:1034800008600846006800F00F00A84201D0012043
:10349000E8E7207800F00100002864D06068032885
:1034A00023D17048006800F0007008B90120D9E706
:1034B00003F0CEF806466C48864237D969488068E2
:1034C00000F0F00030B1207800F0020002282DD189
:1034D000A06858BB6348806820F0F00040F080008E
:1034E000604988604FF0800820E06068022806D1BB
:1034F0005C48006800F4003040B90120B2E7594848
:10350000006800F4806008B90120ABE700F0DEF845
:1035100006465548864209D95248806820F0F00096
:1035200040F080004F4988604FF080084D48806827
:1035300020F00300616808434A498860FEF7E2FD15
:10354000074608E0FEF7DEFDC01B41F288318842E5
:1035500001D9032086E74348806800F00C006168C9
:10356000B0EB810FEED1207800F00200022820D1CC
:10357000207800F00400042805D13A48806840F41F
:10358000E06038498860207800F00800082807D1FA
:103590003448806820F4605040F4E060314988602D
:1035A0003048806820F0F000A16808432D49886009
:1035B00008E0B8F1800F05D12A48806820F0F000BB
:1035C000284988602648006800F00F00A84219D9F1
:1035D0002348006820F00F00284321490860FEF7C7
:1035E00091FD074608E0FEF78DFDC01B41F28831D2
:1035F000884201D9032035E71948006800F00F0020
:10360000A842F0D1207800F00400042807D1154822
:10361000806820F4E060E1680843124988602078FF
:1036200000F00800082808D10E48806820F4605097
:10363000216940EAC1000B49886000F047F8094958
:103640008968C1F30311094A515C01F01F01C840A8
:103650000749086007480068FFF7A6FB02E700007B
:10366000002002400010024000B4C404F0820008B0
:10367000500000202C000020014800687047000026
:103680005000002000B5FFF7F7FF05498968C1F336
:103690000221044A515C01F01F01C84000BD000036
:1036A000001002400083000800B5FFF7E5FF054960
:1036B0008968C1F3C221044A515C01F01F01C8406E
:1036C00000BD0000001002400083000870B5224DCC
:1036D000AD6805F00C05042D01D120483AE01E4DDF
:1036E000AD6805F00C05082D01D11D4832E01A4DDA
:1036F000AD6805F00C050C2D2BD1174DED6805F0CC
:103700000304154DED68C5F303156A1C022C0CD09B
:10371000032C09D1124DB5FBF2F50F4EF668C6F336
:10372000062605FB06F10AE000BF0C4DB5FBF2F5DD
:10373000094EF668C6F3062605FB06F100BF00BF7A
:10374000054DED68C5F341656D1C6B00B1FBF3F0F1
:1037500000E0002070BD0000001002400024F400D2
:1037600000366E012DE9F843044614B90120BDE886
:10377000F883207800F00100002865D0FC488068BC
:1037800000F00C07FA48C06800F003060C2F01D1C6
:10379000032E01D0082F0AD1F548006800F400304C
:1037A000002851D0606800284ED10120DFE700BF1B
:1037B0006068B0F5803F06D1ED48006840F4803085
:1037C000EB4908601AE06068B0F5A02F0BD1E8481B
:1037D000006840F48020E64908600846006840F42C
:1037E000803008600AE0E248006820F48030E04958
:1037F00008600846006820F48020086000BF606808
:1038000088B1FEF77FFC054606E0FEF77BFC401B17
:10381000642801D90320AAE7D548006800F40030E5
:103820000028F2D010E0FEF76DFC054606E0FEF73A
:1038300069FC401B642801D9032098E7CC48006844
:1038400000F400300028F2D1207800F002000228B5
:1038500060D1C748806800F00C07C548C06800F018
:1038600003060C2F01D1022E01D0042F18D1C0481D
:10387000006800F4806018B1E06808B9012076E7BC
:10388000BB48406820F0FE40217C40EA0160B84916
:103890004860B8480068FFF787FA18B3012066E768
:1038A000E06800B3B248006840F48070B049086036
:1038B000FEF728FC054606E0FEF724FC401B022824
:1038C00001D9032053E7AA48006800F4806000286B
:1038D000F2D0A748406820F0FE40217C40EA016019
:1038E000A349486016E0A248006820F48070A0490F
:1038F0000860FEF707FC054606E0FEF703FC401BE8
:10390000022801D9032032E79948006800F480605A
:103910000028F2D1207800F00800082836D160692C
:10392000D0B193489430006840F001009049C1F84C
:103930009400FEF7E7FB054606E0FEF7E3FB401BBD
:10394000022801D9032012E789489430006800F06A
:1039500002000028F1D019E085489430006820F07A
:1039600001008349C1F89400FEF7CCFB054606E050
:10397000FEF7C8FB401B022801D90320F7E67C486C
:103980009430006800F002000028F1D1207800F0A7
:103990000400042872D14FF000087548806D0121A1
:1039A00021EA107078B100BF7148806D40F08050FE
:1039B0006F4988650846806D00F08050009000BF18
:1039C00000BF4FF001086C48006800F48070B0B987
:1039D0006948006840F4807067490860FEF792FB10
:1039E000054606E0FEF78EFB401B022801D90320A6
:1039F000BDE66148006800F480700028F2D000BF86
:103A0000A068012808D15A489030006840F00100B1
:103A10005749C1F8900021E0A06805280FD154480B
:103A20009030006840F004005149C1F89000084609
:103A3000D0F8900040F00100C1F890000EE04C4832
:103A40009030006820F001004949C1F89000084614
:103A5000D0F8900020F00400C1F8900000BFA068EA
:103A6000A8B1FEF74FFB054609E0FEF74BFB401BF4
:103A700041F28831884202D9032078E625E03C48AB
:103A80009030006800F002000028EED013E0FEF74E
:103A900039FB054608E0FEF735FB401B41F2883153
:103AA000884201D9032062E631489030006800F076
:103AB00002000028EFD1B8F1010F05D12C48806D2C
:103AC00020F080502A49886500BF207800F020004F
:103AD000202836D1A069D0B125489830006840F040
:103AE00001002349C1F89800FEF70CFB054606E0EB
:103AF000FEF708FB401B022801D9032037E61C48CB
:103B00009830006800F002000028F1D019E0184851
:103B10009830006820F001001549C1F89800FEF7C0
:103B2000F1FA054606E0FEF7EDFA401B022801D93E
:103B300003201CE60E489830006800F002000028C0
:103B4000F1D1E069002860D00948806800F00C00DD
:103B50000C287AD0E069022858D10548006820F086
:103B6000807003490860FEF7CDFA05460DE00000BD
:103B7000001002402C00002000700040FEF7C2FA46
:103B8000401B022801D90320F1E54A48006800F0F3
:103B900000700028F2D1D4E90810401E41EA00115B
:103BA000A06A41EA0021208E0122C2EB500041EAC6
:103BB00040513420005DC2EB500041EA40612C20AE
:103BC000005D41EAC0603B49C9683B4A1140084377
:103BD0003849C8600846006840F0807008600846B0
:103BE000C06840F08070C860FEF78CFA054606E0B9
:103BF000FEF788FA401B022801D90320B7E52D48BB
:103C0000006800F000700028F2D051E029480068F8
:103C100020F0807027490860FEF774FA054606E038
:103C2000FEF770FA401B022801D903209FE52148C6
:103C3000006800F000700028F2D11E48C0681F49DB
:103C400008401C49C86033E0FFE7E069012800D163
:103C50008DE51848C66806F00301206A814225D127
:103C600006F0F001606A401EB1EB001F1ED106F4A1
:103C7000FE41A06AB1EB002F18D106F078412C204C
:103C8000005DB1EBC06F11D106F4C001208E01229E
:103C9000C2EB5000B1EB405F08D106F0C0613420A8
:103CA000005DC2EB5000B1EB406F01D001205EE53A
:103CB00000205CE5001002400C809F01FCFFEEFE3E
:103CC00070B504462546681EB0F1807F01D30120FF
:103CD0000FE0681E4FF0E02148610F214FF0FF30E8
:103CE00003F0E4FD00204FF0E02188610720086127
:103CF000002070BD7047704770477047704770472D
:103D000030B502460B4600BF92F83C00012801D1B5
:103D1000022030BD012082F83C0000BF022082F862
:103D20003D001068416810688468234D1068A842FF
:103D300007D0224D1068A84203D0214D1068A84238
:103D400003D121F47001586801431E4801401868EE
:103D5000014310684160184D1068A8421BD01068DC
:103D6000B0F1804F17D0184D1068A84213D0174DEE
:103D70001068A8420FD0164D1068A8420BD00F4D06
:103D80001068A84207D0134D1068A84203D00C4D0C
:103D90001068A84205D124F0800498680443106894
:103DA0008460012082F83D0000BF002082F83C00C2
:103DB00000BF00BFADE70000002C0140003401400F
:103DC000005001408FFFFFFD00040040000800404C
:103DD000000C004000400140704710B504460CB98B
:103DE000012010BD94F83D0028B9002084F83C0063
:103DF000204600F029F8022084F83D00211D2068AB
:103E000002F022FF012084F8480000BF84F83E0041
:103E100001213F20015540200155412001554220FC
:103E200001554320015500BF00BF012084F8440024
:103E300045200155462001554720015500BF01206E
:103E400084F83D000020CCE738B504460D492068D1
:103E5000884215D100BF0C48006E40F400600A494A
:103E600008660846006E00F40060009000BF00BFC6
:103E7000002211461920FEF7F9FF1920FEF7E2FF94
:103E800038BD0000002C014000100240014691F8AE
:103E90003D00012801D001207047022081F83D003B
:103EA0000868C06840F001000B68D8601C4B0868C7
:103EB00098421BD00868B0F1804F17D0194B0868A2
:103EC000984213D0184B086898420FD0174B0868D7
:103ED00098420BD0164B0868984207D0154B0868DB
:103EE000984203D0144B0868984210D10868806843
:103EF000124B00EA0302062A0FD0B2F5803F0CD025
:103F00000868006840F001000B68186005E0086868
:103F1000006840F001000B6818600020BCE700005A
:103F2000002C01400004004000080040000C00404C
:103F300000340140004001400050014007000100F2
:103F40002DE9F04104460D46002700BF94F83C00DF
:103F5000012802D10220BDE8F081012084F83C0054
:103F600000BF022084F83D00206886684248064071
:103F700026F47F46206886602868B0F5005F33D05D
:103F800015DC402851D008DC002858D0102857D024
:103F9000202856D0302862D154E0502831D06028F3
:103FA00039D0702813D0B0F5805F58D10EE000F002
:103FB0000F01002953D10011A0F5803008284ED2FE
:103FC000DFE800F0414243444546474849E0D5E92F
:103FD00002136A68206802F0AFFE2068866846F027
:103FE0007706206886603CE0D5E902136A6820689D
:103FF00002F0A2FE2068806840F48040216888605A
:104000002FE0EA686968206802F0AEFE502120685F
:1040100002F09EFE25E0EA686968206802F0B7FEBB
:104020006021206802F094FE1BE0EA68696820685D
:1040300002F09AFE4021206802F08AFE11E000BFE3
:1040400000BF00BF00BF00BF00BF00BF00BF00BF78
:1040500000BF00BF2968206802F07AFE01E0012756
:1040600000BF00BF012084F83D0000BF002084F89D
:104070003C0000BF38466EE788FFCEFF704770B542
:1040800004462068C6682068056905F00200022819
:1040900019D106F00200022815D1401F21680861DD
:1040A000012020772068806900F0030018B12046C5
:1040B000FFF7E4FF05E0204600F0F1F8204600F0AD
:1040C000EFF80020207705F00400042819D106F04D
:1040D0000400042815D1C04321680861022020771C
:1040E0002068806900F4407018B12046FFF7C6FFD1
:1040F00005E0204600F0D3F8204600F0D1F800207B
:10410000207705F00800082819D106F008000828D3
:1041100015D1C04321680861042020772068C06958
:1041200000F0030018B12046FFF7A8FF05E0204685
:1041300000F0B5F8204600F0B3F80020207705F035
:104140001000102819D106F01000102815D1C04316
:1041500021680861082020772068C06900F4407059
:1041600018B12046FFF78AFF05E0204600F097F8D7
:10417000204600F095F80020207705F0010048B1B6
:1041800006F0010030B16FF001002168086120469F
:1041900000F088F805F08000802804D005F4005075
:1041A000B0F5005F0AD106F08000802806D16FF4D8
:1041B0000250216808612046FFF79DFD05F48070DC
:1041C000B0F5807F0AD106F08000802806D16FF418
:1041D0008070216808612046FFF78CFD05F04000E3
:1041E000402809D106F04000402805D1C04321688D
:1041F0000861204600F062F805F02000202809D16F
:1042000006F02000202805D1C0432168086120461F
:10421000FFF772FD05F48010B0F5801F0BD106F496
:104220008010B0F5801F06D16FF4801021680861FE
:104230002046FFF763FD05F40010B0F5001F0BD119
:1042400006F40010B0F5001F06D16FF400102168CD
:1042500008612046FFF751FD05F48000B0F5800F9E
:104260000BD106F48000B0F5800F06D16FF480000A
:10427000216808612046FFF742FD05F40000B0F513
:10428000000F0BD106F40000B0F5000F06D16FF45B
:104290000000216808612046FFF79EFD70BD704751
:1042A0007047000010B5044603492068884201D1D8
:1042B000FCF744FD10BD0000002C01407047014692
:1042C00000BF91F88400012801D10220704701202D
:1042D00081F8840000BF2420C1F8880008680268C3
:1042E0000868006820F001000B68186022F0005296
:1042F00000204866086802602020C1F8880000BFDE
:10430000002081F8840000BF00BFDFE70146086F8E
:1043100070472DE9F04104460E461746D4F88C004C
:10432000202825D106B117B90120BDE8F081012070
:10433000E066002020673A463146204603F094F9B3
:1043400005469DB9E06E01280FD110202168086252
:1043500000BF00BF216851E8001F41F01000226833
:1043600042E800010029F5D100E001252846DCE7FC
:104370000220DAE72DE9F04105460C462846FFF712
:10438000C5FF0646022E02D00EB1BDE8F0813C49C1
:10439000286888420BD124B122463A493A4802F0B3
:1043A000CEF9642237493948FFF7B3FF65E0384951
:1043B000286888420BD124B122463649364802F09B
:1043C000BEF9642233493548FFF7A3FF55E034496D
:1043D0002868884218D18CB1062C01D9062000E04B
:1043E000204607462F4801460A68C0F806208988FB
:1043F00041813A462C49FBF73EFF00BF06222A497D
:104400002A48FFF786FF38E029492868884218D1F2
:104410008CB1062C01D9062000E02046074625482D
:1044200001460A68C0F80620898841813A46224937
:10443000FBF721FF00BF06221F492048FFF769FF55
:104440001BE01F492868884217D18CB1062C01D97E
:10445000062000E0204607461A4801460A68C0F8D0
:104460000620898841813A461749FBF704FF00BFBF
:10447000062215491548FFF74CFF00BF85E70000ED
:10448000003801406804002030050020801600201C
:1044900000440040CC040020440D002014170020EC
:1044A000004800407C03002013000020A8170020D3
:1044B000004C0040880300201900002058150020FF
:1044C00000500040940300201F000020EC15002045
:1044D000704770B504460D4600BF94F8840001286B
:1044E00001D1022070BD012084F8840000BF242087
:1044F000C4F88800206806682068006820F0010081
:10450000216808602068806820F060602843216886
:104510008860204602F060FC206806602020C4F815
:10452000880000BF002084F8840000BF00BFD9E7E6
:1045300070B504460D4600BF94F88400012801D1EF
:10454000022070BD012084F8840000BF2420C4F83C
:104550008800206806682068006820F00100216853
:1045600008602068806820F06040284321688860E7
:10457000204602F031FC206806602020C4F8880044
:1045800000BF002084F8840000BF00BFD9E7704757
:10459000704770472DE9F04704462068C5692068D8
:1045A00006682068876840F60F0005EA0009B9F13F
:1045B000000F0FD105F0200060B106F0200010B907
:1045C00007F0805030B1606F10B12046616F8847AE
:1045D000BDE8F087B9F1000F7ED0DF48384018B948
:1045E000DE4830400028F7D005F0010058B106F44D
:1045F000807040B1012021680862D4F8900040F03A
:104600000100C4F8900005F0020058B107F0010065
:1046100040B1022021680862D4F8900040F0040004
:10462000C4F8900005F0040058B107F0010040B153
:10463000042021680862D4F8900040F00200C4F819
:10464000900005F0080070B106F0200010B9C248D3
:10465000384040B1082021680862D4F8900040F04A
:104660000800C4F8900005F4006060B106F08060B6
:1046700048B14FF4006021680862D4F8900040F01F
:104680002000C4F89000D4F89000002852D005F023
:10469000200050B106F0200010B907F0805020B182
:1046A000606F10B12046616F8847D4F890A02068F1
:1046B000806800F04000402802D00AF0280070B363
:1046C000204602F07FFD2068806800F0400040280E
:1046D00026D100BF00BF00E02DE02168083151E87D
:1046E000001F21F040002168083141E80002002A43
:1046F000F1D100BFD4F8800068B19948D4F8801097
:104700008863D4F88000FDF77EFA98B1D4F8800071
:10471000816B88470EE02046FFF73BFF0AE003E08D
:104720002046FFF736FF05E02046FFF732FF002066
:10473000C4F890004CE7E06E012865D105F0100048
:10474000002861D006F010000028FAD0102021685F
:1047500008622068806800F0400040287AD1D4F8D0
:104760008000006840681FFA80F8B8F1000F5CD044
:10477000B4F85C00404558DDA4F85E80D4F88000B1
:104780000068006800F02000E8BB00BF00BF21689F
:1047900051E8001F21F48070226842E800010029DE
:1047A000F5D100BF00BF00BF2168083151E8001FEC
:1047B00021F001002168083141E80002002AF3D10C
:1047C00000BF00BF00BF2168083151E8001F21F081
:1047D00040002168083141E80002002AF3D100BFFF
:1047E0002020C4F88C000020E06600BF00BF2168D4
:1047F00051E8001F21F01000226842E80001002962
:10480000F5D100BF01E004E068E0D4F88000FDF7D6
:10481000BFF902202067B4F85C00B4F85E20801A6B
:1048200081B22046FFF7A6FD12E0B4F85C004045D7
:104830000ED1D4F880000068006800F02000202825
:1048400006D102202067B4F85C102046FFF792FDE5
:10485000BEE6FFE734F85C0F6188401A1FFA80F863
:1048600060885C3CC8B3B8F1000F36D000BF00BF11
:10487000216851E8001F21F49070226842E800018D
:104880000029F5D100BF00BF00BF2168083151E801
:10489000001F314AD24301EA02002168083141E891
:1048A0000002002AF1D100BF2020C4F88C000020B3
:1048B000E066606700BF00BF216851E8001F21F07B
:1048C0001000226842E800010029F5D100BF022053
:1048D000206741462046FFF74DFD79E605F480103C
:1048E00050B107F4800038B14FF48010216808629D
:1048F0002046FFF74DFE6BE605F0800058B106F04C
:10490000800010B907F4000028B1A06F10B1204654
:10491000A16F88475CE605F0400030B106F040002A
:1049200018B1204602F084FC52E605F4000030B1D4
:1049300006F0804018B12046FFF729FE48E605F052
:10494000807030B106F0004018B12046FFF7C0FD7E
:104950003EE600BF3CE6000001000010200100041C
:104960001370000810B504460CB9012010BDA069F1
:1049700000B100E000BFD4F8880028B9002084F816
:104980008400204600F02AF82420C4F8880020681B
:10499000006820F0010021680860A06A10B120467C
:1049A00002F046FA204602F07BFC012800D1DDE748
:1049B0002068406820F49040216848602068806842
:1049C00020F02A00216888602068006840F001001B
:1049D00021680860204602F0A7FAC7E710B59CB02E
:1049E0000446142117A8FBF75FFC542102A8FBF72B
:1049F0005BFCFE492068884274D1082002900020A8
:104A0000069002A8FEF71AFB08B1FCF7B7F900BF41
:104A1000F748806D40F40020F54988650846806DB0
:104A200000F40020019000BF00BF00BF0846C06C2A
:104A300040F00400C8640846C06C00F00400019017
:104A400000BF00BF4FF44060179002201890002074
:104A500019901A9005201B9017A9E648FDF766FAF1
:104A6000E548E64908601E2048600021E34881606F
:104A7000C160802101610021416181612021C1610A
:104A800000210162FDF788F908B1FCF777F900BF52
:104A9000DA48C4F88000846200BFD948D949086068
:104AA0001F2048601021D74881600021C16080210B
:104AB0000161002141618161C1610162FDF76CF911
:104AC00008B1FCF75BF900BFCE48E067846200BF25
:104AD000002211463420FEF7C9F93420FEF7B2F95E
:104AE00025E2FFE7C849206888427CD11020029067
:104AF0000020079002A8FEF7A1FA08B1FCF73EF9E2
:104B000000BFBB48806D40F48010B94988650846F5
:104B1000806D00F48010019000BF00BF00BF084608
:104B2000C06C40F00400C8640846C06C00F004008B
:104B3000019000BF00BF00BF0846C06C40F00800F5
:104B4000C8640846C06C00F00800019000BF00BFB8
:104B50008814179002201890002019901A900520B0
:104B60001B9017A9A348FDF7E1F904201790022034
:104B70001890002019901A9005201B9017A9A3489F
:104B8000FDF7D4F99C481430A14908602020486002
:104B900000219F488160C160802101610021416145
:104BA00081612021C16100210162FDF7F5F808B1A2
:104BB000FCF7E4F800BF9648C4F88000846200BFA8
:104BC0008F4814389349086021204860102191488B
:104BD00081600021C160802101610021416181610A
:104BE000C161016200E012E0FDF7D6F808B1FCF700
:104BF000C5F800BF8748E067846200BF0022114605
:104C00003520FEF733F93520FEF71CF98FE1824994
:104C10002068884275D1012002900020039002A8EC
:104C2000FEF70CFA08B1FCF7A9F800BF7048006E57
:104C300040F480406E4908660846006E00F48040EB
:104C4000019000BF00BF00BF0846C06C40F00400E8
:104C5000C8640846C06C00F00400019000BF00BFAB
:104C60003020179002201890002019901A900720E9
:104C70001B9017A95F48FDF759F95F483C38674911
:104C8000086018204860002164488160C16080216C
:104C900001610021416181612021C1610021016226
:104CA000FDF77AF808B1FCF769F800BF5B48C4F873
:104CB0008000846200BF5048283859490860192094
:104CC00048601021564881600021C1608021016147
:104CD000002141618161C1610162FDF75DF808B1A8
:104CE000FCF74CF800BF4E48E067846200BF00222A
:104CF00011462520FEF7BAF82520FEF7A3F816E1A5
:104D0000FFE74849206888426ED1022002900020C7
:104D1000049002A8FEF792F908B1FCF72FF800BF43
:104D20003348806D40F40030314988650846806D15
:104D300000F40030019000BF00BF00BF0846C06C07
:104D400040F00100C8640846C06C00F0010001900A
:104D500000BF00BFC81317900220189000201990C0
:104D60001A9007201B9017A94FF09040FDF7DEF82E
:104D7000214828302C4908601A20486000212A4820
:104D80008160C16080210161002141618161202138
:104D9000C16100210162FCF7FFFF08B1FBF7EEFFE4
:104DA00000BF2148C4F88000846200BF14483C382A
:104DB0001E4908601B20486010211C4881600021AA
:104DC000C16080210161002141618161C161016295
:104DD000FCF7E2FF08B1FBF7D1FF00BF1348E06723
:104DE000846200BF002223E02AE00000004C004063
:104DF00000100240000800486C0002403C180020EF
:104E0000440402409C18002000500040000C004860
:104E1000FC1800205C19002000380140BC1900205B
:104E20001C1A0020004400407C1A0020DC1A0020DC
:104E300011462620FEF71AF82620FEF703F876E042
:104E40003C492068884272D10420029000200590DD
:104E500002A8FEF7F3F808B1FBF790FF00BF364851
:104E6000806D40F48020344988650846806D00F4E8
:104E70008020019000BF00BF00BF0846C06C40F01A
:104E80000200C8640846C06C00F00200019000BF38
:104E900000BF4FF440601790022018900020199036
:104EA0001A9007201B9017A92448FDF73FF82448C3
:104EB000244908601C204860002122488160C160AC
:104EC000802101610021416181612021C1610021B6
:104ED0000162FCF761FF08B1FBF750FF00BF194802
:104EE000C4F88000846200BF1748184908601D207C
:104EF00048601021154881600021C1608021016156
:104F0000002141618161C1610162FCF745FF08B187
:104F1000FBF734FF00BF0D48E067846200BF00224A
:104F200011462720FDF7A2FF2720FDF78BFF1CB0BD
:104F300010BD00000048004000100240000400487E
:104F4000580002403C1B00201C0402409C1B002017
:104F5000704770472DE9F84F04460E4617469946AC
:104F6000D4F88800202854D106B117B90120BDE833
:104F7000F88F00205434E06321206063FDF7C2F80D
:104F8000824627806780543CA068B0F5805F04D1DA
:104F9000206910B90025B04602E035464FF0000800
:104FA00020E05346002280212046CDF8009002F0F8
:104FB000BFFB20B12020C4F888000320D7E745B903
:104FC000B8F80000C0F308002168886208F1020800
:104FD00003E02878216888626D1CB4F85600401EF2
:104FE000A4F85600B4F856000028DAD1534600223F
:104FF00040212046CDF8009002F09AFB20B12020FD
:10500000C4F888000320B2E72020C4F888000020FC
:10501000ADE70220ABE7000070B504460E4615462A
:10502000D4F8880020283FD106B10DB9012070BD09
:1050300044F8506FA580E580002020642120A06303
:10504000E06A503CE0B11948E16FC8621848E16F6E
:1050500008631848E16F48630020E16F88632368A4
:1050600003F128022B46216DE06FFCF7FDFE38B1FD
:105070001020C4F890002020C4F888000120D6E752
:1050800040202168086200BF00BF2168083151E854
:10509000001F41F080002168083141E80002002A29
:1050A000F3D100BF0020C2E70220C0E75F71000813
:1050B000B5710008277000087047704710B50621C9
:1050C0000148FDF7CDFA10BD3402002010B50121D2
:1050D0000148FDF7C5FA10BD34020020072944D26B
:1050E000DFE801F00D161F28313A04000268D2F8FB
:1050F000842342F001030268C2F8843336E0026878
:10510000D2F8842342F002030268C2F884332DE00F
:105110000268D2F8842342F004030268C2F88433A0
:1051200024E00268D2F8842342F008030268C2F83F
:1051300084331BE00268D2F8842342F01003026833
:10514000C2F8843312E00268D2F8842342F02003CC
:105150000268C2F8843309E00268D2F8842342F07E
:1051600040030268C2F8843300E000BF00BF70470C
:1051700070B504462068D0F888532068D0F8906352
:1051800005F0010048B106F0010030B101212068AE
:10519000C0F88C132046FDF75DFA05F0020048B117
:1051A00006F0020030B102212068C0F88C132046BE
:1051B000FDF751FA05F0040048B106F0040030B1E3
:1051C00004212068C0F88C132046FDF745FA05F04D
:1051D000080048B106F0080030B108212068C0F886
:1051E0008C132046FDF739FA05F0100048B106F09F
:1051F000100030B110212068C0F88C132046FDF754
:105200002DFA05F0400048B106F0400030B14021D1
:105210002068C0F88C132046FDF721FA05F0200025
:1052200048B106F0200030B120212068C0F88C136E
:105230002046FDF733FB70BD10B503681A6822F0F5
:1052400007028B681A4322F01802CB681A430368DE
:105250001A600B68046863614B680468A36110BD41
:1052600010B50246146820681468D4F8A03320F002
:1052700020004C69204320F0C0004C69202C02D053
:105280008C69022C04D120F0C00040F0200013E013
:105290008C69032C04D140F0400020F080000BE02A
:1052A0008C69042C04D140F0800020F0400003E021
:1052B00020F0200020F0C00020F40060CC692043E2
:1052C00020F480600C6A204320F0C0604C6A2043C8
:1052D00020F000608C6A204320F04040CC6A40EA15
:1052E000840020F000504C6B204323F480330C6B7F
:1052F0002343146820601468C4F8A03310BD2DE95E
:10530000F04104462068D0F888732068D0F8908374
:10531000206845682068C66807F4803090B108F4BA
:10532000803078B14FF480312068C0F88C130120B0
:1053300084F8DD0000BF002084F8DC0000BF2046B8
:10534000FDF746F907F4003050B108F4003038B1E9
:105350004FF400312068C0F88C132046FDF7B3F8F5
:1053600005F0010048B106F0010030B101202168CC
:10537000886006212046FDF7A9F805F0020048B133
:1053800006F0020030B10220216888600621204624
:10539000FDF71AF905F0040048B106F0040030B139
:1053A00004202168886006212046FDF70EF905F0EB
:1053B000080048B106F0080030B108202168886074
:1053C00006212046FDF702F905F0100048B106F06D
:1053D000100030B110202168886006212046FDF7BA
:1053E0005BFA05F0200040B106F0200028B1202033
:1053F000216888602046FDF750FA05F0400048B16A
:1054000006F0400030B14020216888600621204627
:10541000FDF741FABDE8F081F0B5154600240768B4
:10542000803707EBC1177A6E0768803707EBC11723
:10543000BE6B402D23D00EDC082D34D006DC012DB0
:105440001AD0022D2ED0042D43D116E0102D15D0E8
:10545000202D3ED128E0B5F5007F27D005DC802D3A
:1054600023D0B5F5807F34D10AE0B5F5806F08D040
:10547000B5F5006F2DD11AE000BF00BF00BF00BF1F
:1054800000BFD3F804C00768803707EBC117C7F81F
:105490003CC0D3F808C00768803707EBC117C7F8CE
:1054A00040C017E000BF00BF00BF00BF00BFD3F87F
:1054B00004C00768803707EBC117C7F844C0D3F8AA
:1054C00008C00768803707EBC117C7F848C0102429
:1054D00000E000BF00BFFE27A740BA431F68A740F7
:1054E0003A43DF68A7403A431F69A7403A435F69E0
:1054F000A7403A439F69A7403A431F69082F08D144
:1055000006F400772FB906F0007717B9DF69A740D6
:105510003A430768803707EBC1177A66F0BD2DE97B
:10552000F04104460D462068803000EBC510466807
:105530002068803000EBC510C76806F0010060B13C
:1055400007F0010048B101212068803000EBC51050
:10555000816029462046FCF7B9FF06F0020060B1E1
:1055600007F0020048B102212068803000EBC5102E
:10557000816029462046FDF727F806F0040060B157
:1055800007F0040048B104212068803000EBC5100A
:10559000816029462046FDF718F806F0080060B142
:1055A00007F0080048B108212068803000EBC510E2
:1055B000816029462046FDF709F806F0100060B129
:1055C00007F0100048B110212068803000EBC510B2
:1055D000816029462046FDF75FF906F0400060B182
:1055E00007F0400048B140212068803000EBC51032
:1055F000816029462046FDF74EF906F0800060B133
:1056000007F0800048B180212068803000EBC51091
:10561000816029462046FCF757FF06F4807068B188
:1056200007F4807050B14FF480712068803000EB37
:10563000C510816029462046FCF747FF06F400703C
:1056400068B107F4007050B14FF4007120688030E9
:1056500000EBC510816029462046FDF7F4F806F4FA
:10566000806068B107F4806050B14FF480612068B9
:10567000803000EBC510816029462046FDF7E2F836
:1056800006F4006068B107F4006050B14FF40061A7
:105690002068803000EBC510816029462046FDF768
:1056A000D4F806F4805068B107F4805050B14FF43C
:1056B00080512068803000EBC5108160294620466B
:1056C000FDF7C2F806F4005068B107F4005050B17D
:1056D0004FF400512068803000EBC51081602946EE
:1056E0002046FCF774FF06F4804068B107F4804060
:1056F00050B14FF480412068803000EBC5108160CC
:1057000029462046FCF7A5FFBDE8F08130B50468C6
:10571000803404EBC114236823F007039468234307
:1057200023F01803D46823430468803404EBC114C5
:10573000236015680468803404EBC1146561556802
:105740000468803404EBC114A56130BD2DE9F0413B
:1057500003460C46D3F800C00CF1800C0CEBC41CC3
:10576000DCF800C02CF07048D3F800C00CF1800CBD
:105770000CEBC41CCCF80080D3F800C00CF1800CFA
:105780000CEBC41CDCF80000D3F800C00CF1800C5A
:105790000CEBC41CDCF86860D3F800C00CF1800C82
:1057A0000CEBC41CDCF86450D3F800C0DCF8A01388
:1057B00020F02000D2F814C04CEA0000D2F814C047
:1057C000BCF1200F04D0D2F818C0BCF1020F04D1F4
:1057D00020F4C07040F0200017E0D2F818C0BCF1EF
:1057E000030F04D140F0800020F480700DE0D2F867
:1057F00018C0BCF1040F04D140F4807020F0800088
:1058000003E020F0200020F4C07020F40060D2F803
:105810001CC04CEA000020F48060D2F820C04CEAA2
:10582000000020F0C060D2F824C04CEA000020F054
:105830000060D2F828C04CEA000020F07040D2F896
:105840002CC04CEA000020F40030D2F834C0BCF187
:10585000005F01D140F4003020F04000D2F838C0A1
:105860004CEA000020F48020D2F858C04CEA000036
:10587000DFF820C100EA0C00D2F850C04CEA00006A
:1058800026F03F0692F83CC00CF03F0C4CEA0606AE
:1058900026F00046D2F840C04CEA060625F4807592
:1058A000D2F844C04CEA0505D2F848C0BCF5606F98
:1058B00004D0D2F848C0BCF5F05F04D1D2F838C0AB
:1058C000BCF1400F05D125F4F055D2F848C04CEAA0
:1058D000050525F48045D2F84CC04CEA0505576D06
:1058E000062C2ED2DFE804F0030A11181F2621F43B
:1058F0000031D2F830C041EA4C0123E021F480218C
:10590000D2F830C041EA8C011CE021F40021D2F829
:1059100030C041EACC0115E021F48011D2F830C04A
:1059200041EA0C110EE021F40011D2F830C041EA36
:105930004C1107E021F48001D2F830C041EA8C110B
:1059400000E000BF00BFD3F800C00CF1800C0CEBEE
:10595000C41CCCF80000D3F800C00CF1800C0CEB98
:10596000C41CCCF86860D3F800C00CF1800C0CEBC0
:10597000C41CCCF86450D3F800C00CF1800C0CEBC4
:10598000C41CCCF85470D3F800C0CCF8A013BDE808
:10599000F0810000FFFF06FE10B503461C6880344E
:1059A00004EBC114E06E20F01000146840EA04100B
:1059B00020F480105468204320F48030D4682043C1
:1059C00020F40030946820439469012C0BD120F01E
:1059D00004001469204320F002005469204320F0A1
:1059E0000100946920431C68803404EBC114E06614
:1059F00010BD00BFFEE700008168024A1140491C4B
:105A000081607047C0FFFF7F0146886800F0E0704A
:105A100070470146886800F01F007047024602F197
:105A2000600000EB8103186800F0F8407047014601
:105A30008868C0F3C00070470146886800F0010024
:105A400070470146886800F0010070470146886889
:105A5000C0F30070704701468868C0F3800070474B
:105A600001468868C0F3800070470146C86800F4AA
:105A7000406008B9012070470020FCE78168024AB5
:105A80001140091D81607047C0FFFF7F70B500F1B4
:105A90001404C1F3406504EB85031C68C1F304568C
:105AA0000725B540AC43C1F3045502FA05F52C4374
:105AB0001C6070BD826822F0E0720A438260704709
:105AC00010B500F1600404EB81031C6824F000446D
:105AD00014431C6010BD426922F000420A43426137
