:020000040800F2
:1000000048100020F1010008BB7000081B620008C6
:100010003D6D0008110A0008E98800080000000092
:100020000000000000000000000000000173000854
:10003000FD0A000800000000AD710008D977000833
:100040000B0200080B0200080B0200080B0200085C
:100050000B0200080B0200080B0200080B0200084C
:100060000B0200080B0200080B020008150A00082A
:10007000250A00080B020008350A00080B020008D8
:10008000450A00080B0200080B0200080B020008DA
:100090000B0200080B0200080B0200080B0200080C
:1000A0000B020008717800080B0200086178000854
:1000B0000B0200080B0200080B0200080B020008EC
:1000C0000B0200080B0200080B0200080B020008DC
:1000D0000B0200088D8800089D880008AD88000884
:1000E0000B0200080B0200080B0200080B020008BC
:1000F0000B0200080B0200080B0200080B020008AC
:100100000B0200080B0200080B0200080B0200089B
:10011000157E0008517E00080B0200080B02000843
:100120000B0200080B0200080B0200080B0200087B
:100130000B0200080B0200080B0200080B0200086B
:100140000B0200080B0200080B020008D55800083B
:10015000E5580008F55800080B0200080B020008DB
:100160000B0200080B0200080B0200080B0200083B
:100170000B0200080B0200080B0200080B0200082B
:100180000B0200080B0200080B0200080B0200081B
:100190000B020008000000000B0200080B02000820
:1001A0000B0200080B0200080B0200080B020008FB
:1001B0000B0200080B0200080B0200080B020008EB
:1001C0000B0200080B0200080B0200080B020008DB
:1001D0000B0200080B020008DFF810D000F0CCFA88
:1001E00000480047F1910008AFF30080481000205C
:1001F0000648804706480047FEE7FEE7FEE7FEE7C1
:10020000FEE7FEE7FEE7FEE7FEE7FEE74D780008C3
:10021000D90100082DE9F05F0546002092469B4673
:1002200088460646814640241BE02846414647460C
:10023000224600F07FF953465A46C01A914110D326
:1002400011461846224600F066F92D1A67EB0108A0
:100250004F4622460120002100F05DF917EB00090E
:100260004E41201EA4F10104DFDC484631462A46F7
:100270004346BDE8F09F40EA01039B0703D009E035
:1002800008C9121F08C0042AFAD203E011F8013B82
:1002900000F8013B521EF9D27047D2B201E000F8DB
:1002A000012B491EFBD270470022F6E710B513461A
:1002B0000A4604461946FFF7F0FF204610BD2DE917
:1002C000FE4F804681EA0300C00F0C46009021F0EB
:1002D000004123F00045B8EB0200A94105D2404699
:1002E000214690461C460B46024623F00040104330
:1002F00047D0270DC7F30A00C3F30A510290401AF2
:10030000019040286BDAC3F3130040F4801B00987F
:10031000924620B10023D2EB030A63EB0B0B01984A
:100320005946C0F14002504600F0F5F806460D4629
:1003300050465946019A00F00DF910EB0800614152
:10034000002487EA115284EAE7731A4340D0009AE6
:1003500062B3019A012A4FEA075215DC001B61EBD8
:1003600002014FF0004202EA0752CDE90042001CB0
:1003700041F5801132462B4600F00DF903B0BDE87F
:10038000F08F40462146F9E7001B61EB0201001C9B
:1003900041F5801300185B412018A2F5001747EBC8
:1003A000030140EAD570B6196D4111E06D084FEABE
:1003B000360645EAC0754FEA0752001B61EB0201A1
:1003C000001C41F5801149084FEA300000195141E5
:1003D00032462B4603B0BDE8F04F00F0CDB8009890
:1003E000012240000023D0EB020263EBE07300988F
:1003F00021464FEAE074B8EB000061EB0401E9E745
:1004000083F000435BE781F0004158E72DE9F04DB0
:1004100081EA030404F0004B21F0004514464FF03C
:10042000000A23F0004150EA050220D054EA0102FC
:100430001DD0C5F30A570246C5F31303C1F31300D9
:10044000C1F30A5640F4801543F48013A7EB060865
:10045000101BD64608F2FD3873EB050002D308F1F5
:10046000010801E092185B41B8F1000F03DA0020A7
:100470000146BDE8F08D00204FF480110646844609
:100480000EE0171B73EB050705D3121B63EB050387
:1004900006434CEA010C49084FEA300092185B41D0
:1004A00050EA0107EDD152EA030012D082EA0400BB
:1004B00083EA0501084305D0101BAB4106D2012297
:1004C000002306E000224FF0004302E06FF001023B
:1004D00053101AEB06004CEB085110EB0A0041EBED
:1004E0000B01BDE8F04D00F047B830B50B460146B2
:1004F00000202022012409E021FA02F59D4205D3C3
:1005000003FA02F5491B04FA02F52844151EA2F16C
:100510000102F1DC30BD202A04DB203A00FA02F1AE
:10052000002070479140C2F1200320FA03F31943E1
:1005300090407047202A04DB203A21FA02F0002183
:10054000704721FA02F3D040C2F1200291400843E3
:1005500019467047202A06DBCB17203A41FA02F0F1
:1005600043EAE07306E041FA02F3D040C2F1200210
:10057000914008431946704710B5141E73F10004EA
:1005800008DA401C41F1000192185B411A4301D185
:1005900020F0010010BD2DE9F04D92469B4611B1AF
:1005A000B1FA81F202E0B0FA80F220329046FFF711
:1005B000B2FF04460F4640EA0A0041EA0B015346E7
:1005C0005A46084313D0114653EA010019D0C8F126
:1005D00040025046FFF7AEFF05460E4650465946CC
:1005E0004246FFF798FF084305D0012004E020466B
:1005F0003946BDE8F08D0020054346EAE0762C43FD
:1006000037430A986305E40AA0EB08000022FD0ABC
:1006100044EA47540A3002D500200146E9E70105C3
:1006200010196941DDE9084500196941BDE8F04D3F
:10063000A2E72DE9FE4F81EA030404F0004421F013
:10064000004100944FF0000B23F0004350EA0104F6
:100650005ED052EA03045BD0C3F30A54C1F30A55D7
:100660002C44A4F2F3340194A0FB0254C1F313010F
:1006700041F48011C3F3130343F4801301FB0244DC
:1006800000FB034E840A970A44EA815447EA8357E1
:10069000A4FB076802958D0A05FB07854FEA932C9A
:1006A00004FB0C542705029D4FEA065847EA16370B
:1006B000B5EB08056EEB070C870E920E47EA811723
:1006C00042EA8312A7FB0201B6EB0B0164EB0004C4
:1006D0002B0D43EA0C335E1844EB1C50DA465146AE
:1006E000E7FB0201C5F313044FEA0B3343EA14534B
:1006F0004FEA0432019C43EA0603A4F10C0402947D
:10070000009CCDE900B4FFF746FF03B0BDE8F08FD1
:1007100000200146F9E7C1F30A52C1F3130140F288
:10072000FF3341F480119A4202DA002001467047FB
:1007300040F233439A42A2F2334202DC5242FFF7C4
:10074000F9BEFFF7E8BE000030B5041E71F10004E9
:1007500004DB4FF00044404264EB0101141E73F1CE
:10076000000405DB1C464FF00043524263EB0403D8
:10077000994208BF904230BD064C074D06E0E06844
:1007800040F0010394E8070098471034AC42F6D3D8
:10079000FFF726FDD0930008F093000870B50546DA
:1007A000AC6AE06D00F0500098BBE06D40F4007062
:1007B000E0652068006800F00800A8B1206805F036
:1007C0006DFD10B32068C06800F40050E8B9E06D1A
:1007D00020F48070E065E06D00F48050A8B9E06D11
:1007E00040F00100E06510E02068C06800F0020001
:1007F00058B9E06D20F48070E065E06D00F4805041
:1008000018B9E06D40F00100E065204600F054FFAB
:100810000CE0FFE7E06D00F0100018B1204600F09A
:100820004DFF03E0606D416B2846884770BD70B591
:100830000546AC6AE06D40F04000E065206E40F097
:1008400004002066204600F039FF70BD70B50446F4
:10085000A56A284600F031FF70BD000070B504465F
:10086000206805F0FDFC0646206805F0FEFC98B304
:1008700096BB2068806800F00D0001280AD120682E
:1008800081681A4A1140891C816000BF03202168D9
:10089000086009E0E06D40F01000E065206E40F077
:1008A00001002066012070BD01F07CFD054614E0CA
:1008B00001F078FD401B02280FD92068806800F005
:1008C000010050B1E06D40F01000E065206E40F096
:1008D000010020660120E6E705E02068806800F05E
:1008E00001000028E4D10020DDE70000C0FFFF7F09
:1008F00038B5044600200090206805F0B6FC0028BA
:1009000058D1206880682C49084048B1E06D40F01B
:100910001000E065206E40F001002066012038BD27
:10092000206805F07DFC2168B1F1A04F03D0234A77
:100930002168914201D1224900E02249084605F090
:1009400077FC00F4000080B11F4800681F49B0FB2D
:10095000F1F0401C00EB40008000009002E00098A5
:10096000401E009000980028F9D101F01BFD0546BB
:100970001AE0206805F079FC10B9206805F050FCF9
:1009800001F010FD401B02280ED92068006800F01D
:10099000010048B9E06D40F01000E065206E40F0C5
:1009A000010020660120BAE72068006800F001001D
:1009B0000028DED00020B2E73F0000800001005098
:1009C000000300500007005090000020400D03007D
:1009D000014609B901207047044802680A804FF6B1
:1009E000FF7000EA124048800020F4E71000002069
:1009F00004490988044A128841EA02400349086010
:100A0000704700000C0000200E00002010000020A5
:100A100000BFFEE710B5024801F07BFA10BD0000F0
:100A2000FC01002010B5024801F073FA10BD00006F
:100A30005C02002010B5024801F06BFA10BD000006
:100A4000C80A002010B5024801F063FA10BD00008A
:100A5000880B002030B50E4D0468AC4201D20D4920
:100A600001E00C4920310B460478083C1425B4FB06
:100A7000F5F2446CA40803EB84048464054C8034D0
:100A8000C46402F01F050124AC40046530BD0000C1
:100A9000080402400008024001794A1E064B03EB9D
:100AA00082024265044A403282654A1E02F01F03F8
:100AB00001229A40C26570470009024030B5D0E972
:100AC00013546C60446D14B1D0E916546C6090F806
:100AD000444004F01F050124AC40056C6C600468C0
:100AE00063608468102C04D10468A2600468E1602B
:100AF00003E00468A1600468E26030BD7047000054
:100B000070B504460D460DB1012000E000200646F8
:100B1000032C04D0042C08D0052C14D10CE0324650
:100B200010210A4801F038FC0EE032464FF4007103
:100B3000064801F031FC07E032464FF4005104480A
:100B400001F02AFC00E000BF00BF70BD00040048B7
:100B50000008004830B503460C46002103B10CB92B
:100B6000002030BD002213E0985C414000250BE0DE
:100B700001F0800020B1012000EB4100C1B201E092
:100B80004806010E681CC5B2082DF1D3501C82B274
:100B9000A242E9DB0846E4E72DE9F74F82B00446BC
:100BA000154604B11DB9012005B0BDE8F08F0398CA
:100BB000062801D20220F7E794F80080667894F8BE
:100BC000029094F803A094F804B060790090B8F112
:100BD000020F01D00220E7E705212046FFF7BAFF08
:100BE00007460098874201D00320DDE7C6F30010D6
:100BF0002870C6F34010687049EA0A2040EA0B40AA
:100C000001900198C0F3140068600020CCE7FEB5A5
:100C100004460CB90120FEBD684606F091F808B103
:100C20000420F8E7224606216846FFF7B5FF06468E
:100C300004F1080206210DF10600FFF7ADFF05469D
:100C40000EB13046E7E70DB12846E4E70020E2E7C1
:100C5000FEB504460CB90120FEBD684606F030FA28
:100C600008B10420F8E7224606216846FFF794FF02
:100C7000064604F1080206210DF10600FFF78CFF7D
:100C800005460EB13046E7E70DB12846E4E7606857
:100C9000C0F313006060E068C0F31301E16000205E
:100CA000DAE7FEB504460CB90120FEBD684606F041
:100CB00081FD08B10420F8E7224606216846FFF7C7
:100CC0006BFF064604F1080206210DF10600FFF74E
:100CD00063FF05460EB13046E7E70DB12846E4E76D
:100CE0006068C0F310006060E068C0F31001E1606C
:100CF0000020DAE70168491C016000BF00BF7047AF
:100D000000BF00BF03685B1C036000BF00BF0A7028
:100D100070472DE9F04104460D461646002720E0B5
:100D20003178022900D3002154F8212002F001007B
:100D300000B115E001EB410005EB8000D0F8008028
:100D4000C3F80080D0F80480C3F8048080689860FD
:100D500054F821C0624502D10020BDE8F08100BFF7
:100D60007F1C082FDCD30020186058609860032097
:100D7000F3E70000F0B503460C461646112E07D0E7
:100D8000142E03D0152E05D11A4806E01A4804E0A7
:100D90001A4802E09FED1A0AF0BD00BF834201D954
:100DA000074600E01F463B46844201D9074600E063
:100DB00027463C46E11A471C7D08A94201DDCA1BB3
:100DC00006E06F42B94202DA471CCA1900E00A463F
:100DD00000EE102AB8EEC00A9FED0A1A20EE011AA2
:100DE000471C00EE107AB8EE400AC1EE000AB0EEE1
:100DF000600AD1E7FFFF1F00FFFF0F00FFFF0100A8
:100E00000000000000C8AF4810B5044614B99FEDBB
:100E1000040A10BD15226168E068FFF7ABFFF8E730
:100E20000000000010B5044614B99FED040A10BD7F
:100E300014226168E068FFF79DFFF8E700000000FA
:100E400010B5044614B99FED040A10BD1122616863
:100E5000E068FFF78FFFF8E70000000010B50446D8
:100E600001212046FFF74CFE032C04D0042C0DD0AA
:100E7000052C1FD115E01148006840F040000F49D3
:100E8000086002200D492831086014E00C48006811
:100E900040F040000A4908600220094928310860F2
:100EA00009E00848006840F0400006490860022058
:100EB000886200E000BF00BF10BD00000048004095
:100EC000004C00400050004072B602E001A007F064
:100ED0000DFDFBE76572720A00000000F8B50446DC
:100EE0000D460020009000BF94F85800012801D161
:100EF0000220F8BD012084F8580000BF2046FFF70B
:100F0000ADFC06468EBBE06D20F4885040F0020038
:100F1000E065206881681B4A114005F0804242F07C
:100F200000421143816000BF13E00098401C009014
:100F30001549009888420CD3E06D20F0020040F083
:100F40001000E06500BF002084F8580000BF0120B9
:100F5000CFE720688168C90F0029E6D1E06D20F055
:100F6000020040F00100E06504E0FFE7E06D40F0C2
:100F70001000E06500BF002084F8580000BF304634
:100F8000B7E70000C0FFFF3F02DE04002DE9F04399
:100F90009BB004460E464FF00008306800B100BF19
:100FA00000BF94F85800012803D102201BB0BDE80F
:100FB000F083012084F8580000BF0020179018909B
:100FC0002068B0F1A04F02D15848009008E058497D
:100FD0002068884202D15748009001E0002000902C
:100FE000009850B9E06D40F02000E06500BF00209F
:100FF00084F8580000BF0120D8E7009805F049F9AF
:101000000746206805F045F900287DD1002F7FD1E3
:101010002068B0F1A04F03D044492068884201D134
:10102000454800E0454805463068D8B394F8380094
:10103000716841EA4030A96821F460410843A86022
:101040002068B0F1A04F03D038492068884201D110
:10105000394800E03948384988420AD14FF0A04069
:1010600005F008F98146314805F004F949EA000025
:101070000DE02F4805F0FEF881462E4805F0FAF8FD
:1010800049EA00092E4805F0F5F849EA0000E0BBFE
:10109000B16830680843A96840F61F72914308435D
:1010A000A8603BE0FFE7A86820F46040A8602068E3
:1010B000B0F1A04F03D01D492068884201D11E48DD
:1010C00000E01E481C4988420AD14FF0A04005F0BC
:1010D000D1F88146154805F0CDF849EA00000DE049
:1010E000134805F0C7F88146124805F0C3F849EAED
:1010F0000009134805F0BEF849EA000028B9A868BD
:1011000040F61F71884301E002E007E0A86005E0B7
:10111000E06D40F02000E0654FF0010800BF0020C6
:1011200084F8580000BF404640E70000000100502E
:10113000000400500005005000030050000700505C
:10114000000600502DE9F84F05460C464FF0000A06
:1011500000200090FE49E068884200D000E000BF17
:1011600000BF95F85800012802D10220BDE8F88F91
:10117000012085F8580000BF286805F085F8002890
:101180007DD12968D4E9002001F1300CC0F3012B96
:101190000CEB8B03D3F800C000F01F0E4FF01F0BB9
:1011A0000BFA0EFB2CEA0B0C00F01F0BC2F3846E43
:1011B0000EFA0BFE4CEA0E0CC3F800C000BF286804
:1011C00005F062F88146286805F045F88046B9F1D7
:1011D000000F64D1B8F1000FFBD1A068B0F1004F4F
:1011E0000AD121680022286805F06AF84FF0004112
:1011F000286805F08AF808E0A2682168286805F0E8
:101200005FF80021286805F080F860692968C968DE
:10121000C1F3C101490000FA01F7206904283FD059
:1012200028682268216900F1600C0CEB8103D3F877
:1012300000C0DFF820B30CEA0B0C02F0F84B4BF0C7
:10124000004B4BEA070B4CEA0B0CC3F800C000BF85
:101250002868A269216900F1600C0CEB8103D3F8C6
:1012600000C02CF0807C4CEA020CC3F800C000BF28
:101270002868227F2169012A02D1520601E0F6E1A5
:101280000022134600F1600C0CEB8102D2F800C082
:101290002CF0007C4CEA030CC2F800C000BFA7E0B1
:1012A0000021286804F0CEFFC0F3120030B90021FD
:1012B000286804F0C7FFC0F3846007E000212868B5
:1012C00004F0C0FF90FAA0F0B0FA80F02168C1F3FA
:1012D000120119B92168C1F3846104E0216891FA0F
:1012E000A1F1B1FA81F1884204D1002211462868A7
:1012F00005F000F80121286804F0A4FFC0F31200F3
:1013000030B90121286804F09DFFC0F3846007E034
:101310000121286804F096FF90FAA0F0B0FA80F05E
:101320002168C1F3120119B92168C1F3846104E095
:10133000216891FAA1F1B1FA81F1884204D1002229
:101340000121286804F0D6FF0221286804F07AFF02
:10135000C0F3120030B90221286804F073FFC0F313
:10136000846007E00221286804F06CFF90FAA0F086
:10137000B0FA80F02168C1F3120119B92168C1F3F4
:10138000846104E0216891FAA1F1B1FA81F1884207
:1013900004D100220221286804F0ACFF0321286850
:1013A00004F050FFC0F3120030B90321286804F0A4
:1013B00049FFC0F3846007E00321286804F042FF7E
:1013C00090FAA0F0B0FA80F02168C1F3120119B9C7
:1013D0002168C1F3846104E0216891FAA1F1B1FAB6
:1013E00081F1884204D100220321286804F082FFA1
:1013F000286804F03AFF002870D12868E268216864
:10140000D0F8B0C0C1F312032CEA030C02F0180BA1
:10141000514B23FA0BF30B404CEA030CC0F8B0C05D
:1014200000BF4B49E068884258D12368C3F31203D8
:101430001BB92368C3F3846304E0236893FAA3F31E
:10144000B3FA83F35B1C03F01F03092B3ED8236818
:10145000C3F312031BB92368C3F3846304E0236856
:1014600093FAA3F3B3FA83F35B1C03F01F034FF06B
:10147000010C0CFA03FC2368C3F312031BB92368A5
:10148000C3F3846304E0236893FAA3F3B3FA83F30A
:101490005B1C03F01F034CEA836C2368C3F3120345
:1014A0001BB92368C3F3846304E0236893FAA3F3AE
:1014B000B3FA83F35B1C03F01F0303EB43034FF00A
:1014C000000B4BEA03534CEA03033FE02368C3F3EA
:1014D000120323B92368C3F3846305E042E0236861
:1014E00093FAA3F3B3FA83F35B1C03F01F034FF0EB
:1014F000010C0CFA03FC2368C3F312031BB9236825
:10150000C3F3846304E0236893FAA3F3B3FA83F389
:101510005B1C03F01F034CEA836C2368C3F31203C4
:101520001BB92368C3F3846304E0236893FAA3F32D
:10153000B3FA83F35B1C03F01F030A3B03EB430383
:101540004FF0007B4BEA03534CEA0303194605E0D6
:1015500000007F4000F0FF03FFFF0700A26828683B
:1015600004F0AEFE484920680840002842D02968AF
:10157000B1F1A04F03D0454A2968914201D14449B5
:1015800000E04449084604F053FE064642492068FC
:10159000884203D04149206888422CD106F40000DB
:1015A00048BB2868B0F1A04F03D03D492868884265
:1015B00063D12A68B2F1A04F03D0344B2A689A4213
:1015C00001D1334A00E0334A104646F4000104F0EA
:1015D0008BFE344800683449B0FBF1F0401C00EB4E
:1015E00040008000009002E00098401E00900098AB
:1015F0000028F9D141E02D49206888421BD106F02E
:101600008070C0B921492868884203D128492868D8
:10161000884232D02A68B2F1A04F03D01B4B2A680F
:101620009A4201D11A4A00E01A4A104646F08071E7
:1016300004F05AFE21E01F49206888421DD106F4BB
:101640008000D0B911492868884216D02A68B2F1C2
:10165000A04F03D00B462A689A4201D10C4A00E001
:101660000C4A104646F4800104F03EFE05E0E86DA9
:1016700040F02000E8654FF0010A00BF002085F827
:10168000580000BF504671E500000880000100507E
:101690000003005000070050000021C31000C0905C
:1016A0000006005090000020400D0300000052C7CB
:1016B00000050050000084CB704770477047000061
:1016C0002DE9F84304464FF000080020009014B9BB
:1016D0000120BDE8F883606920B194F82400012856
:1016E00000D100BFE06D30B9204600F045F9002080
:1016F000206684F8580020688168C1F3407131B1D8
:1017000020688168914A1140816000BF00BF206855
:1017100004F0B5FDB0B9206881688D4A114041F0F0
:101720008051816000BF8B4800688B49B0FBF1F0AD
:10173000401C4000009002E00098401E009000987D
:101740000028F9D1206804F09AFD48B9E06D40F016
:101750001000E065206E40F0010020664FF00108A7
:10176000206804F091FD0646E06D00F010000028AE
:101770007ED1002EFCD1E06D20F4807040F002009C
:10178000E065206804F071FD88BB2068B0F1A04FCF
:1017900003D072492068884201D1714800E0714845
:1017A0006F4988420AD14FF0A04004F05EFD8146A7
:1017B0006A4804F05AFD49EA00000DE06A4804F066
:1017C00054FD8146694804F050FD49EA0009684823
:1017D00004F04BFD49EA000048B92268B2F1A04F7D
:1017E00003D05E4B22689A4202D15D4A01E009E0D3
:1017F0005C4A10466168826822F47C120A43826067
:1018000000BF00BF607FE16B41EA4030E168084300
:10181000A168084394F8241040EA014594F8240094
:10182000012803D1208D401E45EA4045E06A28B1D9
:10183000A08D00F47870216B084305432068C068D0
:101840004C49084028432168C8602068006920F09E
:101850004060616B084321680861206804F0FBFC6C
:101860000746EEBBE7BB207F002141EA803100E064
:1018700064E094F8380041EA40052068C06844F20A
:101880000201884328432168C860206980B120682C
:10189000006940F48030216808612068D0F8C000F9
:1018A0006FF30D00216908432168C1F8C0000DE005
:1018B0002068006920F48030216808612068D0F831
:1018C000C0006FF30D002168C1F8C00094F840001B
:1018D000012813D1606C40F00101A06C084300E0C6
:1018E00012E0E16C0843216D08432168096940F268
:1018F000FC72914308432168086105E02068006993
:1019000020F00100216808616069012809D1206880
:10191000006B20F00F00216A491E0843216808630C
:1019200005E02068006B20F00F0021680863E06D7F
:1019300020F0020040F00100E06505E0E06D40F0BD
:101940001000E0654FF001084046C2E6C0FFFF5FAF
:10195000C0FFFF7F90000020400D030000010050F9
:101960000003005000070050000400500005005024
:10197000000600500740F0FF10B59CB0044614214B
:1019800017A8FEF791FC542102A8FEF78DFC2068F1
:10199000B0F1A04F58D14FF4004002908003139053
:1019A00002A801F04FFC08B1FFF78EFA6F480068FB
:1019B000401C6E4908600846006801280DD100BF30
:1019C0006B48C06C40F400506949C8640846C06C5C
:1019D00000F40050019000BF00BF00BF6448C06C1D
:1019E00040F001006249C8640846C06C00F0010084
:1019F000019000BF00BF0120179003201890002025
:101A0000199017A94FF0904000F0E0FB59485A494F
:101A1000086005204860002157488160C16080212E
:101A2000016149004161890081612021C1614FF458
:101A30004051016200F0ECFA08B1FFF745FA00BF2F
:101A40004D48606584628FE04C492068884258D1D7
:101A5000C00102908003139002A801F0F3FB08B1CB
:101A6000FFF732FA41480068401C404908600846C8
:101A7000006801280DD100BF3D48C06C40F4005003
:101A80003B49C8640846C06C00F40050019000BF98
:101A900000BF00BF3648C06C40F001003449C86444
:101AA0000846C06C00F00100019000BF00BF02209A
:101AB0001790032018900020199017A94FF090401C
:101AC00000F084FB2B4814302D4908602420486026
:101AD00000212B488160C160802101614900416182
:101AE000890081612021C1614FF44051016200F001
:101AF0008FFA08B1FFF7E8F900BF214860658462FA
:101B000032E02049206888422ED180010290C00333
:101B1000149002A801F096FB08B1FFF7D5F900BFB9
:101B20001348C06C40F480401149C8640846C06C3A
:101B300000F48040019000BF00BF00BF0846C06CA9
:101B400040F00200C8640846C06C00F0020001903A
:101B500000BF00BF022017900320189000201990AA
:101B600017A9094800F032FB1CB010BD1800002076
:101B70000010024008000240FC010020000100505B
:101B80005C02002000040050000400482DE9F041F0
:101B900004460F4690462168B1F1A04F03D0484A51
:101BA0002168914201D1474900E04749084604F0C5
:101BB00044FB0646206804F067FB00287CD100BF88
:101BC00094F85800012802D10220BDE8F0810120DC
:101BD00084F8580000BF3D492068884201D10120A7
:101BE00000E0002020B91EB1052E01D0092E5DD1E4
:101BF0002046FEF77DFE0546002D52D1E06D40F6F1
:101C00000161884340F48070E0652D492068884276
:101C100002D14FF0A04006E02D492068884201D152
:101C20002C4800E020682168884200D01EB9E06D91
:101C300020F48010E065E06D00F4805020B1206E4B
:101C400020F00600206601E0002020662248616D39
:101C5000C8622248616D08632148616D48631C2099
:101C60002168086000BF002084F8580000BF206889
:101C7000406840F01000216848602068C06840F06B
:101C800001002168C860226802F1400143463A46DB
:101C9000606D00F025FA0546206804F009FB0CE0B1
:101CA0000AE000BF002084F8580006E0012500BFCC
:101CB000002084F8580000E00225284685E700004F
:101CC00000010050000300500007005000060050C3
:101CD00000050050000400509D0700084D08000852
:101CE0002F08000870B503460C4600201F2104F0A1
:101CF00001050DB9012022E000BF0D1EA1F1010177
:101D000006D001F01F060125B5402540002DF4D076
:101D10008AB1082A0BD0102A05D0182A0CD107291D
:101D200000D301200AE0082900D3012006E0102991
:101D300000D3012002E001E0012000BF00BF40B954
:101D40001D686C611D68AD6825F0180515431E6897
:101D5000B56070BD10B504460CB9012010BD607FA0
:101D600020B900202077204600F036F80220607766
:101D7000207948B91748216848612068806820F0B8
:101D800018002168886007E02046D4E90212FFF7B6
:101D9000A9FF08B10120E1E7607920B94FF0FF30D9
:101DA0002168086102E02168206908612068806874
:101DB00020F06000616908432168886020688068BD
:101DC00020F08000A16908432168886001206077C5
:101DD0000020C3E7B71DC10408B5094A0168914254
:101DE0000DD100BF0749896C41F48051054A9164C7
:101DF0001146896C01F48051009100BF00BF08BDFD
:101E000000300240001002400146002091F82520D9
:101E1000022A03D00422CA63012027E00A6812685C
:101E200022F00E020B681A608A6C126822F480722B
:101E30008B6C1A600A68126822F001020B681A6043
:101E400091F8442002F01F0301229A400B6C5A6063
:101E5000D1E913325A604A6D42B14A6D126822F4D8
:101E600080724B6D1A60D1E916325A60012281F8F6
:101E7000252000BF002281F8242000BF704770B5E4
:101E80000446002594F8250002280BD00420E063C6
:101E9000012084F8250000BF002084F8240000BF42
:101EA000012534E02068006820F00E0021680860F9
:101EB0002068006820F0010021680860A06C0068BC
:101EC00020F48070A16C086094F8440000F01F01B9
:101ED00001208840216C4860D4E913104860606D8F
:101EE00040B1606D006820F48070616D0860D4E9D5
:101EF00016104860012084F8250000BF002084F8F7
:101F0000240000BFA06B10B12046A16B8847284673
:101F100070BD70B50446206C05682068066894F8AA
:101F2000440000F01F01042088402840E0B106F082
:101F30000400C8B12068006800F0200028B92068BB
:101F4000006820F004002168086094F8440000F064
:101F50001F0104208840216C4860206B002856D067
:101F60002046216B884752E094F8440000F01F019E
:101F700002208840284018B306F0020000B3206811
:101F8000006800F0200040B92068006820F00A00D6
:101F900021680860012084F8250094F8440000F0CE
:101FA0001F0102208840216C486000BF002084F897
:101FB000240000BFE06A50B32046E16A884726E06B
:101FC00094F8440000F01F01082088402840F0B138
:101FD00006F00800D8B12068006820F00E002168E3
:101FE000086094F8440000F01F0101208840216C33
:101FF00048600120E06384F8250000BF002084F8D9
:10200000240000BF606B10B12046616B884770BD33
:1020100070B504460CB9012070BD2F492068884274
:102020000BD22E492068401A1421B0FBF1F0800039
:1020300060642A48083820640AE027492068401A6A
:102040001421B0FBF1F0800060642348083820645C
:10205000022084F825002068056847F6F070854363
:10206000D4E9020108432169084361690843A16971
:102070000843E1690843216A084305432068056075
:102080002046FEF7E7FCA068B0F5804F01D10020A4
:1020900060602079A16C0860D4E913104860606822
:1020A00060B16068042809D82046FEF7F5FC0020DE
:1020B000616D0860D4E91610486003E00020606597
:1020C000A065E0650020E063012084F82500002081
:1020D00084F8240000BF9FE7080402400800024083
:1020E0002DE9F04104460D4616461F464FF0000804
:1020F00000BF94F82400012802D10220BDE8F0813D
:10210000012084F8240000BF94F8250001283FD165
:10211000022084F825000020E0632068006820F099
:102120000100216808603B46324629462046FEF7FA
:10213000C5FC206B30B12068006840F00E002168BB
:1021400008600BE02068006820F004002168086047
:102150002068006840F00A0021680860A06C0068F0
:1021600000F4803028B1A06C006840F48070A16C4D
:102170000860606D28B1606D006840F48070616D2A
:1021800008602068006840F001002168086006E0EF
:1021900000BF002084F8240000BF4FF00208404632
:1021A000ACE7000070B5044600F0FCF80646254692
:1021B000681C10B104480068054400BF00F0F2F844
:1021C000801BA842FAD370BD7000002078B502468B
:1021D0000B460021CAE001268E401D6805EA060470
:1021E000002C73D01D7905F00305012D04D01D7955
:1021F00005F00305022D13D190684E000325B5406C
:10220000A8434E00DD68B540284390605068012522
:102210008D40A8431D79C5F300158D4028435060BB
:102220001D7905F00305032D09D0D0684E00032564
:10223000B540A8434E009D68B5402843D0601D7945
:1022400005F00305022D13D1CE0802F1200555F843
:1022500026004D07EE0E0F25B540A8434E07F60E9B
:102260001D69B5402843CE0802F1200545F8260037
:1022700010684E000325B540A8431D7905F00305FD
:102280004E00B540284310605D6805F44035002DD0
:102290006BD000BF384D2D6E45F00105364E3566CA
:1022A00035462D6E05F00105009500BF00BF4FEAD1
:1022B000B6358E0855F826008D072E0F0F25B54030
:1022C000A843B2F1904F02D100251AE04DE02B4D0A
:1022D000AA4201D1012514E0294DAA4201D10225CB
:1022E0000FE0284DAA4201D103250AE0264DAA425B
:1022F00001D1042505E0254DAA4201D1052500E0C4
:1023000006258E07360FB5402843214D8E0845F827
:102310002600204D2868A0435D6805F4801505B1AE
:1023200020431C4D28602D1D2868A0435D6805F4DE
:10233000001505B12043174D2D1D2860154D2D1F8B
:102340002868A0435D6805F4003505B12043114DB0
:102350002D1F28602D1F2868A0435D6805F4803577
:1023600005B120430B4D083D2860491C1D68CD4038
:10237000002D7FF430AF78BD00100240000400480B
:1023800000080048000C00480010004800140048F5
:1023900008000140080401400AB1816100E0816247
:1023A0007047000001480068704700006800002086
:1023B00010B5034693F8DD00022800D110BD00BF20
:1023C00093F8DC00012801D10220F7E7012083F80F
:1023D000DC0000BF022083F8DD00202945D00CDCA2
:1023E000042927D004DC012912D002296AD118E07F
:1023F000082928D0102965D12EE040293ED0802917
:1024000045D0B1F5807F4BD0B1F5007F5AD150E077
:102410001868D0F8000462F304001C68C4F80004D3
:1024200059E01868D0F8000462F38A101C68C4F8F8
:10243000000450E01868D0F8000462F310301C6803
:10244000C4F8000447E01868D0F8000462F396402E
:102450001C68C4F800043EE01868D0F8000462F379
:102460001C601C68C4F8000435E01868D0F8040447
:1024700062F304001C68C4F804042CE01868D0F867
:10248000040462F38A101C68C4F8040423E018688A
:10249000D0F8040462F310301C68C4F804041AE095
:1024A0001868D0F8040462F396401C68C4F8040469
:1024B00011E01868D0F8040462F31C601C68C4F8CA
:1024C000040408E0072083F8DD0000BF002083F843
:1024D000DC0000BF00BF00BF93F8DD00072801D17A
:1024E00001206BE7012083F8DD0000BF002083F8A6
:1024F000DC0000BF00BF61E7F0B503460D4693F86E
:10250000DD00022800D1F0BD00BF93F8DC000128F7
:1025100001D10220F7E7012083F8DC0000BF022090
:1025200083F8DD001868D0F880431868D0F8FC13F1
:10253000202D63D00CDC042D2DD004DC012D12D015
:10254000022D77D11AE0082D32D0102DF9D13CE0C0
:10255000402D73D0802D6FD0B5F5807F6DD0B5F54F
:10256000007FEED1BFE024F4E024106800F4E02006
:10257000044356681868C0F8BC63DAE024F46014B9
:102580004FF46016106806EAC000044356681868E5
:10259000C0F8C063CDE024F0E0744FF0E07610683E
:1025A00006EA8010044356681868C0F8C463C0E0A7
:1025B00024F060644FF06066106806EA402004432F
:1025C00056681868C0F8C863B3E021F007011068C6
:1025D000C0F3024001431868D0F8F80320F01F064A
:1025E0001868C0F8F8631868D0F8F803167906F090
:1025F0001F0630431E68C6F8F8039AE021F0700108
:102600007026106806EA103001431868D0F8F80305
:1026100020F478761868C0F8F8631868D0F8F803E2
:102620004FF47877566807EA461630431E68C6F8B6
:10263000F8037EE074E001E01DE039E021F4E061A0
:102640004FF4E066106806EA102001431868D0F8DD
:10265000F80320F4F8461868C0F8F8631868D0F852
:10266000F8034FF4F847566807EA862630431E6899
:10267000C6F8F8035DE021F4E0414FF4E04610684D
:1026800006EA101001431868D0F8F80320F4F81691
:102690001868C0F8F8631868D0F8F80396884FF403
:1026A000F81707EA064630431E68C6F8F80340E00C
:1026B00021F4E021106800F4E02001431868D0F80C
:1026C000F80320F078761868C0F8F8631868D0F836
:1026D000F80396884FF0787707EA465630431E682D
:1026E000C6F8F80325E021F4E0014FF4E006106895
:1026F00006EA001001431868D0F8F80320F0F84605
:102700001868C0F8F8631868D0F8F80316794FF025
:10271000F84707EA866630431E68C6F8F80308E003
:10272000072083F8DD0000BF002083F8DC0000BF35
:1027300000BF00BF93F8DD00072801D10120E2E6C9
:10274000102D03D21868C0F8804302E01868C0F862
:10275000FC13012083F8DD0000BF002083F8DC00BB
:1027600000BF00BFCFE670477047704770B50546A1
:102770000C4614B9FEF73CF970BD012C18D10D4878
:102780000078A8B100200B4908700B49098800EEB9
:10279000101AB8EE400ADFED090A20EE200ABCEE5E
:1027A000C00A10EE101A88B204F0D6FC00B1E3E7BC
:1027B00000BFE1E71E0000201C0000209A99D93FCD
:1027C00070477047704770477047024600BF92F8E5
:1027D000DC00012801D102207047012082F8DC00D2
:1027E00000BF022082F8DD00481C80B91068D0F8D4
:1027F000CC0320F002031068C0F8CC331068D0F886
:10280000CC0340F001031068C0F8CC3318E0106826
:10281000D0F8CC0340F002031068C0F8CC33106845
:10282000D0F8CC0320F00C0008431368C3F8CC03A5
:102830001068D0F8CC0340F001031068C0F8CC3326
:10284000012082F8DD000020C6E77047704770471E
:10285000704770477047704770B505460C46FF2CAF
:1028600003D1284603F098F809E0062C03D1284646
:1028700003F059F903E02146284603F064FA70BDDD
:10288000F8B504460CB90120F8BD0220E03404F884
:10289000030C002020606060A060E0602061606147
:1028A000A061E03C207A00F0010008B335492068BF
:1028B00088420DD100BF3448006E40F0806032493C
:1028C00008660846006E00F08060009000BF00BF00
:1028D0002068066826F44046208A00F440400643FB
:1028E00026F44056A08A00F4405006432068066053
:1028F000204600F04BF8207A00F0020048B1206832
:10290000066826F44076A08900F4407006432068EB
:102910000660012084F8DD0000BF002084F8DC00A0
:1029200000BF002529E00021C5EBC50204F1180015
:1029300040F82210C5EBC50200EB82004160C5EBF8
:10294000C50204F1180000EB82008160C5EBC502EE
:1029500004F1180000EB8200C160C5EBC50204F170
:10296000180000EB82000161C5EBC50204F11800FC
:1029700000EB82008161681CC5B2062DD3D900200E
:1029800082E70000006801400010024038B50446AC
:1029900015492068884225D100BF1448006E40F0D8
:1029A0008060124908660846006E00F08060009062
:1029B00000BF00BF00221146432000F05BFB432014
:1029C00000F044FB00221146442000F053FB442059
:1029D00000F03CFB00221146452000F04BFB452057
:1029E00000F034FB38BD00000068014000100240D8
:1029F00010B586B00446142101A8FDF755FC114915
:102A0000206888421CD100BF0F48C06C40F0010014
:102A10000D49C8640846C06C00F00100009000BF7A
:102A200000BF88150190022002900120039003202E
:102A300004900D20059001A94FF09040FFF7C6FBD0
:102A400006B010BD0068014000100240704770479A
:102A50007047704770B504460D46FFF7A3FC064665
:102A60000CE0681C50B1FFF79DFC801BA84200D809
:102A700025B9072084F8DD00032070BD2068D0F858
:102A80008803C0F300400028EBD0012084F8DD006B
:102A900000BF002084F8DC0000BF00BFEDE77047F6
:102AA00070477047704770B504460D46164694F857
:102AB000DD00022800D170BD022084F8DD00062D63
:102AC00004D13146204602F0CBFF04E032462946CD
:102AD000204603F02FFA012084F8DD000020EAE709
:102AE00030B5044694F8DD00022800D130BD00BFA7
:102AF00094F8DC00012801D10220F7E7012084F8D6
:102B0000DC0000BF022084F8DD00062928D1012A5C
:102B100006D0022A08D0042A0AD0082A10D10BE0D5
:102B200018682568E86114E018682568686210E094
:102B300018682568A8620CE018682568E86208E053
:102B4000072084F8DD0000BF002084F8DC0000BF0F
:102B500000BF00BF94F8DD0007287DD10120C5E744
:102B6000012A06D0022A0BD0042A4CD0082A74D19C
:102B700050E01D682068803000EBC110C5619AE00C
:102B80001D682068803000EBC1104562586868B34A
:102B90002068803000EBC110006820F440552068A8
:102BA000803000EBC11005602068803000EBC11060
:102BB00000685D6828432568803505EBC1152860ED
:102BC0005868B0F5005F06D19D682068803000EB42
:102BD000C110C56116E05868B0F5405F12D19D681C
:102BE0002068803000EBC11085620BE020688030E7
:102BF00000EBC110006820F440502568803505EBDB
:102C0000C115286057E01D682068803000EBC110B6
:102C1000856250E01D682068803000EBC110C562FD
:102C2000586888B32068803000EBC110006820F439
:102C300040452068803000EBC1100560206880307E
:102C400000EBC11000685D6840EA850520688030AF
:102C500000EBC110056001E034E023E05868B0F5F6
:102C6000005F06D19D682068803000EBC110C5610F
:102C700017E05868B0F5405F13D19D682068803038
:102C800000EBC11085620CE0FFE72068803000EBAC
:102C9000C110006820F440402568803505EBC1155F
:102CA000286008E0072084F8DD0000BF002084F8D9
:102CB000DC0000BF00BF00BF94F8DD00072801D191
:102CC000012013E7012084F8DD0000BF002084F814
:102CD000DC0000BF00BF09E7024600BF92F8DC003D
:102CE000012801D102207047012082F8DC0000BFDA
:102CF000022082F8DD00106800680843136818603D
:102D0000012082F8DD0000BF002082F8DC0000BF57
:102D100000BFE8E730B502460B4600BF92F8DC0082
:102D2000012801D1022030BD012082F8DC0000BF63
:102D3000022082F8DD001068D0F890035468204328
:102D40001468C4F8900303F4803030B11068C4688C
:102D5000D2F8C80004431068C460002118E0154888
:102D600050F82100184088B11068803000EBC11085
:102D7000C068C1EBC10502F1180404EB8504A46826
:102D800020431468803404EBC114E060481CC1B2D5
:102D90000629E4D3106800681843146820600120F5
:102DA00082F8DD0000BF002082F8DC0000BF00BF19
:102DB000B9E70000740000202DE9F04104460D46FB
:102DC00016461F4694F8DD00022801D1BDE8F081C7
:102DD00000BF94F8DC00012801D10220F6E70120B1
:102DE00084F8DC0000BF022084F8DD003B46324658
:102DF0002946204602F024FF012084F8DD0000BFB0
:102E0000002084F8DC0000BF00BFDFE7024600BFFF
:102E100092F8DC00012801D102207047012082F8DD
:102E2000DC0000BF022082F8DD001068D0F89403B7
:102E300008431368C3F89403012082F8DD0000BF43
:102E4000002082F8DC0000BF00BFE6E770B5044652
:102E50000D46164694F8DD00022800D170BD00BF73
:102E600094F8DC00012801D10220F7E7012084F862
:102E7000DC0000BF022084F8DD00062D04D13146BD
:102E8000204602F001FE04E032462946204603F0C7
:102E900071F8C5EBC50204F1180000EB820031683F
:102EA0008160C5EBC50204F1180000EB8200716877
:102EB000C160C5EBC50204F1180000EB8200B168E7
:102EC0000161C5EBC50204F1180000EB8200F16856
:102ED0004161C5EBC50204F1180000EB82003169C5
:102EE00081612946204602F00DFD062D10D0F06AC2
:102EF00070B92068803000EBC510006820F40070C5
:102F0000F16D40EA41212068803000EBC51001607E
:102F1000012084F8DD0000BF002084F8DC0000BF41
:102F200000BF9BE770B504460D46164694F8DD00D9
:102F3000022800D170BD00BF94F8DC00012801D147
:102F40000220F7E7012084F8DC0000BF022084F8AB
:102F5000DD0032462946204603F032F92946204654
:102F600002F0D0FC012084F8DD0000BF002084F8CE
:102F7000DC0000BF00BFDDE70348006803490968C3
:102F80000844014908607047680000207000002074
:102F900010B50024032000F0ABF80F2000F008F873
:102FA00008B1012401E000F02FF8204610BD000018
:102FB00070B50446002511480068D8B10F48006874
:102FC0004FF47A71B1FBF0F00D490968B1FBF0F6EE
:102FD000304600F079FF58B9102C07D20022214664
:102FE000501E00F047F80748046004E0012502E0A5
:102FF000012500E00125284670BD0000700000207A
:10300000900000206C00002008B500BF0E48006E44
:1030100040F001000C4908660846006E00F001000F
:10302000009000BF00BF00BF0846806D40F0805098
:1030300088650846806D00F08050009000BF00BF9A
:1030400000F0F6F808BD00000010024001460846F6
:1030500000280DDB00BF00BF00F01F0301229A40D3
:1030600043099B0003F1E023C3F8002100BF00BF28
:1030700000BF70472DE9F05F80460D46164605F00B
:1030800045FC074639462A46334601F00700C0F1A1
:10309000070ABAF1040F02D94FF0040A01E0C0F1A7
:1030A000070AD14600F1040ABAF1070F02D24FF025
:1030B000000A01E0A0F1030AD4464FF0010A0AFA1F
:1030C00009FAAAF1010A0AEA020A0AFA0CFA4FF00E
:1030D000010B0BFA0CFBABF1010B0BEA030B4AEAF9
:1030E0000B042146404605F019FCBDE8F09F0000A6
:1030F00000BF00F00702064B19684FF6FF031940A6
:10310000044B0B4343EA0221014B196000BF704797
:103110000CED00E00000FA0502468ABB4148006859
:1031200000F4C060B0F5806F2BD13E48803000685D
:1031300020F480703B4BC3F880001846006820F4F0
:10314000C06040F40070186037480068322358436C
:10315000364BB0FBF3F0411C00E0491E314840699A
:1031600000F48060B0F5806F01D10029F5D12D48C1
:10317000406900F48060B0F5806F51D10320704742
:1031800008E028488030006820F48070254BC3F8A0
:10319000800045E0B2F5007F3AD12248006800F493
:1031A000C060B0F5806F2AD11E488030006840F4BE
:1031B00080701C4BC3F880001846006820F4C06083
:1031C00040F4007018601848006832235843174BC9
:1031D000B0FBF3F0411C00E0491E1248406900F4C6
:1031E0008060B0F5806F01D10029F5D10D484069AC
:1031F00000F48060B0F5806F12D10320BFE709486A
:103200008030006840F48070064BC3F8800007E00F
:103210000448006820F4C06040F48060014B1860EE
:103220000020ACE7007000409000002040420F00FA
:103230000348806840F4804001498860704700007E
:10324000007000402DE9F84304460027B846206886
:1032500000F40020B0F5002F73D1B946FD48806D11
:1032600000F0805078B900BFFA48806D40F080507F
:10327000F84988650846806D00F08050009000BFD6
:1032800000BF4FF00109F448006840F48070F24933
:103290000860FFF787F8064606E0FFF783F8801B13
:1032A000022801D9032705E0EB48006800F480708C
:1032B0000028F2D000BF002F46D1E64890300068C9
:1032C00000F44075CDB1206DA84216D0E148903091
:1032D000006820F44075DF48D0F8900040F480305A
:1032E000DC49C1F890000846D0F8900020F4803006
:1032F000C1F890000846C0F8905005F00100A0B158
:10330000FFF750F8064608E0FFF74CF8801B41F243
:103310008831884201D9032706E0CE489030006802
:1033200000F002000028EFD000BF5FB9C94890301C
:10333000006820F44070216D0843C649C1F8900030
:1033400003E00CE0B84600E0B846B9F1010F05D142
:10335000C048806D20F08050BE49886500BF20784D
:1033600000F0010048B1BB488830006820F003003D
:1033700061680843B749C1F88800207800F002006E
:10338000022809D1B3488830006820F00C00A168F9
:103390000843B049C1F88800207800F004000428F0
:1033A00009D1AC488830006820F03000E16808435B
:1033B000A849C1F88800207800F00800082809D141
:1033C000A4488830006820F0C00021690843A14962
:1033D000C1F88800207800F01000102809D19D481D
:1033E0008830006820F44070616908439949C1F849
:1033F0008800207800F02000202809D195488830E6
:10340000006820F44060A16908439249C1F888002F
:10341000207800F04000402809D18E4888300068AC
:1034200020F44050E16908438A49C1F888002078B7
:1034300000F08000802809D186488830006820F498
:103440004040216A08438349C1F88800208800F47D
:103450008070B0F5807F09D17E488830006820F404
:103460004030616A08437B49C1F88800206800F455
:103470000030B0F5003F09D176489C30006820F05C
:103480000300A16A08437349C1F89C00208800F436
:103490000070B0F5007F09D16E488830006820F4D4
:1034A0004020E16A08436B49C1F88800208800F495
:1034B0008060B0F5806F13D166488830006820F4D2
:1034C0004010216B0843634988310860206BB0F5D8
:1034D000801F05D15F48C06840F480105D49C86016
:1034E000208800F40060B0F5006F13D1594888308F
:1034F000006820F44000616B084356498831086039
:10350000606BB0F5800F05D15248C06840F4801060
:103510005049C860208800F48050B0F5805F13D116
:103520004C488830006820F04070A16B084349493E
:1035300088310860A06BB0F1807F05D14548C06834
:1035400040F480104349C860208800F40050B0F572
:10355000005F13D13F488830006820F04060E16B85
:1035600008433C4988310860E06BB0F1006F05D139
:103570003848C06840F480103649C860208800F49C
:103580008040B0F5804F13D132488830006820F079
:103590004060216C08432F4988310860206CB0F1ED
:1035A000006F05D12B48C06840F480102949C860DD
:1035B000208800F40040B0F5004F13D12548883032
:1035C000006820F04050616C08432249883108604F
:1035D000606CB0F1805F05D11E48C06840F4803057
:1035E0001C49C860206800F48030B0F5803F13D1DA
:1035F00018488830006820F04040A16C0843154905
:1036000088310860A06CB0F1804F05D11148C068C6
:1036100040F480300F49C860206800F48020B0F585
:10362000802F13D10B489C30006820F44010E16CCF
:10363000084308499C310860E06CB0F5001F05D1D3
:103640000448C06840F480100249C8604046BDE8A4
:10365000F883000000100240007000402DE9F041A6
:1036600004460D464FF0000814B90120BDE8F08172
:103670007D48006800F00F00A8420ED27A4800682A
:1036800020F00F002843784908600846006800F0E1
:103690000F00A84201D00120E8E7207800F00100E7
:1036A000002864D06068032823D17048006800F0C7
:1036B000007008B90120D9E703F07AFD06466C488E
:1036C000864237D96948806800F0F00030B1207830
:1036D00000F0020002282DD1A06858BB6348806822
:1036E00020F0F00040F08000604988604FF08008D2
:1036F00020E06068022806D15C48006800F40030D1
:1037000040B90120B2E75948006800F4806008B968
:103710000120ABE700F0DEF806465548864209D99D
:103720005248806820F0F00040F080004F498860E7
:103730004FF080084D48806820F00300616808431E
:103740004A498860FEF72EFE074608E0FEF72AFE8B
:10375000C01B41F28831884201D9032086E74348E3
:10376000806800F00C006168B0EB810FEED120782A
:1037700000F00200022820D1207800F00400042884
:1037800005D13A48806840F4E06038498860207884
:1037900000F00800082807D13448806820F4605001
:1037A00040F4E060314988603048806820F0F000E3
:1037B000A16808432D49886008E0B8F1800F05D161
:1037C0002A48806820F0F000284988602648006870
:1037D00000F00F00A84219D92348006820F00F001C
:1037E000284321490860FEF7DDFD074608E0FEF7A3
:1037F000D9FDC01B41F28831884201D9032035E749
:103800001948006800F00F00A842F0D1207800F0BD
:103810000400042807D11548806820F4E060E168BE
:10382000084312498860207800F00800082808D171
:103830000E48806820F46050216940EAC1000B49BD
:10384000886000F047F809498968C1F30311094A03
:10385000515C01F01F01C840074908600748006833
:10386000FFF7A6FB02E70000002002400010024024
:1038700000B4C404B8930008900000206C0000203D
:1038800001480068704700009000002000B5FFF775
:10389000F7FF05498968C1F30221044A515C01F030
:1038A0001F01C84000BD000000100240C89300087E
:1038B00000B5FFF7E5FF05498968C1F3C221044A55
:1038C000515C01F01F01C84000BD00000010024023
:1038D000C893000870B5224DAD6805F00C05042DA5
:1038E00001D120483AE01E4DAD6805F00C05082DC9
:1038F00001D11D4832E01A4DAD6805F00C050C2DC4
:103900002BD1174DED6805F00304154DED68C5F397
:1039100003156A1C022C0CD0032C09D1124DB5FBE7
:10392000F2F50F4EF668C6F3062605FB06F10AE02F
:1039300000BF0C4DB5FBF2F5094EF668C6F306263E
:1039400005FB06F100BF00BF054DED68C5F34165FD
:103950006D1C6B00B1FBF3F000E0002070BD0000B7
:10396000001002400024F40000366E012DE9F843F7
:10397000044614B90120BDE8F883207800F0010066
:10398000002865D0FC48806800F00C07FA48C06841
:1039900000F003060C2F01D1032E01D0082F0AD10D
:1039A000F548006800F40030002851D06068002815
:1039B0004ED10120DFE700BF6068B0F5803F06D13F
:1039C000ED48006840F48030EB4908601AE0606818
:1039D000B0F5A02F0BD1E848006840F48020E649FC
:1039E00008600846006840F4803008600AE0E24859
:1039F000006820F48030E04908600846006820F440
:103A00008020086000BF606888B1FEF7CBFC0546E7
:103A100006E0FEF7C7FC401B642801D90320AAE793
:103A2000D548006800F400300028F2D010E0FEF71E
:103A3000B9FC054606E0FEF7B5FC401B642801D939
:103A4000032098E7CC48006800F400300028F2D149
:103A5000207800F00200022860D1C748806800F09A
:103A60000C07C548C06800F003060C2F01D1022ED8
:103A700001D0042F18D1C048006800F4806018B14C
:103A8000E06808B9012076E7BB48406820F0FE40B6
:103A9000217C40EA0160B8494860B8480068FFF7F7
:103AA00087FA18B3012066E7E06800B3B2480068FF
:103AB00040F48070B0490860FEF774FC054606E0EB
:103AC000FEF770FC401B022801D9032053E7AA48E7
:103AD000006800F480600028F2D0A748406820F019
:103AE000FE40217C40EA0160A349486016E0A248FC
:103AF000006820F48070A0490860FEF753FC05467A
:103B000006E0FEF74FFC401B022801D9032032E7F4
:103B10009948006800F480600028F2D1207800F015
:103B20000800082836D16069D0B193489430006805
:103B300040F001009049C1F89400FEF733FC0546BF
:103B400006E0FEF72FFC401B022801D9032012E7F4
:103B500089489430006800F002000028F1D019E094
:103B600085489430006820F001008349C1F8940032
:103B7000FEF718FC054606E0FEF714FC401B022881
:103B800001D90320F7E67C489430006800F0020079
:103B90000028F1D1207800F00400042872D14FF001
:103BA00000087548806D012121EA107078B100BFCE
:103BB0007148806D40F080506F4988650846806D7F
:103BC00000F08050009000BF00BF4FF001086C482B
:103BD000006800F48070B0B96948006840F48070F3
:103BE00067490860FEF7DEFB054606E0FEF7DAFBF4
:103BF000401B022801D90320BDE66148006800F49B
:103C000080700028F2D000BFA068012808D15A486F
:103C10009030006840F001005749C1F8900021E061
:103C2000A06805280FD154489030006840F0040087
:103C30005149C1F890000846D0F8900040F00100CA
:103C4000C1F890000EE04C489030006820F0010070
:103C50004949C1F890000846D0F8900020F00400CF
:103C6000C1F8900000BFA068A8B1FEF79BFB054615
:103C700009E0FEF797FB401B41F28831884202D9E8
:103C8000032078E625E03C489030006800F0020010
:103C90000028EED013E0FEF785FB054608E0FEF7AE
:103CA00081FB401B41F28831884201D9032062E642
:103CB00031489030006800F002000028EFD1B8F1E0
:103CC000010F05D12C48806D20F080502A4988656D
:103CD00000BF207800F02000202836D1A069D0B1A4
:103CE00025489830006840F001002349C1F8980049
:103CF000FEF758FB054606E0FEF754FB401B022882
:103D000001D9032037E61C489830006800F0020013
:103D10000028F1D019E018489830006820F0010020
:103D20001549C1F89800FEF73DFB054606E0FEF791
:103D300039FB401B022801D903201CE60E489830AD
:103D4000006800F002000028F1D1E069002860D08E
:103D50000948806800F00C000C287AD0E06902283D
:103D600058D10548006820F0807003490860FEF7CC
:103D700019FB05460DE00000001002406C00002019
:103D800000700040FEF70EFB401B022801D9032003
:103D9000F1E54A48006800F000700028F2D1D4E94B
:103DA0000810401E41EA0011A06A41EA0021208E5D
:103DB0000122C2EB500041EA40513420005DC2EBC9
:103DC000500041EA40612C20005D41EAC0603B495F
:103DD000C9683B4A114008433849C8600846006832
:103DE00040F0807008600846C06840F08070C8608D
:103DF000FEF7D8FA054606E0FEF7D4FA401B022883
:103E000001D90320B7E52D48006800F000700028B4
:103E1000F2D051E02948006820F0807027490860FE
:103E2000FEF7C0FA054606E0FEF7BCFA401B022882
:103E300001D903209FE52148006800F000700028A8
:103E4000F2D11E48C0681F4908401C49C86033E0D1
:103E5000FFE7E069012800D18DE51848C66806F043
:103E60000301206A814225D106F0F001606A401EFC
:103E7000B1EB001F1ED106F4FE41A06AB1EB002F8A
:103E800018D106F078412C20005DB1EBC06F11D144
:103E900006F4C001208E0122C2EB5000B1EB405F5E
:103EA00008D106F0C0613420005DC2EB5000B1EBD8
:103EB000406F01D001205EE500205CE5001002406B
:103EC0000C809F01FCFFEEFE70B504462546681E7F
:103ED000B0F1807F01D301200FE0681E4FF0E02198
:103EE00048610F214FF0FF3004F018FD00204FF023
:103EF000E021886107200861002070BD704770478D
:103F00007047000010B50346002200BF93F83C0044
:103F1000012801D1022010BD012083F83C0000BF20
:103F200022F0FF00CC6840EA040222F440708C6862
:103F300040EA040222F480604C6840EA040222F461
:103F400000600C6840EA040222F480500C6940EAE8
:103F5000040222F400504C6940EA040222F480403A
:103F60000C6B40EA040222F470200C8B40EA0442FD
:103F700022F08050CC6940EA0402144C1868A04238
:103F800007D0134C1868A04203D0124C1868A04206
:103F900013D122F470000C8D40EA045222F080709C
:103FA0000C6A40EA040222F000704C6A40EA040203
:103FB00022F00050CC6A40EA04021868426400BF54
:103FC000002083F83C0000BF00BFA4E7002C0140A4
:103FD00000340140005001407047704770470000B6
:103FE00030B502460B4600BF92F83C00012801D1D3
:103FF000022030BD012082F83C0000BF022082F880
:104000003D001068416810688468234D1068A8421C
:1040100007D0224D1068A84203D0214D1068A84255
:1040200003D121F47001586801431E48014018680B
:10403000014310684160184D1068A8421BD01068F9
:10404000B0F1804F17D0184D1068A84213D0174D0B
:104050001068A8420FD0164D1068A8420BD00F4D23
:104060001068A84207D0134D1068A84203D00C4D29
:104070001068A84205D124F08004986804431068B1
:104080008460012082F83D0000BF002082F83C00DF
:1040900000BF00BFADE70000002C0140003401402C
:1040A000005001408FFFFFFD000400400008004069
:1040B000000C004000400140704710B504460CB9A8
:1040C000012010BD94F83D0028B9002084F83C0080
:1040D000204600F029F8022084F83D00211D2068C8
:1040E00003F0CEFB012084F8480000BF84F83E00B6
:1040F00001213F200155402001554120015542201A
:1041000001554320015500BF00BF012084F8440041
:1041100045200155462001554720015500BF01208B
:1041200084F83D000020CCE738B5044611492068EA
:1041300088421DD100BF1048006E40F400600E4957
:1041400008660846006E00F40060009000BF00BFE3
:10415000002211461920FEF78DFF1920FEF776FF89
:10416000002211461B20FEF785FF1B20FEF76EFF85
:1041700038BD0000002C014000100240014691F8BB
:104180003D00012801D001207047022081F83D0048
:104190000868C06840F001000B68D8601C4B0868D4
:1041A00098421BD00868B0F1804F17D0194B0868AF
:1041B000984213D0184B086898420FD0174B0868E4
:1041C00098420BD0164B0868984207D0154B0868E8
:1041D000984203D0144B0868984210D10868806850
:1041E000124B00EA0302062A0FD0B2F5803F0CD032
:1041F0000868006840F001000B68186005E0086876
:10420000006840F001000B6818600020BCE7000067
:10421000002C01400004004000080040000C004059
:1042200000340140004001400050014007000100FF
:104230002DE9F04104460D46002700BF94F83C00EC
:10424000012802D10220BDE8F081012084F83C0061
:1042500000BF022084F83D0020688668424806407E
:1042600026F47F46206886602868B0F5005F33D06A
:1042700015DC402851D008DC002858D0102857D031
:10428000202856D0302862D154E0502831D0602800
:1042900039D0702813D0B0F5805F58D10EE000F00F
:1042A0000F01002953D10011A0F5803008284ED20B
:1042B000DFE800F0414243444546474849E0D5E93C
:1042C00002136A68206803F064FB2068866846F081
:1042D0007706206886603CE0D5E902136A682068AA
:1042E00003F057FB2068806840F4804021688860B4
:1042F0002FE0EA686968206803F064FD50212068B7
:1043000003F052FB25E0EA686968206803F06DFD60
:104310006021206803F048FB1BE0EA6869682068B8
:1043200003F050FD4021206803F03EFB11E000BF88
:1043300000BF00BF00BF00BF00BF00BF00BF00BF85
:1043400000BF00BF2968206803F02EFB01E00127B1
:1043500000BF00BF012084F83D0000BF002084F8AA
:104360003C0000BF38466EE788FFCEFF704770B54F
:1043700004462068C6682068056905F00200022826
:1043800019D106F00200022815D1401F21680861EA
:10439000012020772068806900F0030018B12046D2
:1043A000FFF7E4FF05E0204600F03AF9204600F070
:1043B00067FA0020207705F00400042819D106F0E0
:1043C0000400042815D1C043216808610220207729
:1043D0002068806900F4407018B12046FFF7C6FFDE
:1043E00005E0204600F01CF9204600F049FA0020C4
:1043F000207705F00800082819D106F008000828E1
:1044000015D1C04321680861042020772068C06965
:1044100000F0030018B12046FFF7A8FF05E0204692
:1044200000F0FEF8204600F02BFA0020207705F07F
:104430001000102819D106F01000102815D1C04323
:1044400021680861082020772068C06900F4407066
:1044500018B12046FFF78AFF05E0204600F0E0F89B
:10446000204600F00DFA0020207705F0010048B149
:1044700006F0010030B16FF00100216808612046AC
:1044800000F0B6FA05F08000802804D005F4005052
:10449000B0F5005F0AD106F08000802806D16FF4E5
:1044A0000250216808612046FFF729FD05F480705D
:1044B000B0F5807F0AD106F08000802806D16FF425
:1044C0008070216808612046FFF718FD05F0400064
:1044D000402809D106F04000402805D1C04321689A
:1044E0000861204600F090FA05F02000202809D14C
:1044F00006F02000202805D1C0432168086120462D
:10450000FFF7FEFC05F48010B0F5801F0BD106F418
:104510008010B0F5801F06D16FF48010216808610B
:104520002046FFF75AFD05F40010B0F5001F0BD12F
:1045300006F40010B0F5001F06D16FF400102168DA
:1045400008612046FFF748FD05F48000B0F5800FB4
:104550000BD106F48000B0F5800F06D16FF4800017
:10456000216808612046FFF739FD05F40000B0F529
:10457000000F0BD106F40000B0F5000F06D16FF468
:104580000000216808612046FFF796FD70BD2DE907
:10459000F04104460E461546002700BF94F83C0043
:1045A000012802D10220BDE8F081012084F83C00FE
:1045B00000BF0C2D1AD005DC4DB1042D0CD0082DF8
:1045C00023D10EE0102D16D0142D1ED118E0314647
:1045D000206803F0F5F91AE03146206803F04EFA3E
:1045E00015E03146206803F0ADFA10E0314620684E
:1045F00003F00AFB0BE03146206803F069FB06E09C
:104600003146206803F0A0FB01E0012700BF00BF96
:1046100000BF002084F83C0000BF3846C3E700001C
:1046200010B5044609492068884200D010BD207F9B
:10463000012803D10420FCF711FC05E0207F0228AB
:1046400002D10520FCF70AFC00BFEFE7002C014077
:1046500010B504460CB9012010BD94F83D0028B9EE
:10466000002084F83C00204600F029F8022084F85D
:104670003D00211D206803F003F9012084F8480063
:1046800000BF84F83E0001213F2001554020015524
:1046900041200155422001554320015500BF00BF74
:1046A000012084F84400452001554620015547204B
:1046B000015500BF012084F83D000020CCE7704781
:1046C000F0B504460D46002715B994F83E0015E0F4
:1046D000042D02D13F20005D10E0082D02D14020C2
:1046E000005D0BE00C2D02D14120005D06E0102D95
:1046F00002D14220005D01E04320005D012801D08D
:104700000120F0BD1DB9022084F83E001AE0042DFE
:1047100003D102213F20015514E0082D03D10221CD
:10472000402001550EE00C2D03D1022141200155FE
:1047300008E0102D03D102214220015502E00221A0
:104740004320015535B1042D0BD0082D10D00C2D70
:104750001CD114E02068C06840F002002168C860E5
:1047600016E02068C06840F004002168C8600FE0CF
:104770002068C06840F008002168C86008E0206830
:10478000C06840F010002168C86001E0012700BF48
:1047900000BF002F5DD101222946206803F0E8F810
:1047A0002D492068884213D02C49206888420FD0B8
:1047B0002B49206888420BD02A492068884207D0BC
:1047C00029492068884203D028492068884201D1BD
:1047D000012000E0002028B12068406C40F4004037
:1047E000216848641C49206888421BD02068B0F1C9
:1047F000804F17D01E492068884213D01D49206879
:1048000088420FD01C49206888420BD01349206889
:10481000884207D012492068884203D01349206893
:10482000884210D120688068144900EA0106062EEB
:104830000FD0B6F5803F0CD02068006840F0010032
:104840002168086005E02068006840F001002168E8
:104850000860384655E70000002C01400034014054
:104860000040014000440140004801400050014028
:104870000004004000080040000C00400700010058
:104880007047000070B504460D4615B994F83E0017
:1048900015E0042D02D13F20005D10E0082D02D16B
:1048A0004020005D0BE00C2D02D14120005D06E0B0
:1048B000102D02D14220005D01E04320005D01285F
:1048C00001D0012070BD1DB9022084F83E001AE01D
:1048D000042D03D102213F20015514E0082D03D1FE
:1048E0000221402001550EE00C2D03D10221412070
:1048F000015508E0102D03D102214220015502E0AC
:1049000002214320015501222946206803F030F896
:104910002D492068884213D02C49206888420FD046
:104920002B49206888420BD02A492068884207D04A
:1049300029492068884203D028492068884201D14B
:10494000012000E0002028B12068406C40F40040C5
:10495000216848641C49206888421BD02068B0F157
:10496000804F17D01E492068884213D01D49206807
:1049700088420FD01C49206888420BD01349206818
:10498000884207D012492068884203D01349206822
:10499000884210D120688068144900EA0106062E7A
:1049A0000FD0B6F5803F0CD02068006840F00100C1
:1049B0002168086005E02068006840F00100216877
:1049C000086000207EE70000002C01400034014018
:1049D00000400140004401400048014000500140B7
:1049E0000004004000080040000C004007000100E7
:1049F00010B5044603492068884202D10320FCF721
:104A00002DFA10BD002C01407047014600BF91F8FF
:104A10008400012801D102207047012081F8840020
:104A200000BF2420C1F88800086802680868006890
:104A300020F001000B68186022F000520020486648
:104A4000086802602020C1F8880000BF002081F8BB
:104A5000840000BF00BFDFE770B5044600BF94F8D4
:104A60008400012801D1022070BD012084F8840057
:104A700000BF2420C4F8880020680568206800680A
:104A800020F001002168086045F000554FF000500B
:104A9000606620680560204603F0F6F92020C4F81F
:104AA000880000BF002084F8840000BF00BFDBE75F
:104AB0000146086F70472DE9F04104460E4617463F
:104AC000D4F88C00202825D106B117B90120BDE803
:104AD000F0810120E066002020673A4631462046FA
:104AE00003F01AFE05469DB9E06E01280FD1102093
:104AF0002168086200BF00BF216851E8001F41F033
:104B00001000226842E800010029F5D100E00125EB
:104B10002846DCE70220DAE72DE9F04105460C469D
:104B20002846FFF7C5FF0746022F02D00FB1BDE8A8
:104B3000F0817C49286888420BD124B122467A4909
:104B40007A4802F0A6FB642277497948FFF7B3FF61
:104B5000E6E07849286888420BD124B1224676499C
:104B6000764802F096FB642273497548FFF7A3FF6D
:104B7000D6E074492868884243D1062C3BD372485A
:104B8000007880F00106714901EB8600FCF7B2F86D
:104B90006F48007848B906EB46006E4901EB80008B
:104BA0000021C0F8061041810AE006EB4600694981
:104BB00001EB800068490A68C0F8062089884181B5
:104BC00006EB4600634901EB800064490A68026015
:104BD00089888180604861490A680260898881808B
:104BE00001205B490870594901EB8600324656495D
:104BF000FCF786F800BF062258495948FFF75BFFCB
:104C00008EE058492868884243D1062C3BD3564849
:104C1000007880F00106554901EB8600FCF76AF840
:104C20005348007848B906EB4600524901EB800032
:104C30000021C0F8061041810AE006EB46004D490C
:104C400001EB80004C490A68C0F806208988418140
:104C500006EB4600474901EB800048490A680260BC
:104C600089888180444845490A6802608988818032
:104C700001203F4908703D4901EB860032463A4920
:104C8000FCF73EF800BF06223C493D48FFF713FF02
:104C900046E03C492868884242D1062C3BD33A483A
:104CA000007880F00106394901EB8600FCF722F814
:104CB0003748007848B906EB4600364901EB8000DA
:104CC0000021C0F8061041810AE006EB4600314998
:104CD00001EB800030490A68C0F8062089884181CC
:104CE00006EB46002B4901EB80002C490A68026064
:104CF00089888180284829490A68026089888180DA
:104D0000012023490870214901EB860032461E49E3
:104D1000FBF7F6FF00BF062220492148FFF7CBFE34
:104D200000BF04E7003801403805002000060020DD
:104D3000EC070020004400409C0500206206002093
:104D40008008002000480040320000203800002089
:104D500062000020280400205000002020000020D5
:104D600014090020004C00403300002040000020C7
:104D70006300002058040020560000202600002078
:104D8000C4060020005000403400002048000020ED
:104D900064000020400400205C0000202C00002063
:104DA00058070020704770B504460D4600BF94F8C0
:104DB0008400012801D1022070BD012084F8840004
:104DC00000BF2420C4F888002068066820680068B6
:104DD00020F00100216808602068806820F0606091
:104DE000284321688860204603F04EF8206806605A
:104DF0002020C4F8880000BF002084F8840000BF91
:104E000000BFD9E770B504460D4600BF94F8840092
:104E1000012801D1022070BD012084F8840000BF68
:104E20002420C4F88800206806682068006820F004
:104E30000100216808602068806820F060402843F5
:104E400021688860204603F01FF820680660202053
:104E5000C4F8880000BF002084F8840000BF00BFB1
:104E6000D9E770477047000010B50446174920681D
:104E700088420BD10020C4F890000F2021680862FE
:104E8000062213491348FFF716FE1EE01249206858
:104E900088420BD10020C4F890000F2021680862DE
:104EA00006220E490E48FFF706FE0EE00D49206867
:104EB00088420AD10020C4F890000F2021680862BF
:104EC000062209490948FFF7F6FD10BD00500040D1
:104ED0002C0000205807002000480040200000203F
:104EE00014090020004C004026000020C4060020C9
:104EF0002DE9F04704462068C569206806682068E7
:104F0000876840F60F0005EA0009B9F1000F0FD1DC
:104F100005F0200060B106F0200010B907F08050C5
:104F200030B1606F10B12046616F8847BDE8F087EF
:104F3000B9F1000F7ED0DF48384018B9DE48304064
:104F40000028F7D005F0010058B106F4807040B198
:104F5000012021680862D4F8900040F00100C4F8F4
:104F6000900005F0020058B107F0010040B10220A6
:104F700021680862D4F8900040F00400C4F8900062
:104F800005F0040058B107F0010040B10420216889
:104F90000862D4F8900040F00200C4F8900005F0D8
:104FA000080070B106F0200010B9C248384040B186
:104FB000082021680862D4F8900040F00800C4F886
:104FC000900005F4006060B106F0806048B14FF4D5
:104FD000006021680862D4F8900040F02000C4F816
:104FE0009000D4F89000002852D005F0200050B175
:104FF00006F0200010B907F0805020B1606F10B1AA
:105000002046616F8847D4F890A02068806800F03F
:105010004000402802D00AF0280070B3204603F078
:1050200029F92068806800F04000402826D100BFA0
:1050300000BF00E02DE02168083151E8001F21F099
:1050400040002168083141E80002002AF1D100BF88
:10505000D4F8800068B19948D4F880108863D4F8F7
:105060008000FCF70CFF98B1D4F88000816B884772
:105070000EE02046FFF7F8FE0AE003E02046FFF7C7
:10508000F3FE05E02046FFF7EFFE0020C4F8900095
:105090004CE7E06E012865D105F01000002861D0D2
:1050A00006F010000028FAD010202168086220685D
:1050B000806800F0400040287AD1D4F88000006871
:1050C00040681FFA80F8B8F1000F5CD0B4F85C00BB
:1050D000404558DDA4F85E80D4F880000068006880
:1050E00000F02000E8BB00BF00BF216851E8001FAE
:1050F00021F48070226842E800010029F5D100BF48
:1051000000BF00BF2168083151E8001F21F00100F5
:105110002168083141E80002002AF3D100BF00BF36
:1051200000BF2168083151E8001F21F040002168CC
:10513000083141E80002002AF3D100BF2020C4F862
:105140008C000020E06600BF00BF216851E8001F0E
:1051500021F01000226842E800010029F5D100BFCB
:1051600001E004E068E0D4F88000FCF74DFE022086
:105170002067B4F85C00B4F85E20801A81B2204643
:10518000FFF7CAFC12E0B4F85C0040450ED1D4F839
:1051900080000068006800F02000202806D102206E
:1051A0002067B4F85C102046FFF7B6FCBEE6FFE7C8
:1051B00034F85C0F6188401A1FFA80F860885C3C04
:1051C000C8B3B8F1000F36D000BF00BF216851E866
:1051D000001F21F49070226842E800010029F5D1F7
:1051E00000BF00BF00BF2168083151E8001F314AED
:1051F000D24301EA02002168083141E80002002A96
:10520000F1D100BF2020C4F88C000020E066606768
:1052100000BF00BF216851E8001F21F01000226884
:1052200042E800010029F5D100BF02202067414675
:105230002046FFF771FC79E605F4801050B107F4C1
:10524000800038B14FF48010216808622046FFF7D3
:1052500009FE6BE605F0800058B106F0800010B939
:1052600007F4000028B1A06F10B12046A16F884755
:105270005CE605F0400030B106F0400018B1204671
:1052800003F02EF852E605F4000030B106F080403D
:1052900018B12046FFF7E5FD48E605F0807030B113
:1052A00006F0004018B12046FFF77CFD3EE600BF47
:1052B0003CE600000100001020010004C38000084B
:1052C00010B504460CB9012010BDA06900B100E082
:1052D00000BFD4F8880028B9002084F88400204654
:1052E00000F02AF82420C4F888002068006820F024
:1052F000010021680860A06A10B1204602F0F0FDAC
:10530000204603F025F8012800D1DDE72068406839
:1053100020F49040216848602068806820F02A00CE
:10532000216888602068006840F0010021680860FA
:10533000204602F051FEC7E710B59CB00446142188
:1053400017A8FAF7B1FF542102A8FAF7ADFFFE49FA
:105350002068884258D1082002900020069002A8B8
:10536000FDF770FF08B1FBF7AFFD00BFF748806D98
:1053700040F40020F54988650846806D00F400205F
:10538000019000BF00BF00BF0846C06C40F00400A1
:10539000C8640846C06C00F00400019000BF00BF64
:1053A0004FF44060179002201890002019901A9036
:1053B00005201B9017A9E648FCF708FFE548E649D9
:1053C00008601E2048600021E3488160C1608021A0
:1053D0000161002141618161C1614FF400510162AD
:1053E000FCF716FE08B1FBF76FFD00BFDA48C4F802
:1053F0008000846200BF002201213420FDF73AFEC4
:105400003420FDF723FEE7E1D4492068884273D1B8
:10541000102002900020079002A8FDF713FF08B1AA
:10542000FBF752FD00BFC948806D40F48010C749AA
:1054300088650846806D00F48010019000BF00BFB1
:1054400000BF0846C06C40F00400C8640846C06C49
:1054500000F00400019000BF00BF00BF0846C06C10
:1054600040F00800C8640846C06C00F008000190D5
:1054700000BF00BF881417900220189000201990D8
:105480001A9005201B9017A9B148FCF79FFE042035
:10549000179002201890002019901A9005201B9058
:1054A00017A9AF48FCF792FEAA481430AD4908602E
:1054B000202048600021AB488160C16080210161EB
:1054C000002141618161C1614FF400510162FCF72B
:1054D0009FFD08B1FBF7F8FC00BFA248C4F88000AC
:1054E000846200BF002201213520FDF7C3FD352075
:1054F000FDF7ACFD70E1FFE79B492068884272D15F
:10550000012002900020039002A8FDF79BFE08B145
:10551000FBF7DAFC00BF8D48006E40F480408B49F9
:1055200008660846006E00F48040019000BF00BF8E
:1055300000BF0846C06C40F00400C8640846C06C58
:1055400000F00400019000BF00BF3020179002203F
:105550001890002019901A9007201B9017A97C48DA
:10556000FCF734FE81488249086018204860002119
:105570007F488160C16080210161002141618161BA
:10558000C1610162FCF744FD08B1FBF79DFC00BF5F
:105590007748C4F88000846200BF744814307549AD
:1055A0000860192048601021724881600021C160A4
:1055B00080210161002141618161C1610162FCF7CB
:1055C00027FD08B1FBF780FC00BF6A48E0678462F2
:1055D00000BF002203212520FDF74CFD2520FDF70B
:1055E00035FDF9E0FFE764492068884274D1022064
:1055F00002900020049002A8FDF724FE08B1FBF7FA
:1056000063FC00BF5148806D40F400304F4988650D
:105610000846806D00F40030019000BF00BF00BF5D
:105620000846C06C40F00100C8640846C06C00F039
:105630000100019000BF00BFC8131790022018900E
:10564000002019901A9007201B9017A94FF0904046
:10565000FCF7BCFD45486430484908601A204860A2
:10566000002146488160C1608021016100214161C3
:105670008161C1610162FCF7CBFC08B1FBF724FC3E
:1056800000BF3E48C4F88000846200BF37483C3009
:105690003B4908601B204860102139488160002187
:1056A000C16080210161002141618161C1610162AC
:1056B000FCF7AEFC08B1FBF707FC00BF3048E06721
:1056C000846200BF002203212620FDF7D3FC2620A0
:1056D000FDF7BCFC80E0FFE72A49206888427BD1C7
:1056E000042002900020059002A8FDF7ABFD08B150
:1056F000FBF7EAFB00BF1548806D40F4802013499A
:1057000088650846806D00F48020019000BF00BFCE
:1057100000BF0846C06C40F00200C8640846C06C78
:1057200000F00200019000BF00BF4FF440601790EE
:1057300002201890002019901A9007201B9017A99A
:105740001148FCF743FD21E0004C004000100240EE
:10575000000800481C040240A80900200050004036
:10576000000C0048080A00200038014030000240C8
:10577000680A0020C80A002000440040280B0020CE
:10578000880B0020004800400004004813481438EB
:10579000134908601C204860002111488160C160E5
:1057A00080210161002141618161C1614FF400519B
:1057B0000162FCF72DFC08B1FBF786FB00BF08482F
:1057C000C4F88000846200BF002201212720FDF779
:1057D00051FC2720FDF73AFC1CB010BD1C04024010
:1057E000E80B00207047704770B504460E4615461A
:1057F000D4F8880020283FD106B10DB9012070BD32
:1058000044F8506FA580E580002020642120A0632B
:10581000E06A503CE0B11948E16FC8621848E16F96
:1058200008631848E16F48630020E16F88632368CC
:1058300003F128022B46216DE06FFCF751FC38B1D3
:105840001020C4F890002020C4F888000120D6E77A
:1058500040202168086200BF00BF2168083151E87C
:10586000001F41F080002168083141E80002002A51
:10587000F3D100BF0020C2E70220C0E70F8200087A
:1058800065820008D780000810B504460D492068DD
:10589000884204D100210320FBF732F910E00A49C5
:1058A0002068884204D100210420FBF729F907E091
:1058B00006492068884203D100210520FBF720F922
:1058C00010BD000000480040004C00400050004067
:1058D0007047000010B506210148FCF7BDFF10BD60
:1058E000E002002010B500210148FCF7B5FF10BD13
:1058F000E002002010B501210148FCF7ADFF10BD0A
:10590000E0020020072944D2DFE801F00D161F282D
:10591000313A04000268D2F8842342F0010302689D
:10592000C2F8843336E00268D2F8842342F00203DE
:105930000268C2F884332DE00268D2F8842342F072
:1059400004030268C2F8843324E00268D2F8842396
:1059500042F008030268C2F884331BE00268D2F800
:10596000842342F010030268C2F8843312E0026814
:10597000D2F8842342F020030268C2F8843309E09D
:105980000268D2F8842342F040030268C2F88433EC
:1059900000E000BF00BF704770B504462068D0F833
:1059A00088532068D0F8906305F0010048B106F0F4
:1059B000010030B101212068C0F88C132046FCF7AB
:1059C00045FF05F0020048B106F0020030B10221A7
:1059D0002068C0F88C132046FCF739FF05F004005E
:1059E00048B106F0040030B104212068C0F88C13DF
:1059F0002046FCF72DFF05F0080048B106F008002E
:105A000030B108212068C0F88C132046FCF721FF34
:105A100005F0100048B106F0100030B110212068E8
:105A2000C0F88C132046FCF715FF05F0400048B184
:105A300006F0400030B140212068C0F88C132046A9
:105A4000FCF709FF05F0200048B106F0200030B156
:105A500020212068C0F88C132046FDF723F870BD84
:105A600010B503681A6822F007028B681A4322F007
:105A70001802CB681A4303681A600B6804686361F4
:105A80004B680468A36110BD10B502461468206815
:105A90001468D4F8A03320F020004C69204320F093
:105AA000C0004C69202C02D08C69022C04D120F05B
:105AB000C00040F0200013E08C69032C04D140F0BA
:105AC000400020F080000BE08C69042C04D140F0F1
:105AD000800020F0400003E020F0200020F0C00013
